{
  "abi": [
    {
      "inputs": [],
      "name": "FPGNotApproved",
      "type": "error"
    },
    {
      "inputs": [
        {
          "internalType": "bytes",
          "name": "",
          "type": "bytes"
        }
      ],
      "name": "InvalidInput",
      "type": "error"
    },
    {
      "inputs": [
        {
          "internalType": "bytes",
          "name": "",
          "type": "bytes"
        }
      ],
      "name": "ZeroBytesLength",
      "type": "error"
    },
    {
      "inputs": [
        {
          "internalType": "contract IERC20",
          "name": "token",
          "type": "IERC20"
        },
        {
          "internalType": "address",
          "name": "owner",
          "type": "address"
        },
        {
          "internalType": "address",
          "name": "spender",
          "type": "address"
        },
        {
          "internalType": "uint256",
          "name": "amount",
          "type": "uint256"
        }
      ],
      "name": "verifyApproveAvailable",
      "outputs": [],
      "stateMutability": "view",
      "type": "function"
    },
    {
      "inputs": [
        {
          "internalType": "bytes",
          "name": "item",
          "type": "bytes"
        },
        {
          "internalType": "bytes",
          "name": "errorMessage",
          "type": "bytes"
        }
      ],
      "name": "verifyBytesLengthNotZero",
      "outputs": [],
      "stateMutability": "pure",
      "type": "function"
    },
    {
      "inputs": [
        {
          "internalType": "uint40",
          "name": "item",
          "type": "uint40"
        },
        {
          "internalType": "bytes",
          "name": "message",
          "type": "bytes"
        }
      ],
      "name": "verifyGreaterThanZeroAndBlockNow",
      "outputs": [],
      "stateMutability": "view",
      "type": "function"
    }
  ],
  "bytecode": {
    "object": "0x61048b61003a600b82828239805160001a60731461002d57634e487b7160e01b600052600060045260246000fd5b30600052607381538281f3fe730000000000000000000000000000000000000000301460806040526004361061004b5760003560e01c8063046195161461005057806325babe0a146100655780634a7aea0214610078575b600080fd5b61006361005e366004610227565b61008b565b005b610063610073366004610352565b610164565b6100636100863660046103b6565b6101ae565b6040517fdd62ed3e00000000000000000000000000000000000000000000000000000000815273ffffffffffffffffffffffffffffffffffffffff8481166004830152838116602483015282919086169063dd62ed3e90604401602060405180830381865afa158015610102573d6000803e3d6000fd5b505050506040513d601f19601f820116820180604052508101906101269190610406565b101561015e576040517f2dd611ee00000000000000000000000000000000000000000000000000000000815260040160405180910390fd5b50505050565b81516000036101aa57806040517f5e4d25100000000000000000000000000000000000000000000000000000000081526004016101a1919061041f565b60405180910390fd5b5050565b64ffffffffff82161580156101c95750428264ffffffffff16105b156101aa57806040517f1be4deb80000000000000000000000000000000000000000000000000000000081526004016101a1919061041f565b73ffffffffffffffffffffffffffffffffffffffff8116811461022457600080fd5b50565b6000806000806080858703121561023d57600080fd5b843561024881610202565b9350602085013561025881610202565b9250604085013561026881610202565b9396929550929360600135925050565b7f4e487b7100000000000000000000000000000000000000000000000000000000600052604160045260246000fd5b600082601f8301126102b857600080fd5b813567ffffffffffffffff808211156102d3576102d3610278565b604051601f83017fffffffffffffffffffffffffffffffffffffffffffffffffffffffffffffffe0908116603f0116810190828211818310171561031957610319610278565b8160405283815286602085880101111561033257600080fd5b836020870160208301376000602085830101528094505050505092915050565b6000806040838503121561036557600080fd5b823567ffffffffffffffff8082111561037d57600080fd5b610389868387016102a7565b9350602085013591508082111561039f57600080fd5b506103ac858286016102a7565b9150509250929050565b600080604083850312156103c957600080fd5b823564ffffffffff811681146103de57600080fd5b9150602083013567ffffffffffffffff8111156103fa57600080fd5b6103ac858286016102a7565b60006020828403121561041857600080fd5b5051919050565b600060208083528351808285015260005b8181101561044c57858101830151858201604001528201610430565b5060006040828601015260407fffffffffffffffffffffffffffffffffffffffffffffffffffffffffffffffe0601f830116850101925050509291505056",
    "linkReferences": {}
  },
  "methodIdentifiers": {
    "verifyApproveAvailable(IERC20,address,address,uint256)": "04619516",
    "verifyBytesLengthNotZero(bytes,bytes)": "25babe0a",
    "verifyGreaterThanZeroAndBlockNow(uint40,bytes)": "4a7aea02"
  },
  "id": 110
}