{
  "abi": [
    {
      "inputs": [
        {
          "internalType": "address",
          "name": "initialAdmin",
          "type": "address"
        }
      ],
      "stateMutability": "nonpayable",
      "type": "constructor"
    },
    {
      "inputs": [
        {
          "internalType": "address",
          "name": "admin",
          "type": "address"
        },
        {
          "internalType": "address",
          "name": "caller",
          "type": "address"
        }
      ],
      "name": "CallerNotAdmin",
      "type": "error"
    },
    {
      "anonymous": false,
      "inputs": [
        {
          "indexed": true,
          "internalType": "address",
          "name": "admin",
          "type": "address"
        },
        {
          "indexed": false,
          "internalType": "UD60x18",
          "name": "oldFlashFee",
          "type": "uint256"
        },
        {
          "indexed": false,
          "internalType": "UD60x18",
          "name": "newFlashFee",
          "type": "uint256"
        }
      ],
      "name": "SetFlashFee",
      "type": "event"
    },
    {
      "anonymous": false,
      "inputs": [
        {
          "indexed": true,
          "internalType": "address",
          "name": "admin",
          "type": "address"
        },
        {
          "indexed": true,
          "internalType": "contract IERC20",
          "name": "asset",
          "type": "address"
        },
        {
          "indexed": false,
          "internalType": "UD60x18",
          "name": "oldProtocolFee",
          "type": "uint256"
        },
        {
          "indexed": false,
          "internalType": "UD60x18",
          "name": "newProtocolFee",
          "type": "uint256"
        }
      ],
      "name": "SetProtocolFee",
      "type": "event"
    },
    {
      "anonymous": false,
      "inputs": [
        {
          "indexed": true,
          "internalType": "address",
          "name": "admin",
          "type": "address"
        },
        {
          "indexed": true,
          "internalType": "contract IERC20",
          "name": "asset",
          "type": "address"
        },
        {
          "indexed": false,
          "internalType": "bool",
          "name": "newFlag",
          "type": "bool"
        }
      ],
      "name": "ToggleFlashAsset",
      "type": "event"
    },
    {
      "anonymous": false,
      "inputs": [
        {
          "indexed": true,
          "internalType": "address",
          "name": "oldAdmin",
          "type": "address"
        },
        {
          "indexed": true,
          "internalType": "address",
          "name": "newAdmin",
          "type": "address"
        }
      ],
      "name": "TransferAdmin",
      "type": "event"
    },
    {
      "inputs": [],
      "name": "admin",
      "outputs": [
        {
          "internalType": "address",
          "name": "",
          "type": "address"
        }
      ],
      "stateMutability": "view",
      "type": "function"
    },
    {
      "inputs": [],
      "name": "flashFee",
      "outputs": [
        {
          "internalType": "UD60x18",
          "name": "",
          "type": "uint256"
        }
      ],
      "stateMutability": "view",
      "type": "function"
    },
    {
      "inputs": [
        {
          "internalType": "contract IERC20",
          "name": "asset",
          "type": "address"
        }
      ],
      "name": "isFlashAsset",
      "outputs": [
        {
          "internalType": "bool",
          "name": "supported",
          "type": "bool"
        }
      ],
      "stateMutability": "view",
      "type": "function"
    },
    {
      "inputs": [
        {
          "internalType": "contract IERC20",
          "name": "asset",
          "type": "address"
        }
      ],
      "name": "protocolFees",
      "outputs": [
        {
          "internalType": "UD60x18",
          "name": "fee",
          "type": "uint256"
        }
      ],
      "stateMutability": "view",
      "type": "function"
    },
    {
      "inputs": [
        {
          "internalType": "UD60x18",
          "name": "newFlashFee",
          "type": "uint256"
        }
      ],
      "name": "setFlashFee",
      "outputs": [],
      "stateMutability": "nonpayable",
      "type": "function"
    },
    {
      "inputs": [
        {
          "internalType": "contract IERC20",
          "name": "asset",
          "type": "address"
        },
        {
          "internalType": "UD60x18",
          "name": "newProtocolFee",
          "type": "uint256"
        }
      ],
      "name": "setProtocolFee",
      "outputs": [],
      "stateMutability": "nonpayable",
      "type": "function"
    },
    {
      "inputs": [
        {
          "internalType": "contract IERC20",
          "name": "asset",
          "type": "address"
        }
      ],
      "name": "toggleFlashAsset",
      "outputs": [],
      "stateMutability": "nonpayable",
      "type": "function"
    },
    {
      "inputs": [
        {
          "internalType": "address",
          "name": "newAdmin",
          "type": "address"
        }
      ],
      "name": "transferAdmin",
      "outputs": [],
      "stateMutability": "nonpayable",
      "type": "function"
    }
  ],
  "bytecode": {
    "object": "0x608060405234801561001057600080fd5b5060405161066138038061066183398101604081905261002f9161007d565b600080546001600160a01b0319166001600160a01b03831690811782556040519091907fbdd36143ee09de60bdefca70680e0f71189b2ed7acee364b53917ad433fdaf80908290a3506100ad565b60006020828403121561008f57600080fd5b81516001600160a01b03811681146100a657600080fd5b9392505050565b6105a5806100bc6000396000f3fe608060405234801561001057600080fd5b50600436106100885760003560e01c8063cb01e30e1161005b578063cb01e30e14610100578063dcf844a714610113578063e07df5b414610141578063f851a4401461014a57600080fd5b80634d81e51d1461008d57806375829def146100c5578063907a267b146100da578063b5b3ca2c146100ed575b600080fd5b6100b061009b36600461053c565b60026020526000908152604090205460ff1681565b60405190151581526020015b60405180910390f35b6100d86100d336600461053c565b61018f565b005b6100d86100e8366004610560565b610277565b6100d86100fb366004610579565b610331565b6100d861010e36600461053c565b610412565b61013361012136600461053c565b60036020526000908152604090205481565b6040519081526020016100bc565b61013360015481565b60005461016a9073ffffffffffffffffffffffffffffffffffffffff1681565b60405173ffffffffffffffffffffffffffffffffffffffff90911681526020016100bc565b60005473ffffffffffffffffffffffffffffffffffffffff163314610207576000546040517fc6cce6a400000000000000000000000000000000000000000000000000000000815273ffffffffffffffffffffffffffffffffffffffff90911660048201523360248201526044015b60405180910390fd5b600080547fffffffffffffffffffffffff00000000000000000000000000000000000000001673ffffffffffffffffffffffffffffffffffffffff83169081178255604051909133917fbdd36143ee09de60bdefca70680e0f71189b2ed7acee364b53917ad433fdaf809190a350565b60005473ffffffffffffffffffffffffffffffffffffffff1633146102ea576000546040517fc6cce6a400000000000000000000000000000000000000000000000000000000815273ffffffffffffffffffffffffffffffffffffffff90911660048201523360248201526044016101fe565b6001805490829055604080518281526020810184905233917fc059ba3e07a1c4d1fa8845bdb2af2dd85e844684e0a59e6073499e4338788465910160405180910390a25050565b60005473ffffffffffffffffffffffffffffffffffffffff1633146103a4576000546040517fc6cce6a400000000000000000000000000000000000000000000000000000000815273ffffffffffffffffffffffffffffffffffffffff90911660048201523360248201526044016101fe565b73ffffffffffffffffffffffffffffffffffffffff82166000818152600360209081526040918290208054908590558251818152918201859052929133917f371789a3d97098f3070492613273a065a7e8a19e009fd1ae92a4b4d4c71ed62d910160405180910390a3505050565b60005473ffffffffffffffffffffffffffffffffffffffff163314610485576000546040517fc6cce6a400000000000000000000000000000000000000000000000000000000815273ffffffffffffffffffffffffffffffffffffffff90911660048201523360248201526044016101fe565b73ffffffffffffffffffffffffffffffffffffffff8116600081815260026020908152604091829020805460ff811680157fffffffffffffffffffffffffffffffffffffffffffffffffffffffffffffff0090921682179092559251928352929133917f8cd3a7bc46b26a3b0c07a05a47af78abcaa647626f631d92ea64f8867b23bbec910160405180910390a35050565b73ffffffffffffffffffffffffffffffffffffffff8116811461053957600080fd5b50565b60006020828403121561054e57600080fd5b813561055981610517565b9392505050565b60006020828403121561057257600080fd5b5035919050565b6000806040838503121561058c57600080fd5b823561059781610517565b94602093909301359350505056",
    "linkReferences": {}
  },
  "methodIdentifiers": {
    "admin()": "f851a440",
    "flashFee()": "e07df5b4",
    "isFlashAsset(address)": "4d81e51d",
    "protocolFees(address)": "dcf844a7",
    "setFlashFee(uint256)": "907a267b",
    "setProtocolFee(address,uint256)": "b5b3ca2c",
    "toggleFlashAsset(address)": "cb01e30e",
    "transferAdmin(address)": "75829def"
  },
  "id": 78
}