{
  "abi": [
    {
      "inputs": [
        {
          "internalType": "contract ISablierV2LockupLinear",
          "name": "sablier_",
          "type": "address"
        },
        {
          "internalType": "address",
          "name": "token",
          "type": "address"
        }
      ],
      "stateMutability": "nonpayable",
      "type": "constructor"
    },
    {
      "inputs": [],
      "name": "InvalidAmount",
      "type": "error"
    },
    {
      "inputs": [],
      "name": "InvalidCliff",
      "type": "error"
    },
    {
      "inputs": [],
      "name": "InvalidDuration",
      "type": "error"
    },
    {
      "inputs": [],
      "name": "InvalidStart",
      "type": "error"
    },
    {
      "inputs": [],
      "name": "InvalidStreamId",
      "type": "error"
    },
    {
      "inputs": [],
      "name": "ZeroAddress",
      "type": "error"
    },
    {
      "inputs": [
        {
          "internalType": "address",
          "name": "receipient",
          "type": "address"
        },
        {
          "internalType": "uint256",
          "name": "totalAmount",
          "type": "uint256"
        },
        {
          "internalType": "uint40",
          "name": "duration",
          "type": "uint40"
        },
        {
          "internalType": "uint40",
          "name": "unlockAfter",
          "type": "uint40"
        },
        {
          "internalType": "uint40",
          "name": "start",
          "type": "uint40"
        }
      ],
      "name": "createLockupLinearStream",
      "outputs": [
        {
          "internalType": "uint256",
          "name": "streamId",
          "type": "uint256"
        }
      ],
      "stateMutability": "nonpayable",
      "type": "function"
    },
    {
      "inputs": [],
      "name": "sablier",
      "outputs": [
        {
          "internalType": "contract ISablierV2LockupLinear",
          "name": "",
          "type": "address"
        }
      ],
      "stateMutability": "view",
      "type": "function"
    },
    {
      "inputs": [],
      "name": "streamingToken",
      "outputs": [
        {
          "internalType": "contract IERC20",
          "name": "",
          "type": "address"
        }
      ],
      "stateMutability": "view",
      "type": "function"
    },
    {
      "inputs": [
        {
          "internalType": "address",
          "name": "user",
          "type": "address"
        },
        {
          "internalType": "uint256",
          "name": "",
          "type": "uint256"
        }
      ],
      "name": "userStreams",
      "outputs": [
        {
          "internalType": "uint256",
          "name": "streams",
          "type": "uint256"
        }
      ],
      "stateMutability": "view",
      "type": "function"
    }
  ],
  "bytecode": {
    "object": "0x60c060405234801561001057600080fd5b5060405161094838038061094883398101604081905261002f9161005e565b6001600160a01b0391821660a05216608052610098565b6001600160a01b038116811461005b57600080fd5b50565b6000806040838503121561007157600080fd5b825161007c81610046565b602084015190925061008d81610046565b809150509250929050565b60805160a05161086a6100de60003960008181607c01528181610380015261058e01526000818160db015281816102b5015281816103af01526104c0015261086a6000f3fe608060405234801561001057600080fd5b506004361061004c5760003560e01c8063020055f914610051578063482879aa14610077578063662eaa54146100c3578063d061c061146100d6575b600080fd5b61006461005f36600461064f565b6100fd565b6040519081526020015b60405180910390f35b61009e7f000000000000000000000000000000000000000000000000000000000000000081565b60405173ffffffffffffffffffffffffffffffffffffffff909116815260200161006e565b6100646100d136600461068e565b61012e565b61009e7f000000000000000000000000000000000000000000000000000000000000000081565b6000602052816000526040600020818154811061011957600080fd5b90600052602060002001600091509150505481565b600073ffffffffffffffffffffffffffffffffffffffff861661017d576040517fd92e233d00000000000000000000000000000000000000000000000000000000815260040160405180910390fd5b8164ffffffffff166000036101be576040517f38356e4c00000000000000000000000000000000000000000000000000000000815260040160405180910390fd5b8364ffffffffff166000036101ff576040517f7616640100000000000000000000000000000000000000000000000000000000815260040160405180910390fd5b8264ffffffffff16600003610240576040517f285732a400000000000000000000000000000000000000000000000000000000815260040160405180910390fd5b8460000361027a576040517f2c5211c600000000000000000000000000000000000000000000000000000000815260040160405180910390fd5b6040517f23b872dd000000000000000000000000000000000000000000000000000000008152336004820152306024820152604481018690527f000000000000000000000000000000000000000000000000000000000000000073ffffffffffffffffffffffffffffffffffffffff16906323b872dd906064016020604051808303816000875af1158015610313573d6000803e3d6000fd5b505050506040513d601f19601f8201168201806040525081019061033791906106ec565b61034357610343610715565b6040517f095ea7b300000000000000000000000000000000000000000000000000000000815273ffffffffffffffffffffffffffffffffffffffff7f000000000000000000000000000000000000000000000000000000000000000081166004830152602482018790527f0000000000000000000000000000000000000000000000000000000000000000169063095ea7b3906044016020604051808303816000875af11580156103f8573d6000803e3d6000fd5b505050506040513d601f19601f8201168201806040525081019061041c91906106ec565b5061047e6040805160e081018252600080825260208083018290528284018290526060808401839052608084018390528451908101855282815280820183905280850183905260a084015283518085019094528184528301529060c082015290565b33815273ffffffffffffffffffffffffffffffffffffffff8781166020808401919091526fffffffffffffffffffffffffffffffff88166040808501919091527f0000000000000000000000000000000000000000000000000000000000000000909216606080850191909152600060808501528251908101835264ffffffffff8087168252878116928201929092529182019061051e90881642610744565b64ffffffffff16905260a0820152604080518082019091526000808252602082015260c08201523360009081526020818152604080832080546001810182559084529190922001839055517f4bc78b730000000000000000000000000000000000000000000000000000000081527f000000000000000000000000000000000000000000000000000000000000000073ffffffffffffffffffffffffffffffffffffffff1690634bc78b73906105d8908490600401610784565b6020604051808303816000875af11580156105f7573d6000803e3d6000fd5b505050506040513d601f19601f8201168201806040525081019061061b9190610851565b979650505050505050565b803573ffffffffffffffffffffffffffffffffffffffff8116811461064a57600080fd5b919050565b6000806040838503121561066257600080fd5b61066b83610626565b946020939093013593505050565b803564ffffffffff8116811461064a57600080fd5b600080600080600060a086880312156106a657600080fd5b6106af86610626565b9450602086013593506106c460408701610679565b92506106d260608701610679565b91506106e060808701610679565b90509295509295909350565b6000602082840312156106fe57600080fd5b8151801515811461070e57600080fd5b9392505050565b7f4e487b7100000000000000000000000000000000000000000000000000000000600052600160045260246000fd5b8082018082111561077e577f4e487b7100000000000000000000000000000000000000000000000000000000600052601160045260246000fd5b92915050565b60006101408201905073ffffffffffffffffffffffffffffffffffffffff8084511683528060208501511660208401526fffffffffffffffffffffffffffffffff60408501511660408401528060608501511660608401525060808301511515608083015260a083015164ffffffffff8082511660a08501528060208301511660c08501528060408301511660e0850152505060c083015161084a610100840182805173ffffffffffffffffffffffffffffffffffffffff168252602090810151910152565b5092915050565b60006020828403121561086357600080fd5b505191905056",
    "linkReferences": {}
  },
  "methodIdentifiers": {
    "createLockupLinearStream(address,uint256,uint40,uint40,uint40)": "662eaa54",
    "sablier()": "482879aa",
    "streamingToken()": "d061c061",
    "userStreams(address,uint256)": "020055f9"
  },
  "id": 103
}