{
  "abi": [
    {
      "inputs": [
        {
          "internalType": "contract IERC721Metadata",
          "name": "nft",
          "type": "address"
        },
        {
          "internalType": "string",
          "name": "symbol",
          "type": "string"
        }
      ],
      "name": "SablierV2NFTDescriptor_UnknownNFT",
      "type": "error"
    },
    {
      "inputs": [
        {
          "internalType": "contract IERC721Metadata",
          "name": "sablier",
          "type": "address"
        },
        {
          "internalType": "uint256",
          "name": "streamId",
          "type": "uint256"
        }
      ],
      "name": "tokenURI",
      "outputs": [
        {
          "internalType": "string",
          "name": "uri",
          "type": "string"
        }
      ],
      "stateMutability": "view",
      "type": "function"
    }
  ],
  "bytecode": {
    "object": "0x608060405234801561001057600080fd5b50615ac4806100206000396000f3fe608060405234801561001057600080fd5b506004361061002b5760003560e01c8063e9dc637514610030575b600080fd5b61004361003e3660046124f2565b610059565b604051610050919061256e565b60405180910390f35b60606100ef604051806101400160405280600073ffffffffffffffffffffffffffffffffffffffff1681526020016060815260200160608152602001600073ffffffffffffffffffffffffffffffffffffffff16815260200160608152602001606081526020016060815260200160006fffffffffffffffffffffffffffffffff16815260200160008152602001606081525090565b73ffffffffffffffffffffffffffffffffffffffff84166060820181905261011690610746565b608082015260608101516040517feac8f5b80000000000000000000000000000000000000000000000000000000081526004810185905273ffffffffffffffffffffffffffffffffffffffff9091169063eac8f5b890602401602060405180830381865afa15801561018c573d6000803e3d6000fd5b505050506040513d601f19601f820116820180604052508101906101b09190612581565b73ffffffffffffffffffffffffffffffffffffffff168082526101d29061076f565b602082015260608101516040517fad35efd4000000000000000000000000000000000000000000000000000000008152600481018590526102739173ffffffffffffffffffffffffffffffffffffffff169063ad35efd490602401602060405180830381865afa15801561024a573d6000803e3d6000fd5b505050506040513d601f19601f8201168201806040525081019061026e919061259e565b6108ed565b60a082015260608101516040517f4869e12d0000000000000000000000000000000000000000000000000000000081526004810185905273ffffffffffffffffffffffffffffffffffffffff90911690634869e12d90602401602060405180830381865afa1580156102e9573d6000803e3d6000fd5b505050506040513d601f19601f8201168201806040525081019061030d91906125bf565b6fffffffffffffffffffffffffffffffff1660e0820181905260608201516040517fa80fc071000000000000000000000000000000000000000000000000000000008152600481018690526103c3929173ffffffffffffffffffffffffffffffffffffffff169063a80fc07190602401602060405180830381865afa15801561039a573d6000803e3d6000fd5b505050506040513d601f19601f820116820180604052508101906103be91906125bf565b610a70565b6101008201526103d284610ac4565b8161012001819052506105ba6040518061014001604052806103f48787610ca0565b815260200161041c846000015173ffffffffffffffffffffffffffffffffffffffff16610746565b815260200183602001518152602001610541846060015173ffffffffffffffffffffffffffffffffffffffff1663bc2be1be886040518263ffffffff1660e01b815260040161046d91815260200190565b602060405180830381865afa15801561048a573d6000803e3d6000fd5b505050506040513d601f19601f820116820180604052508101906104ae91906125f1565b64ffffffffff16856060015173ffffffffffffffffffffffffffffffffffffffff16639067b677896040518263ffffffff1660e01b81526004016104f491815260200190565b602060405180830381865afa158015610511573d6000803e3d6000fd5b505050506040513d601f19601f8201168201806040525081019061053591906125f1565b64ffffffffff16610da1565b8152602001610554846101000151610f13565b81526020018361010001518152602001836080015181526020018360a0015181526020016105a78460e001516fffffffffffffffffffffffffffffffff1661059f8660000151610f6e565b60ff16611065565b8152602001836101200151815250611342565b60c0820152602081015160608201516040517fb971302a00000000000000000000000000000000000000000000000000000000815260048101869052610687929161067d9173ffffffffffffffffffffffffffffffffffffffff9091169063b971302a90602401602060405180830381865afa15801561063e573d6000803e3d6000fd5b505050506040513d601f19601f820116820180604052508101906106629190612581565b73ffffffffffffffffffffffffffffffffffffffff16610746565b8360a00151611587565b6106c9826101200151836020015161069e876115b6565b608086015186516106c49073ffffffffffffffffffffffffffffffffffffffff16610746565b611674565b6106e08361012001516106db876115b6565b6116ad565b6106ed8460c001516116d9565b6040516020016107009493929190612634565b60408051601f19818403018152918152820181905261071e906116d9565b60405160200161072e91906127ab565b60405160208183030381529060405291505092915050565b606061076973ffffffffffffffffffffffffffffffffffffffff8316601461182c565b92915050565b60408051600481526024810182526020810180517bffffffffffffffffffffffffffffffffffffffffffffffffffffffff167f95d89b41000000000000000000000000000000000000000000000000000000001790529051606091600091829173ffffffffffffffffffffffffffffffffffffffff8616916107f191906127f0565b600060405180830381855afa9150503d806000811461082c576040519150601f19603f3d011682016040523d82523d6000602084013e610831565b606091505b509150915081158061084557506040815111155b1561088657505060408051808201909152600581527f4552433230000000000000000000000000000000000000000000000000000000602082015292915050565b60008180602001905181019061089c919061283b565b9050601e815111156108e557505060408051808201909152600b81527f4c6f6e672053796d626f6c00000000000000000000000000000000000000000060208201529392505050565b949350505050565b60606004826004811115610903576109036128e8565b0361094157505060408051808201909152600881527f4465706c65746564000000000000000000000000000000000000000000000000602082015290565b6003826004811115610955576109556128e8565b0361099357505060408051808201909152600881527f43616e63656c6564000000000000000000000000000000000000000000000000602082015290565b60018260048111156109a7576109a76128e8565b036109e557505060408051808201909152600981527f53747265616d696e670000000000000000000000000000000000000000000000602082015290565b60028260048111156109f9576109f96128e8565b03610a3757505060408051808201909152600781527f536574746c656400000000000000000000000000000000000000000000000000602082015290565b505060408051808201909152600781527f50656e64696e6700000000000000000000000000000000000000000000000000602082015290565b6000816fffffffffffffffffffffffffffffffff1683612710026fffffffffffffffffffffffffffffffff1681610aa957610aa9612917565b046fffffffffffffffffffffffffffffffff16905092915050565b606060008273ffffffffffffffffffffffffffffffffffffffff166395d89b416040518163ffffffff1660e01b8152600401600060405180830381865afa158015610b13573d6000803e3d6000fd5b505050506040513d6000823e601f3d908101601f19168201604052610b3b919081019061283b565b9050610b856040518060400160405280601181526020017f5341422d56322d4c4f434b55502d4c494e00000000000000000000000000000081525082611a7690919063ffffffff16565b15610bc557505060408051808201909152600d81527f4c6f636b7570204c696e656172000000000000000000000000000000000000006020820152919050565b60408051808201909152601181527f5341422d56322d4c4f434b55502d44594e0000000000000000000000000000006020918201528151908201207f6ab655856fa5352de8c05542b1937ac63c59342da992602767c02734cc53916503610c6157505060408051808201909152600e81527f4c6f636b75702044796e616d69630000000000000000000000000000000000006020820152919050565b82816040517f814a8a2e000000000000000000000000000000000000000000000000000000008152600401610c97929190612946565b60405180910390fd5b604080514660208201819052606085811b7fffffffffffffffffffffffffffffffffffffffff0000000000000000000000001693830193909352605482018490529060009060740160408051601f1981840301815291905280516020909101209050600061016861ffff601084901c160663ffffffff16905060006050600884901c60ff160660140163ffffffff169050600060468460ff1663ffffffff1681610d4c57610d4c612917565b06601e0163ffffffff169050610d61836115b6565b610d6a836115b6565b610d73836115b6565b604051602001610d8593929190612975565b6040516020818303038152906040529550505050505092915050565b606062015180838303046000819003610e11576040518060400160405280600481526020017f266c743b00000000000000000000000000000000000000000000000000000000815250604051602001610dfa9190612a5f565b604051602081830303815290604052915050610769565b61270f811115610e61576040518060400160405280600481526020017f2667743b00000000000000000000000000000000000000000000000000000000815250604051602001610dfa9190612aa0565b600081600114610ea6576040518060400160405280600581526020017f2044617973000000000000000000000000000000000000000000000000000000815250610edd565b6040518060400160405280600481526020017f20446179000000000000000000000000000000000000000000000000000000008152505b9050610ee8826115b6565b81604051602001610efa929190612ae1565b6040516020818303038152906040529250505092915050565b60606000610f2a610f25606485612b10565b611a8c565b90506000610f41610f3c606486612b53565b6115b6565b90508082604051602001610f56929190612b67565b60405160208183030381529060405292505050919050565b60408051600481526024810182526020810180517bffffffffffffffffffffffffffffffffffffffffffffffffffffffff167f313ce5670000000000000000000000000000000000000000000000000000000017905290516000918291829173ffffffffffffffffffffffffffffffffffffffff861691610fef91906127f0565b600060405180830381855afa9150503d806000811461102a576040519150601f19603f3d011682016040523d82523d6000602084013e61102f565b606091505b5091509150818015611042575080516020145b1561105b57808060200190518101906108e59190612bbe565b5060009392505050565b6060826000036110a9575060408051808201909152600181527f30000000000000000000000000000000000000000000000000000000000000006020820152610769565b600082156110c95782600a0a84816110c3576110c3612917565b046110cb565b835b9050600181101561111c576040518060400160405280600481526020017f266c743b00000000000000000000000000000000000000000000000000000000815250604051602001610dfa9190612be1565b66038d7ea4c680008110611170576040518060400160405280600481526020017f2667743b00000000000000000000000000000000000000000000000000000000815250604051602001610dfa9190612c22565b6040805160c081018252600060a0820181815282528251808401845260018082527f4b0000000000000000000000000000000000000000000000000000000000000060208381019190915280850192909252845180860186528181527f4d000000000000000000000000000000000000000000000000000000000000008184015284860152845180860186528181527f4200000000000000000000000000000000000000000000000000000000000000818401526060850152845180860190955284527f540000000000000000000000000000000000000000000000000000000000000090840152608082019290925290805b6103e88410611284576064600a85040691506103e884049350600101611263565b60006040518060400160405280600781526020017f2623383830353b000000000000000000000000000000000000000000000000008152506040516020016112cc9190612c63565b604051602081830303815290604052905060006112e8866115b6565b905060006112f585611a8c565b905082828288876005811061130c5761130c612ca4565b60200201516040516020016113249493929190612cd3565b60405160208183030381529060405297505050505050505092915050565b60606113b6604051806101c0016040528060608152602001600081526020016060815260200160008152602001600081526020016060815260200160008152602001600081526020016060815260200160008152602001600081526020016060815260200160008152602001600081525090565b6113d7600084608001516113d28660a001518760000151611afb565b611b70565b60a083015260c082015260e08301516113f290600190611c53565b826101200183610100018290528281525050506114156002846101000151611c53565b610160830152610180820152606083015161143290600390611c53565b60408301526060820181905261012082015160c083015161018084015160309301010190810160208301526002906103e8037fffffffffffffffffffffffffffffffffffffffffffffffffffffffffffffffd0010460e0820181905260c08201510160108101610140830152610120820151602091018181016101a08401526101808301516030910101608083015260a082015161010083015161016084015160408086015190516114e49501612cd3565b60408051601f198184030181529181529082528051610100810190915260c780825261488b6020830139835160e08501518351611522929190611c7c565b61153f8560c0015186610120015187602001518860400151611d11565b61155d8460e00151856101400151866101a001518760800151611e83565b6040516020016115709493929190612d2a565b604051602081830303815290604052915050919050565b606083838360405160200161159e93929190612e29565b60405160208183030381529060405290509392505050565b606060006115c383611ebc565b600101905060008167ffffffffffffffff8111156115e3576115e361280c565b6040519080825280601f01601f19166020018201604052801561160d576020820181803683370190505b5090508181016020015b7fffffffffffffffffffffffffffffffffffffffffffffffffffffffffffffffff017f3031323334353637383961626364656600000000000000000000000000000000600a86061a8153600a850494508461161757509392505050565b6060858585888689876040516020016116939796959493929190612f40565b604051602081830303815290604052905095945050505050565b606082826040516020016116c292919061320d565b604051602081830303815290604052905092915050565b606081516000036116f857505060408051602081019091526000815290565b6000604051806060016040528060408152602001614a6e6040913990506000600384516002611727919061328e565b6117319190612b53565b61173c9060046132a1565b67ffffffffffffffff8111156117545761175461280c565b6040519080825280601f01601f19166020018201604052801561177e576020820181803683370190505b509050600182016020820185865187015b808210156117ea576003820191508151603f8160121c168501518453600184019350603f81600c1c168501518453600184019350603f8160061c168501518453600184019350603f811685015184535060018301925061178f565b5050600386510660018114611806576002811461181957611821565b603d6001830353603d6002830353611821565b603d60018303535b509195945050505050565b6060600061183b8360026132a1565b61184690600261328e565b67ffffffffffffffff81111561185e5761185e61280c565b6040519080825280601f01601f191660200182016040528015611888576020820181803683370190505b5090507f3000000000000000000000000000000000000000000000000000000000000000816000815181106118bf576118bf612ca4565b60200101907effffffffffffffffffffffffffffffffffffffffffffffffffffffffffffff1916908160001a9053507f78000000000000000000000000000000000000000000000000000000000000008160018151811061192257611922612ca4565b60200101907effffffffffffffffffffffffffffffffffffffffffffffffffffffffffffff1916908160001a905350600061195e8460026132a1565b61196990600161328e565b90505b6001811115611a06577f303132333435363738396162636465660000000000000000000000000000000085600f16601081106119aa576119aa612ca4565b1a60f81b8282815181106119c0576119c0612ca4565b60200101907effffffffffffffffffffffffffffffffffffffffffffffffffffffffffffff1916908160001a90535060049490941c936119ff816132b8565b905061196c565b508315611a6f576040517f08c379a000000000000000000000000000000000000000000000000000000000815260206004820181905260248201527f537472696e67733a20686578206c656e67746820696e73756666696369656e746044820152606401610c97565b9392505050565b8051602091820120825192909101919091201490565b606081600003611aaa57505060408051602081019091526000815290565b600a821015611ae257611abc826115b6565b604051602001611acc91906132ed565b6040516020818303038152906040529050919050565b611aeb826115b6565b604051602001611acc9190613332565b606082600003611b1a5750604080516020810190915260008152610769565b60408051808201909152601081527f68736c283233302c3231252c3131252900000000000000000000000000000000602082015282611b5e610f3c86612710613377565b6040516020016116c29392919061338a565b600060606000611b7f86611f9e565b90506000866003811115611b9557611b956128e8565b03611be857604080516020808201909252600090528451908501207fc5d2460186f7233c927e7db2dcc703c0e500b653ca82273b7bfad8045d85a47003611bdf5760909250611c18565b60d09250611c18565b6000611bf58260006120cf565b90506000611c048760016120cf565b9050611c108282612182565b602801945050505b80611c22846115b6565b828787604051602001611c3995949392919061359d565b604051602081830303815290604052915050935093915050565b60006060611c71848460405180602001604052806000815250611b70565b915091509250929050565b60606040518060600160405280603381526020016155d06033913960405180610140016040528061011c815260200161495261011c9139604051806103a0016040528061037b8152602001614aae61037b91396040518060a001604052806075815260200161456d60759139611cf188612198565b611cfa88612329565b8760405160200161159e979695949392919061385c565b6060611d736040518060400160405280600581526020017f2d313030250000000000000000000000000000000000000000000000000000008152508686604051602001611d5f92919061394a565b6040516020818303038152906040526124b8565b611dbf6040518060400160405280600281526020017f30250000000000000000000000000000000000000000000000000000000000008152508787604051602001611d5f92919061394a565b611e0b6040518060400160405280600481526020017f2d353025000000000000000000000000000000000000000000000000000000008152508686604051602001611d5f9291906139c8565b611e576040518060400160405280600381526020017f35302500000000000000000000000000000000000000000000000000000000008152508787604051602001611d5f9291906139c8565b604051602001611e6a9493929190613a20565b6040516020818303038152906040529050949350505050565b6060611e8e856115b6565b611e97856115b6565b611ea0856115b6565b611ea9856115b6565b604051602001611e6a9493929190613af9565b6000807a184f03e93ff9f4daa797ed6e38ed64bf6a1f0100000000000000008310611f05577a184f03e93ff9f4daa797ed6e38ed64bf6a1f010000000000000000830492506040015b6d04ee2d6d415b85acef81000000008310611f31576d04ee2d6d415b85acef8100000000830492506020015b662386f26fc100008310611f4f57662386f26fc10000830492506010015b6305f5e1008310611f67576305f5e100830492506008015b6127108310611f7b57612710830492506004015b60648310611f8d576064830492506002015b600a83106107695760010192915050565b60606000826003811115611fb457611fb46128e8565b03611ff257505060408051808201909152600881527f50726f6772657373000000000000000000000000000000000000000000000000602082015290565b6001826003811115612006576120066128e8565b0361204457505060408051808201909152600681527f5374617475730000000000000000000000000000000000000000000000000000602082015290565b6002826003811115612058576120586128e8565b0361209657505060408051808201909152600881527f53747265616d6564000000000000000000000000000000000000000000000000602082015290565b505060408051808201909152600881527f4475726174696f6e000000000000000000000000000000000000000000000000602082015290565b81516000908082036120e5576000915050610769565b6000836120f357600d6120f6565b60105b60ff1690506000805b838110156121765786818151811061211957612119612ca4565b01602001517fff00000000000000000000000000000000000000000000000000000000000000167f3b000000000000000000000000000000000000000000000000000000000000000361216a578091505b938201936001016120ff565b50029091039392505050565b60008183116121915781611a6f565b5090919050565b60606000826040518060400160405280601081526020017f68736c283233302c3231252c31312529000000000000000000000000000000008152506040516020016121e4929190613db9565b60408051601f198184030181528282018252601083527f68736c283233302c3231252c3131252900000000000000000000000000000000602084810191909152915190935060009261223892879201613ed6565b604051602081830303815290604052905060006040518060400160405280601081526020017f68736c283233302c3231252c313125290000000000000000000000000000000081525085604051602001612293929190613ff8565b60408051601f198184030181528282018252601083527f68736c283233302c3231252c313125290000000000000000000000000000000060208481019190915291519093506000926122e792899201614192565b60405160208183030381529060405290508383838360405160200161230f9493929190612cd3565b604051602081830303815290604052945050505050919050565b606060006123756040518060400160405280600781526020017f536574746c65640000000000000000000000000000000000000000000000000081525084611a7690919063ffffffff16565b806123d9575060408051808201909152600881527f4465706c657465640000000000000000000000000000000000000000000000006020918201528351908401207f011e4f8a108be9d4cb50f5e78b7cfddaf4bced18925e94e040f9f9318a62a575145b90506040518060c0016040528060908152602001615a3460909139604051806102c00160405280610298815260200161579c61029891398261243657604051806101c0016040528061019981526020016156036101999139612447565b604051806020016040528060008152505b8361246b5760405180610120016040528060f8815260200161479360f89139612488565b604051806101e001604052806101b181526020016145e26101b191395b604051806107e001604052806107a78152602001614e296107a79139604051602001611570959493929190614300565b606082826040516020016116c29291906143c3565b73ffffffffffffffffffffffffffffffffffffffff811681146124ef57600080fd5b50565b6000806040838503121561250557600080fd5b8235612510816124cd565b946020939093013593505050565b60005b83811015612539578181015183820152602001612521565b50506000910152565b6000815180845261255a81602086016020860161251e565b601f01601f19169290920160200192915050565b602081526000611a6f6020830184612542565b60006020828403121561259357600080fd5b8151611a6f816124cd565b6000602082840312156125b057600080fd5b815160058110611a6f57600080fd5b6000602082840312156125d157600080fd5b81516fffffffffffffffffffffffffffffffff81168114611a6f57600080fd5b60006020828403121561260357600080fd5b815164ffffffffff81168114611a6f57600080fd5b6000815161262a81856020860161251e565b9290920192915050565b7f7b2261747472696275746573223a00000000000000000000000000000000000081526000855161266c81600e850160208a0161251e565b7f2c226465736372697074696f6e223a2200000000000000000000000000000000600e9184019182015285516126a981601e840160208a0161251e565b7f222c2265787465726e616c5f75726c223a2268747470733a2f2f7361626c6965601e92909101918201527f722e636f6d222c226e616d65223a220000000000000000000000000000000000603e820152845161270d81604d84016020890161251e565b7f222c22696d616765223a22646174613a696d6167652f7376672b786d6c3b6261604d92909101918201527f736536342c000000000000000000000000000000000000000000000000000000606d820152835161277181607284016020880161251e565b0161279e607282017f227d0000000000000000000000000000000000000000000000000000000000009052565b6074019695505050505050565b7f646174613a6170706c69636174696f6e2f6a736f6e3b6261736536342c0000008152600082516127e381601d85016020870161251e565b91909101601d0192915050565b6000825161280281846020870161251e565b9190910192915050565b7f4e487b7100000000000000000000000000000000000000000000000000000000600052604160045260246000fd5b60006020828403121561284d57600080fd5b815167ffffffffffffffff8082111561286557600080fd5b818401915084601f83011261287957600080fd5b81518181111561288b5761288b61280c565b604051601f8201601f19908116603f011681019083821181831017156128b3576128b361280c565b816040528281528760208487010111156128cc57600080fd5b6128dd83602083016020880161251e565b979650505050505050565b7f4e487b7100000000000000000000000000000000000000000000000000000000600052602160045260246000fd5b7f4e487b7100000000000000000000000000000000000000000000000000000000600052601260045260246000fd5b73ffffffffffffffffffffffffffffffffffffffff831681526040602082015260006108e56040830184612542565b7f68736c28000000000000000000000000000000000000000000000000000000008152600084516129ad81600485016020890161251e565b7f2c0000000000000000000000000000000000000000000000000000000000000060049184019182015284516129ea81600584016020890161251e565b7f252c000000000000000000000000000000000000000000000000000000000000600592909101918201528351612a2881600784016020880161251e565b7f25290000000000000000000000000000000000000000000000000000000000006007929091019182015260090195945050505050565b60008251612a7181846020870161251e565b7f2031204461790000000000000000000000000000000000000000000000000000920191825250600601919050565b60008251612ab281846020870161251e565b7f2039393939204461797300000000000000000000000000000000000000000000920191825250600a01919050565b60008351612af381846020880161251e565b835190830190612b0781836020880161251e565b01949350505050565b600082612b1f57612b1f612917565b500690565b7f4e487b7100000000000000000000000000000000000000000000000000000000600052601160045260246000fd5b600082612b6257612b62612917565b500490565b60008351612b7981846020880161251e565b835190830190612b8d81836020880161251e565b7f25000000000000000000000000000000000000000000000000000000000000009101908152600101949350505050565b600060208284031215612bd057600080fd5b815160ff81168114611a6f57600080fd5b60008251612bf381846020870161251e565b7f2031000000000000000000000000000000000000000000000000000000000000920191825250600201919050565b60008251612c3481846020870161251e565b7f203939392e393954000000000000000000000000000000000000000000000000920191825250600801919050565b60008251612c7581846020870161251e565b7f2000000000000000000000000000000000000000000000000000000000000000920191825250600101919050565b7f4e487b7100000000000000000000000000000000000000000000000000000000600052603260045260246000fd5b60008551612ce5818460208a0161251e565b855190830190612cf9818360208a0161251e565b8551910190612d0c81836020890161251e565b8451910190612d1f81836020880161251e565b019695505050505050565b7f3c73766720786d6c6e733d22687474703a2f2f7777772e77332e6f72672f323081527f30302f737667222077696474683d223130303022206865696768743d2231303060208201527f30222076696577426f783d2230203020313030302031303030223e0000000000604082015260008551612dae81605b850160208a0161251e565b855190830190612dc581605b840160208a0161251e565b8551910190612ddb81605b84016020890161251e565b8451910190612df181605b84016020880161251e565b7f3c2f7376673e0000000000000000000000000000000000000000000000000000605b92909101918201526061019695505050505050565b7f5b7b2274726169745f74797065223a224173736574222c2276616c7565223a22815260008451612e6181602085016020890161251e565b80830190507f227d2c7b2274726169745f74797065223a2253656e646572222c2276616c756560208201527f223a2200000000000000000000000000000000000000000000000000000000008060408301528551612ec6816043850160208a0161251e565b7f227d2c7b2274726169745f74797065223a22537461747573222c2276616c75656043939091019283015260638201528351612f0981606684016020880161251e565b7f227d5d00000000000000000000000000000000000000000000000000000000006066929091019182015260690195945050505050565b7f54686973204e465420726570726573656e74732061207061796d656e7420737481527f7265616d20696e2061205361626c696572205632200000000000000000000000602082015260008851612f9e816035850160208d0161251e565b7f20636f6e74726163742e20546865206f776e6572206f662074686973204e46546035918401918201527f2063616e207769746864726177207468652073747265616d656420617373657460558201527f732c207768696368206172652064656e6f6d696e6174656420696e20000000006075820152613021609182018a612618565b7f2e5c6e5c6e2d2053747265616d2049443a200000000000000000000000000000815290506130536012820189612618565b7f5c6e2d2000000000000000000000000000000000000000000000000000000000815290506130856004820188612618565b7f20416464726573733a2000000000000000000000000000000000000000000000815290506130b7600a820187612618565b7f5c6e2d2000000000000000000000000000000000000000000000000000000000815290506130e96004820186612618565b7f20416464726573733a20000000000000000000000000000000000000000000008152905061311b600a820185612618565b7f5c6e5c6e0000000000000000000000000000000000000000000000000000000081527fe29aa0efb88f205741524e494e473a205472616e7366657272696e672074686560048201527f204e4654206d616b657320746865206e6577206f776e6572207468652072656360248201527f697069656e74206f66207468652073747265616d2e205468652066756e64732060448201527f617265206e6f74206175746f6d61746963616c6c792077697468647261776e2060648201527f666f72207468652070726576696f757320726563697069656e742e00000000006084820152609f019a9950505050505050505050565b7f5361626c6965722056322000000000000000000000000000000000000000000081526000835161324581600b85016020880161251e565b7f2023000000000000000000000000000000000000000000000000000000000000600b91840191820152835161328281600d84016020880161251e565b01600d01949350505050565b8082018082111561076957610769612b24565b808202811582820484141761076957610769612b24565b6000816132c7576132c7612b24565b507fffffffffffffffffffffffffffffffffffffffffffffffffffffffffffffffff0190565b7f2e3000000000000000000000000000000000000000000000000000000000000081526000825161332581600285016020870161251e565b9190910160020192915050565b7f2e0000000000000000000000000000000000000000000000000000000000000081526000825161336a81600185016020870161251e565b9190910160010192915050565b8181038181111561076957610769612b24565b7f3c672066696c6c3d226e6f6e65223e000000000000000000000000000000000081527f3c636972636c652063783d22313636222063793d2235302220723d2232322220600f8201527f7374726f6b653d22000000000000000000000000000000000000000000000000602f8201526000845161340e81603785016020890161251e565b7f22207374726f6b652d77696474683d223130222f3e00000000000000000000006037918401918201527f3c636972636c652063783d22313636222063793d2235302220706174684c656e604c8201527f6774683d2231303030302220723d22323222207374726f6b653d220000000000606c820152845161349781608784016020890161251e565b7f22207374726f6b652d6461736861727261793d22313030303022207374726f6b608792909101918201527f652d646173686f66667365743d2200000000000000000000000000000000000060a782015261356d6134f860b5830186612618565b7f22207374726f6b652d6c696e656361703d22726f756e6422207374726f6b652d81527f77696474683d223522207472616e73666f726d3d22726f74617465282d39302960208201527f22207472616e73666f726d2d6f726967696e3d22313636203530222f3e0000006040820152605d0190565b7f3c2f673e0000000000000000000000000000000000000000000000000000000081526004019695505050505050565b7f3c672069643d22000000000000000000000000000000000000000000000000008152600086516135d5816007850160208b0161251e565b7f222066696c6c3d2223666666223e0000000000000000000000000000000000006007918401918201527f3c726563742077696474683d220000000000000000000000000000000000000060158201528651613638816022840160208b0161251e565b7f22206865696768743d22313030222066696c6c2d6f7061636974793d222e3033910160228101919091527f222072783d223135222072793d22313522207374726f6b653d2223666666222060428201527f7374726f6b652d6f7061636974793d222e3122207374726f6b652d776964746860628201527f3d2234222f3e000000000000000000000000000000000000000000000000000060828201527f3c7465787420783d2232302220793d2233342220666f6e742d66616d696c793d60888201527f2227436f7572696572204e6577272c417269616c2c6d6f6e6f7370616365222060a88201527f666f6e742d73697a653d2232327078223e00000000000000000000000000000060c882015261375460d9820187612618565b7f3c2f746578743e00000000000000000000000000000000000000000000000000815290507f3c7465787420783d2232302220793d2237322220666f6e742d66616d696c793d60078201527f2227436f7572696572204e6577272c417269616c2c6d6f6e6f7370616365222060278201527f666f6e742d73697a653d2232367078223e00000000000000000000000000000060478201526137f86058820186612618565b7f3c2f746578743e000000000000000000000000000000000000000000000000008152905061382a6007820185612618565b7f3c2f673e00000000000000000000000000000000000000000000000000000000815260040198975050505050505050565b7f3c646566733e00000000000000000000000000000000000000000000000000008152600060068951602061389682848701838f0161251e565b8a51918501916138ab81858501848f0161251e565b8a519201916138bf81858501848e0161251e565b89519201916138d381858501848d0161251e565b88519201916138e781858501848c0161251e565b87519201916138fb81858501848b0161251e565b865192019161390f81858501848a0161251e565b7f3c2f646566733e0000000000000000000000000000000000000000000000000092019283019190915250600d019998505050505050505050565b6000835161395c81846020880161251e565b7f20e280a2200000000000000000000000000000000000000000000000000000009083019081527f5361626c69657220563220000000000000000000000000000000000000000000600582015283516139bc81601084016020880161251e565b01601001949350505050565b600083516139da81846020880161251e565b7f20e280a2200000000000000000000000000000000000000000000000000000009083019081528351613a1481600584016020880161251e565b01600501949350505050565b7f3c7465787420746578742d72656e646572696e673d226f7074696d697a65537081527f656564223e000000000000000000000000000000000000000000000000000000602082015260008551613a7e816025850160208a0161251e565b855190830190613a95816025840160208a0161251e565b8551910190613aab81602584016020890161251e565b8451910190613ac181602584016020880161251e565b7f3c2f746578743e0000000000000000000000000000000000000000000000000060259290910191820152602c019695505050505050565b7f3c75736520687265663d2223476c6f77222066696c6c2d6f7061636974793d2281527f2e39222f3e00000000000000000000000000000000000000000000000000000060208201527f3c75736520687265663d2223476c6f772220783d22313030302220793d22313060258201527f3030222066696c6c2d6f7061636974793d222e39222f3e00000000000000000060458201527f3c75736520687265663d22234c6f676f2220783d223137302220793d22313730605c8201527f22207472616e73666f726d3d227363616c65282e3629222f3e3c757365206872607c8201527f65663d2223486f7572676c6173732220783d223135302220793d223930222074609c8201527f72616e73666f726d3d22726f746174652831302922207472616e73666f726d2d60bc8201527f6f726967696e3d2235303020353030222f3e000000000000000000000000000060dc8201527f3c75736520687265663d222350726f67726573732220783d220000000000000060ee8201526000613c82610107830187612618565b7f2220793d22373930222f3e00000000000000000000000000000000000000000081527f3c75736520687265663d22235374617475732220783d22000000000000000000600b820152613cd86022820187612618565b7f2220793d22373930222f3e000000000000000000000000000000000000000000815290507f3c75736520687265663d222353747265616d65642220783d2200000000000000600b820152613d306024820186612618565b7f2220793d22373930222f3e000000000000000000000000000000000000000000815290507f3c75736520687265663d22234475726174696f6e2220783d2200000000000000600b820152613d886024820185612618565b7f2220793d22373930222f3e0000000000000000000000000000000000000000008152600b01979650505050505050565b7f3c72616469616c4772616469656e742069643d2252616469616c476c6f77223e81527f3c73746f70206f66667365743d223025222073746f702d636f6c6f723d220000602082015260008351613e1781603e85016020880161251e565b7f222073746f702d6f7061636974793d222e36222f3e0000000000000000000000603e918401918201527f3c73746f70206f66667365743d2231303025222073746f702d636f6c6f723d2260538201528351613e7a81607384016020880161251e565b7f222073746f702d6f7061636974793d2230222f3e000000000000000000000000607392909101918201527f3c2f72616469616c4772616469656e743e0000000000000000000000000000006087820152609801949350505050565b7f3c6c696e6561724772616469656e742069643d2253616e64546f70222078313d81527f223025222079313d223025223e0000000000000000000000000000000000000060208201527f3c73746f70206f66667365743d223025222073746f702d636f6c6f723d220000602d82015260008351613f5a81604b85016020880161251e565b80830190507f222f3e000000000000000000000000000000000000000000000000000000000080604b8301527f3c73746f70206f66667365743d2231303025222073746f702d636f6c6f723d22604e8301528451613fbf81606e85016020890161251e565b606e9201918201527f3c2f6c696e6561724772616469656e743e0000000000000000000000000000006071820152608201949350505050565b7f3c6c696e6561724772616469656e742069643d2253616e64426f74746f6d222081527f78313d2231303025222079313d2231303025223e00000000000000000000000060208201527f3c73746f70206f66667365743d22313025222073746f702d636f6c6f723d220060348201526000835161407c81605385016020880161251e565b80830190507f222f3e00000000000000000000000000000000000000000000000000000000008060538301527f3c73746f70206f66667365743d2231303025222073746f702d636f6c6f723d22605683015284516140e181607685016020890161251e565b60769201918201527f3c616e696d617465206174747269627574654e616d653d22783122206475723d60798201527f2236732220726570656174436f756e743d22696e646566696e6974652220766160998201527f6c7565733d223330253b3630253b313230253b3630253b3330253b222f3e000060b982015261418760d782017f3c2f6c696e6561724772616469656e743e0000000000000000000000000000009052565b60e801949350505050565b7f3c6c696e6561724772616469656e742069643d22486f7572676c61737353747281527f6f6b6522206772616469656e745472616e73666f726d3d22726f74617465283960208201527f302922206772616469656e74556e6974733d227573657253706163654f6e557360408201527f65223e000000000000000000000000000000000000000000000000000000000060608201527f3c73746f70206f66667365743d22353025222073746f702d636f6c6f723d220060638201526000835161426281608285016020880161251e565b80830190507f222f3e00000000000000000000000000000000000000000000000000000000008060828301527f3c73746f70206f66667365743d22383025222073746f702d636f6c6f723d2200608583015284516142c78160a485016020890161251e565b60a49201918201527f3c2f6c696e6561724772616469656e743e00000000000000000000000000000060a782015260b801949350505050565b7f3c672069643d22486f7572676c617373223e000000000000000000000000000081526000601287516143398183860160208c0161251e565b87519084019061434f8184840160208c0161251e565b87519101906143648184840160208b0161251e565b86519101906143798184840160208a0161251e565b855191019061438e818484016020890161251e565b7f3c2f673e00000000000000000000000000000000000000000000000000000000910191820152601601979650505050505050565b7f3c74657874506174682073746172744f66667365743d220000000000000000008152600083516143fb81601785016020880161251e565b7f2220687265663d2223466c6f6174696e6754657874222066696c6c3d222366666017918401918201527f662220666f6e742d66616d696c793d2227436f7572696572204e6577272c417260378201527f69616c2c6d6f6e6f7370616365222066696c6c2d6f7061636974793d222e382260578201527f20666f6e742d73697a653d2232367078223e000000000000000000000000000060778201527f3c616e696d6174652061646469746976653d2273756d2220617474726962757460898201527f654e616d653d2273746172744f66667365742220626567696e3d22307322206460a98201527f75723d22353073222066726f6d3d2230252220726570656174436f756e743d2260c98201527f696e646566696e6974652220746f3d2231303025222f3e00000000000000000060e982015261453d610100820185612618565b7f3c2f74657874506174683e0000000000000000000000000000000000000000008152600b019594505050505056fe3c706174682069643d22466c6f6174696e6754657874222066696c6c3d226e6f6e652220643d224d313235203435683735307338302030203830203830763735307330203830202d3830203830682d373530732d38302030202d3830202d3830762d3735307330202d3830203830202d3830222f3e3c7061746820643d226d3438312e34362c3438312e35347638312e3031632d322e33352e37372d342e38322c312e35312d372e33392c322e32332d33302e332c382e35342d37342e36352c31332e39322d3132342e30362c31332e39322d35332e362c302d3130312e32342d362e33332d3133312e34372d31362e3136762d38316c34362e332d34362e3331683137302e33336c34362e32392c34362e33315a222066696c6c3d2275726c282353616e64426f74746f6d29222f3e3c7061746820643d226d3433352e31372c3433352e323363302c312e31372d2e34362c322e33322d312e33332c332e34342d372e31312c392e30382d34312e39332c31352e39382d38332e38312c31352e3938732d37362e372d362e392d38332e38322d31352e3938632d2e38372d312e31322d312e33332d322e32372d312e33332d332e3434762d2e30346c382e33342d382e33352e30312d2e30316331332e37322d362e35312c34322e39352d31312e30322c37362e382d31312e30327336322e39372c342e34392c37362e37322c31316c382e34322c382e34325a222066696c6c3d2275726c282353616e64546f7029222f3e3c7061746820643d226d3438312e34362c3530342e3130317635382e343439632d322e33352e37372d342e38322c312e35312d372e33392c322e32332d33302e332c382e35342d37342e36352c31332e39322d3132342e30362c31332e39322d35332e362c302d3130312e32342d362e33332d3133312e34372d31362e3136762d35382e343339683236322e39325a222066696c6c3d2275726c282353616e64426f74746f6d29222f3e3c656c6c697073652063783d22333530222063793d223530342e313031222072783d223133312e343632222072793d2232382e313038222066696c6c3d2275726c282353616e64546f7029222f3e3c726563742077696474683d223130302522206865696768743d2231303025222066696c7465723d2275726c28234e6f69736529222f3e3c7265637420783d2237302220793d223730222077696474683d2238363022206865696768743d22383630222066696c6c3d2223666666222066696c6c2d6f7061636974793d222e3033222072783d223435222072793d22343522207374726f6b653d222366666622207374726f6b652d6f7061636974793d222e3122207374726f6b652d77696474683d2234222f3e3c66696c7465722069643d224e6f697365223e3c6665466c6f6f6420783d22302220793d2230222077696474683d223130302522206865696768743d22313030252220666c6f6f642d636f6c6f723d2268736c283233302c3231252c313125292220666c6f6f642d6f7061636974793d22312220726573756c743d22666c6f6f6446696c6c222f3e3c666554757262756c656e636520626173654672657175656e63793d222e3422206e756d4f6374617665733d22332220726573756c743d224e6f6973652220747970653d226672616374616c4e6f697365222f3e3c6665426c656e6420696e3d224e6f6973652220696e323d22666c6f6f6446696c6c22206d6f64653d22736f66742d6c69676874222f3e3c2f66696c7465723e4142434445464748494a4b4c4d4e4f505152535455565758595a6162636465666768696a6b6c6d6e6f707172737475767778797a303132333435363738392b2f3c706174682069643d224c6f676f222066696c6c3d2223666666222066696c6c2d6f7061636974793d222e312220643d226d3133332e3535392c3132342e303334632d2e3031332c322e3431322d312e3035392c342e3834382d322e3932332c362e3430322d322e3535382c312e3831392d352e3136382c332e3433392d372e3838382c342e3939362d31342e34342c382e3236322d33312e3034372c31322e3536352d34372e3637342c31322e3536392d382e3835382e3033362d31372e3833382d312e3237322d32362e3332382d332e3636332d392e3830362d322e3736362d31392e3038372d372e3131332d32372e3536322d31322e3737382d31332e3834322d382e3032352c392e3436382d32382e3630362c31362e3135332d33352e323635683063322e3033352d312e3833382c342e3235322d332e3534362c362e3436332d352e323234683063362e3432392d352e3635352c31362e3231382d322e3833352c32302e3335382c342e31372c342e3134332c352e3035372c382e3831362c392e3634392c31332e39322c31332e373334682e30333763352e3733362c362e3436312c31352e3335372d322e3235332c392e33382d382e34382c302c302d332e3531352d332e3531352d332e3531352d332e3531352d31312e34392d31312e3437382d35322e3635362d35322e3636342d36342e3833372d36342e3833376c2e3034392d2e303337632d312e3732352d312e3630362d322e3731392d332e3834372d322e3735312d362e3230346830632d2e3034362d322e3337352c312e3036322d342e3538322c322e3732362d362e32323968306c2e3138352d2e3134386830632e3039392d2e3036322c2e3232322d2e3134382c2e33372d2e323539683063322e30362d312e3336322c332e3935312d322e3632312c362e3034342d332e3834324335372e3736332d332e3437332c39372e37362d322e3334312c3132382e3633372c31382e3333326331362e3637312c392e3934362d32362e3334342c35342e3831332d33382e3635312c34302e3139392d362e3239392d362e3039362d31382e3036332d31372e3734332d31392e3636382d31382e3831312d362e3031362d342e3034372d31332e3036312c342e3737362d372e3735322c392e3735316c36382e3235342c36382e33373163312e3732342c312e3630312c322e3731342c332e38342c322e3733382c362e3139325a222f3e3c672066696c6c3d226e6f6e6522207374726f6b653d2275726c2823486f7572676c6173735374726f6b652922207374726f6b652d6c696e656361703d22726f756e6422207374726f6b652d6d697465726c696d69743d22313022207374726f6b652d77696474683d2234223e3c7061746820643d226d3536352e3634312c3130372e323863302c392e3533372d352e35362c31382e3632392d31352e3637362c32362e393733682d2e303233632d392e3230342c372e3539362d32322e3139342c31342e3536322d33382e3139372c32302e3539322d33392e3530342c31342e3933362d39372e3332352c32342e3335352d3136312e3733332c32342e3335352d39302e34382c302d3136372e3934382d31382e3538322d3139392e3935332d34342e393438682d2e303233632d31302e3131352d382e3334342d31352e3637362d31372e3433372d31352e3637362d32362e3937332c302d33392e3733352c39362e3535342d37312e3932312c3231352e3635322d37312e393231733231352e3632392c33322e3138352c3231352e3632392c37312e3932315a222f3e3c7061746820643d226d3133342e33362c3136312e32303363302c33392e3733352c39362e3535342c37312e3932312c3231352e3635322c37312e393231733231352e3632392d33322e3138362c3231352e3632392d37312e393231222f3e3c6c696e652078313d223133342e3336222079313d223136312e323033222078323d223133342e3336222079323d223130372e3238222f3e3c6c696e652078313d223536352e3634222079313d223136312e323033222078323d223536352e3634222079323d223130372e3238222f3e3c6c696e652078313d223138342e353834222079313d223230362e383233222078323d223138342e353835222079323d223533372e353739222f3e3c6c696e652078313d223231382e313831222079313d223231382e313138222078323d223231382e313831222079323d223536322e353337222f3e3c6c696e652078313d223438312e383138222079313d223231382e313432222078323d223438312e383139222079323d223536322e343238222f3e3c6c696e652078313d223531352e343135222079313d223230372e333532222078323d223531352e343136222079323d223533372e353739222f3e3c7061746820643d226d3138342e35382c3533372e353863302c352e34352c342e32372c31302e36352c31322e30332c31352e3432682e303263352e35312c332e33392c31322e37392c362e35352c32312e35352c392e34322c33302e32312c392e392c37382e30322c31362e32382c3133312e38332c31362e32382c34392e34312c302c39332e37362d352e33382c3132342e30362d31332e39322c322e372d2e37362c352e32392d312e35342c372e37352d322e33352c382e37372d322e38372c31362e30352d362e30342c32312e35362d392e3433683063372e37362d342e37372c31322e30342d392e39372c31322e30342d31352e3432222f3e3c7061746820643d226d3138342e3538322c3439322e363536632d33312e3335342c31322e3438352d35302e3232332c32382e35382d35302e3232332c34362e3134322c302c392e3533362c352e3536342c31382e3632372c31352e3637372c32362e393639682e30323263382e3530332c372e3030352c32302e3231332c31332e3436332c33342e3532342c31392e3135392c392e3939392c332e3939312c32312e3236392c372e3630392c33332e3539372c31302e3738382c33362e34352c392e3430372c38322e3138312c31352e3030322c3133312e3833352c31352e3030327339352e3336332d352e3539352c3133312e3830372d31352e3030326331302e3834372d322e37392c32302e3836372d352e3932362c32392e3932342d392e3334392c312e3234342d2e3436372c322e3437332d2e3934322c332e3637332d312e3432342c31342e3332362d352e3639362c32362e3033352d31322e3136312c33342e3532342d31392e313733682e3032326331302e3131342d382e3334322c31352e3637372d31372e3433332c31352e3637372d32362e3936392c302d31372e3536322d31382e3836392d33332e3636352d35302e3232332d34362e3135222f3e3c7061746820643d226d3133342e33362c3539322e373263302c33392e3733352c39362e3535342c37312e3932312c3231352e3635322c37312e393231733231352e3632392d33322e3138362c3231352e3632392d37312e393231222f3e3c6c696e652078313d223133342e3336222079313d223539322e3732222078323d223133342e3336222079323d223533382e373937222f3e3c6c696e652078313d223536352e3634222079313d223539322e3732222078323d223536352e3634222079323d223533382e373937222f3e3c706f6c796c696e6520706f696e74733d223438312e383232203438312e393031203438312e373938203438312e383737203438312e373735203438312e383534203335302e303135203335302e303236203231382e313835203231382e313239222f3e3c706f6c796c696e6520706f696e74733d223231382e313835203438312e393031203231382e323331203438312e383534203335302e303135203335302e303236203438312e383232203231382e313532222f3e3c2f673e3c636972636c652069643d22476c6f772220723d22353030222066696c6c3d2275726c282352616469616c476c6f7729222f3e3c706f6c79676f6e20706f696e74733d22333530203335302e303236203431352e3033203238342e39373820323835203238342e39373820333530203335302e303236222066696c6c3d2275726c282353616e64426f74746f6d29222f3e3c7061746820643d226d3431362e3334312c3238312e39373563302c2e3931342d2e3335342c312e3830392d312e3033352c322e36382d352e3534322c372e3037362d33322e3636312c31322e34352d36352e32382c31322e34352d33322e3632342c302d35392e3733382d352e3337342d36352e32382d31322e34352d2e3638312d2e3837322d312e3033352d312e3736372d312e3033352d322e36382c302d2e3931342e3335342d312e3830382c312e3033352d322e3637362c352e3534322d372e3037362c33322e3635362d31322e34352c36352e32382d31322e34352c33322e3631392c302c35392e3733382c352e3337342c36352e32382c31322e34352e3638312e3836372c312e3033352c312e3736322c312e3033352c322e3637365a222066696c6c3d2275726c282353616e64546f7029222f3e3c7061746820643d226d3536362c3136312e323031762d35332e39323463302d31392e3338322d32322e3531332d33372e3536332d36332e3339382d35312e3139382d34302e3735362d31332e3539322d39342e3934362d32312e3037392d3135322e3538372d32312e303739732d3131312e3833382c372e3438372d3135322e3630322c32312e303739632d34302e3839332c31332e3633362d36332e3431332c33312e3831362d36332e3431332c35312e3139387635332e39323463302c31372e3138312c31372e3730342c33332e3432372c35302e3232332c34362e333934763238342e383039632d33322e3531392c31322e39362d35302e3232332c32392e3230362d35302e3232332c34362e3339347635332e39323463302c31392e3338322c32322e35322c33372e3536332c36332e3431332c35312e3139382c34302e3736332c31332e3539322c39342e3935342c32312e3037392c3135322e3630322c32312e303739733131312e3833312d372e3438372c3135322e3538372d32312e3037396334302e3838362d31332e3633362c36332e3339382d33312e3831362c36332e3339382d35312e313938762d35332e39323463302d31372e3139362d31372e3730342d33332e3433352d35302e3232332d34362e343031563230372e3630336333322e3531392d31322e3936372c35302e3232332d32392e3230362c35302e3232332d34362e3430315a6d2d3334372e3436322c35372e3739336c3133302e3935392c3133312e3032372d3133302e3935392c3133312e303133563231382e3939345a6d3236322e3932342e303232763236322e3031386c2d3133302e3933372d3133312e3030362c3133302e3933372d3133312e3031335a222066696c6c3d2223313631383232223e3c2f706174683e3c7061746820643d224d2035302c3336302061203330302c333030203020312c31203630302c302061203330302c333030203020312c31202d3630302c30222066696c6c3d2223666666222066696c6c2d6f7061636974793d222e303222207374726f6b653d2275726c2823486f7572676c6173735374726f6b652922207374726f6b652d77696474683d2234222f3e",
    "linkReferences": {}
  },
  "methodIdentifiers": {
    "tokenURI(address,uint256)": "e9dc6375"
  },
  "id": 80
}