{
  "abi": [
    {
      "inputs": [],
      "name": "CallerBanned",
      "type": "error"
    },
    {
      "inputs": [],
      "name": "FeatureCompleted",
      "type": "error"
    },
    {
      "inputs": [],
      "name": "NonRefundable",
      "type": "error"
    },
    {
      "inputs": [],
      "name": "NotProjectOwner",
      "type": "error"
    },
    {
      "inputs": [],
      "name": "NotRefundAvailable",
      "type": "error"
    },
    {
      "inputs": [],
      "name": "ProjectAlreadyActive",
      "type": "error"
    },
    {
      "inputs": [],
      "name": "ProjectConculded",
      "type": "error"
    },
    {
      "inputs": [],
      "name": "ProjectNotActive",
      "type": "error"
    },
    {
      "inputs": [],
      "name": "StartDateNotReached",
      "type": "error"
    },
    {
      "inputs": [],
      "name": "ZeroAddress",
      "type": "error"
    },
    {
      "anonymous": false,
      "inputs": [
        {
          "indexed": false,
          "internalType": "address",
          "name": "previousAdmin",
          "type": "address"
        },
        {
          "indexed": false,
          "internalType": "address",
          "name": "newAdmin",
          "type": "address"
        }
      ],
      "name": "AdminChanged",
      "type": "event"
    },
    {
      "anonymous": false,
      "inputs": [
        {
          "indexed": true,
          "internalType": "address",
          "name": "beacon",
          "type": "address"
        }
      ],
      "name": "BeaconUpgraded",
      "type": "event"
    },
    {
      "anonymous": false,
      "inputs": [
        {
          "indexed": true,
          "internalType": "address",
          "name": "owner",
          "type": "address"
        },
        {
          "indexed": true,
          "internalType": "bytes",
          "name": "projectURL",
          "type": "bytes"
        }
      ],
      "name": "FPGProjectAdded",
      "type": "event"
    },
    {
      "anonymous": false,
      "inputs": [
        {
          "indexed": true,
          "internalType": "bytes",
          "name": "projectURL",
          "type": "bytes"
        },
        {
          "indexed": true,
          "internalType": "bytes",
          "name": "branchName",
          "type": "bytes"
        },
        {
          "indexed": true,
          "internalType": "uint256",
          "name": "timestamp",
          "type": "uint256"
        }
      ],
      "name": "FeatureDevelopmentStarted",
      "type": "event"
    },
    {
      "anonymous": false,
      "inputs": [
        {
          "indexed": true,
          "internalType": "address",
          "name": "owner",
          "type": "address"
        },
        {
          "indexed": true,
          "internalType": "bytes",
          "name": "branchName",
          "type": "bytes"
        },
        {
          "indexed": true,
          "internalType": "bytes",
          "name": "featureName",
          "type": "bytes"
        },
        {
          "indexed": false,
          "internalType": "uint40",
          "name": "startDate",
          "type": "uint40"
        },
        {
          "indexed": false,
          "internalType": "uint40",
          "name": "duration",
          "type": "uint40"
        }
      ],
      "name": "FeatureFundingRequest",
      "type": "event"
    },
    {
      "anonymous": false,
      "inputs": [
        {
          "indexed": false,
          "internalType": "uint8",
          "name": "version",
          "type": "uint8"
        }
      ],
      "name": "Initialized",
      "type": "event"
    },
    {
      "anonymous": false,
      "inputs": [
        {
          "indexed": true,
          "internalType": "address",
          "name": "previousOwner",
          "type": "address"
        },
        {
          "indexed": true,
          "internalType": "address",
          "name": "newOwner",
          "type": "address"
        }
      ],
      "name": "OwnershipTransferred",
      "type": "event"
    },
    {
      "anonymous": false,
      "inputs": [
        {
          "indexed": false,
          "internalType": "address",
          "name": "account",
          "type": "address"
        }
      ],
      "name": "Paused",
      "type": "event"
    },
    {
      "anonymous": false,
      "inputs": [
        {
          "indexed": true,
          "internalType": "bytes",
          "name": "branchName",
          "type": "bytes"
        },
        {
          "indexed": true,
          "internalType": "uint256",
          "name": "amount",
          "type": "uint256"
        }
      ],
      "name": "ProjectFundingCommitment",
      "type": "event"
    },
    {
      "anonymous": false,
      "inputs": [
        {
          "indexed": true,
          "internalType": "bytes",
          "name": "projectURL",
          "type": "bytes"
        },
        {
          "indexed": true,
          "internalType": "bytes",
          "name": "branchName",
          "type": "bytes"
        },
        {
          "indexed": true,
          "internalType": "enum FeatureStatus",
          "name": "status",
          "type": "uint8"
        }
      ],
      "name": "ProjectStatusUpdated",
      "type": "event"
    },
    {
      "anonymous": false,
      "inputs": [
        {
          "indexed": true,
          "internalType": "address",
          "name": "funder",
          "type": "address"
        },
        {
          "indexed": true,
          "internalType": "bytes",
          "name": "projectURL",
          "type": "bytes"
        },
        {
          "indexed": true,
          "internalType": "bytes",
          "name": "branchName",
          "type": "bytes"
        }
      ],
      "name": "RevokedFunding",
      "type": "event"
    },
    {
      "anonymous": false,
      "inputs": [
        {
          "indexed": false,
          "internalType": "address",
          "name": "account",
          "type": "address"
        }
      ],
      "name": "Unpaused",
      "type": "event"
    },
    {
      "anonymous": false,
      "inputs": [
        {
          "indexed": true,
          "internalType": "address",
          "name": "implementation",
          "type": "address"
        }
      ],
      "name": "Upgraded",
      "type": "event"
    },
    {
      "inputs": [],
      "name": "acceptedToken",
      "outputs": [
        {
          "internalType": "contract IERC20",
          "name": "",
          "type": "address"
        }
      ],
      "stateMutability": "view",
      "type": "function"
    },
    {
      "inputs": [
        {
          "internalType": "bytes",
          "name": "projectURL",
          "type": "bytes"
        }
      ],
      "name": "activeProjects",
      "outputs": [
        {
          "internalType": "bool",
          "name": "projectActive",
          "type": "bool"
        }
      ],
      "stateMutability": "view",
      "type": "function"
    },
    {
      "inputs": [
        {
          "internalType": "bytes",
          "name": "projectURL",
          "type": "bytes"
        }
      ],
      "name": "addProject",
      "outputs": [],
      "stateMutability": "nonpayable",
      "type": "function"
    },
    {
      "inputs": [
        {
          "internalType": "address",
          "name": "owner",
          "type": "address"
        }
      ],
      "name": "blacklist",
      "outputs": [
        {
          "internalType": "bool",
          "name": "status",
          "type": "bool"
        }
      ],
      "stateMutability": "view",
      "type": "function"
    },
    {
      "inputs": [
        {
          "internalType": "bytes",
          "name": "projectURL",
          "type": "bytes"
        },
        {
          "internalType": "bytes",
          "name": "branchName",
          "type": "bytes"
        },
        {
          "internalType": "uint256",
          "name": "amount",
          "type": "uint256"
        }
      ],
      "name": "fundFeature",
      "outputs": [],
      "stateMutability": "nonpayable",
      "type": "function"
    },
    {
      "inputs": [],
      "name": "fundingRevocable",
      "outputs": [
        {
          "internalType": "bool",
          "name": "",
          "type": "bool"
        }
      ],
      "stateMutability": "view",
      "type": "function"
    },
    {
      "inputs": [
        {
          "internalType": "bytes",
          "name": "projectURL",
          "type": "bytes"
        },
        {
          "internalType": "bytes",
          "name": "branchName",
          "type": "bytes"
        }
      ],
      "name": "getFeatureDetails",
      "outputs": [
        {
          "internalType": "address",
          "name": "",
          "type": "address"
        },
        {
          "internalType": "bytes",
          "name": "",
          "type": "bytes"
        },
        {
          "internalType": "uint40",
          "name": "",
          "type": "uint40"
        },
        {
          "internalType": "uint40",
          "name": "",
          "type": "uint40"
        },
        {
          "internalType": "uint256",
          "name": "",
          "type": "uint256"
        },
        {
          "internalType": "enum FeatureStatus",
          "name": "",
          "type": "uint8"
        }
      ],
      "stateMutability": "view",
      "type": "function"
    },
    {
      "inputs": [
        {
          "internalType": "bytes",
          "name": "projectURL",
          "type": "bytes"
        }
      ],
      "name": "getProjectDetails",
      "outputs": [
        {
          "internalType": "address",
          "name": "",
          "type": "address"
        },
        {
          "internalType": "bytes[]",
          "name": "",
          "type": "bytes[]"
        }
      ],
      "stateMutability": "view",
      "type": "function"
    },
    {
      "inputs": [],
      "name": "getProjectURLs",
      "outputs": [
        {
          "internalType": "bytes[]",
          "name": "",
          "type": "bytes[]"
        }
      ],
      "stateMutability": "view",
      "type": "function"
    },
    {
      "inputs": [
        {
          "internalType": "contract StreamCreator",
          "name": "sablier",
          "type": "address"
        },
        {
          "internalType": "bool",
          "name": "revocable",
          "type": "bool"
        }
      ],
      "name": "initialize",
      "outputs": [],
      "stateMutability": "nonpayable",
      "type": "function"
    },
    {
      "inputs": [],
      "name": "owner",
      "outputs": [
        {
          "internalType": "address",
          "name": "",
          "type": "address"
        }
      ],
      "stateMutability": "view",
      "type": "function"
    },
    {
      "inputs": [],
      "name": "paused",
      "outputs": [
        {
          "internalType": "bool",
          "name": "",
          "type": "bool"
        }
      ],
      "stateMutability": "view",
      "type": "function"
    },
    {
      "inputs": [
        {
          "internalType": "bytes",
          "name": "projectURL",
          "type": "bytes"
        }
      ],
      "name": "projectActive",
      "outputs": [
        {
          "internalType": "bool",
          "name": "",
          "type": "bool"
        }
      ],
      "stateMutability": "view",
      "type": "function"
    },
    {
      "inputs": [
        {
          "internalType": "uint256",
          "name": "",
          "type": "uint256"
        }
      ],
      "name": "projectURLs",
      "outputs": [
        {
          "internalType": "bytes",
          "name": "",
          "type": "bytes"
        }
      ],
      "stateMutability": "view",
      "type": "function"
    },
    {
      "inputs": [
        {
          "internalType": "bytes",
          "name": "url",
          "type": "bytes"
        }
      ],
      "name": "projects",
      "outputs": [
        {
          "internalType": "address",
          "name": "owner",
          "type": "address"
        },
        {
          "internalType": "bytes",
          "name": "url",
          "type": "bytes"
        }
      ],
      "stateMutability": "view",
      "type": "function"
    },
    {
      "inputs": [],
      "name": "proxiableUUID",
      "outputs": [
        {
          "internalType": "bytes32",
          "name": "",
          "type": "bytes32"
        }
      ],
      "stateMutability": "view",
      "type": "function"
    },
    {
      "inputs": [],
      "name": "renounceOwnership",
      "outputs": [],
      "stateMutability": "nonpayable",
      "type": "function"
    },
    {
      "inputs": [
        {
          "internalType": "bytes",
          "name": "projectURL",
          "type": "bytes"
        },
        {
          "internalType": "bytes",
          "name": "branchName",
          "type": "bytes"
        },
        {
          "internalType": "bytes",
          "name": "featureName",
          "type": "bytes"
        },
        {
          "internalType": "uint256",
          "name": "startDate",
          "type": "uint256"
        },
        {
          "internalType": "uint256",
          "name": "duration",
          "type": "uint256"
        }
      ],
      "name": "requestFeatureFunding",
      "outputs": [],
      "stateMutability": "nonpayable",
      "type": "function"
    },
    {
      "inputs": [
        {
          "internalType": "bytes",
          "name": "projectURL",
          "type": "bytes"
        },
        {
          "internalType": "bytes",
          "name": "branchName",
          "type": "bytes"
        }
      ],
      "name": "startProject",
      "outputs": [],
      "stateMutability": "nonpayable",
      "type": "function"
    },
    {
      "inputs": [
        {
          "internalType": "bytes",
          "name": "projectURL",
          "type": "bytes"
        },
        {
          "internalType": "bytes",
          "name": "branchName",
          "type": "bytes"
        }
      ],
      "name": "stopFundingFeature",
      "outputs": [],
      "stateMutability": "nonpayable",
      "type": "function"
    },
    {
      "inputs": [],
      "name": "streamCreator",
      "outputs": [
        {
          "internalType": "contract StreamCreator",
          "name": "",
          "type": "address"
        }
      ],
      "stateMutability": "view",
      "type": "function"
    },
    {
      "inputs": [
        {
          "internalType": "address",
          "name": "newOwner",
          "type": "address"
        }
      ],
      "name": "transferOwnership",
      "outputs": [],
      "stateMutability": "nonpayable",
      "type": "function"
    },
    {
      "inputs": [
        {
          "internalType": "bytes",
          "name": "projectURL",
          "type": "bytes"
        },
        {
          "internalType": "bytes",
          "name": "branchName",
          "type": "bytes"
        },
        {
          "internalType": "enum FeatureStatus",
          "name": "status",
          "type": "uint8"
        }
      ],
      "name": "updateFeatureStatus",
      "outputs": [],
      "stateMutability": "nonpayable",
      "type": "function"
    },
    {
      "inputs": [
        {
          "internalType": "address",
          "name": "newImplementation",
          "type": "address"
        }
      ],
      "name": "upgradeTo",
      "outputs": [],
      "stateMutability": "nonpayable",
      "type": "function"
    },
    {
      "inputs": [
        {
          "internalType": "address",
          "name": "newImplementation",
          "type": "address"
        },
        {
          "internalType": "bytes",
          "name": "data",
          "type": "bytes"
        }
      ],
      "name": "upgradeToAndCall",
      "outputs": [],
      "stateMutability": "payable",
      "type": "function"
    }
  ],
  "bytecode": {
    "object": "0x60a06040523060805234801561001457600080fd5b50608051613d9961004c60003960008181610ac701528181610b620152818161119d01528181611233015261132e0152613d996000f3fe6080604052600436106101965760003560e01c8063715018a6116100e1578063b5895e621161008a578063ef2dc01a11610064578063ef2dc01a146104b9578063ef4a57d1146104d9578063f2fde38b146104f9578063f9f92be41461051957600080fd5b8063b5895e621461041b578063b818170c1461044d578063d701007f1461048c57600080fd5b80638da5cb5b116100bb5780638da5cb5b146103bd57806395ef6a66146103db578063af1b49f5146103fb57600080fd5b8063715018a614610356578063715ef9531461036b57806382a13ec41461038b57600080fd5b8063400ada751161014357806352d1902d1161011d57806352d1902d146102ef5780635c975abb14610312578063645ced521461033657600080fd5b8063400ada7514610284578063451c3d80146102a45780634f1ef286146102dc57600080fd5b806333df48041161017457806333df4804146102225780633659cfe6146102445780633e79fb1c1461026457600080fd5b80630f3326a71461019b5780631469df34146101d2578063276c571c146101f4575b600080fd5b3480156101a757600080fd5b506101bb6101b63660046134cd565b610549565b6040516101c99291906135e6565b60405180910390f35b3480156101de57600080fd5b506101f26101ed3660046134cd565b610672565b005b34801561020057600080fd5b5061021461020f3660046134cd565b610929565b6040516101c9929190613608565b34801561022e57600080fd5b506102376109e3565b6040516101c9919061362a565b34801561025057600080fd5b506101f261025f366004613652565b610abd565b34801561027057600080fd5b506101f261027f366004613676565b610c5f565b34801561029057600080fd5b506101f261029f366004613700565b610ebe565b3480156102b057600080fd5b5060fb546102c4906001600160a01b031681565b6040516001600160a01b0390911681526020016101c9565b6101f26102ea366004613739565b611193565b3480156102fb57600080fd5b50610304611321565b6040519081526020016101c9565b34801561031e57600080fd5b5060335460ff165b60405190151581526020016101c9565b34801561034257600080fd5b506101f2610351366004613789565b6113e6565b34801561036257600080fd5b506101f2611a2a565b34801561037757600080fd5b506101f26103863660046137e3565b611a3e565b34801561039757600080fd5b5060fc546103269074010000000000000000000000000000000000000000900460ff1681565b3480156103c957600080fd5b506065546001600160a01b03166102c4565b3480156103e757600080fd5b506101f26103f636600461387d565b612011565b34801561040757600080fd5b506103266104163660046134cd565b612383565b34801561042757600080fd5b5061043b610436366004613789565b6123ae565b6040516101c996959493929190613919565b34801561045957600080fd5b506103266104683660046134cd565b805160208183018101805160ff808352938301929094019190912092905290541681565b34801561049857600080fd5b506104ac6104a73660046139a1565b6125e3565b6040516101c991906139ba565b3480156104c557600080fd5b506101f26104d4366004613789565b612690565b3480156104e557600080fd5b5060fc546102c4906001600160a01b031681565b34801561050557600080fd5b506101f2610514366004613652565b612b61565b34801561052557600080fd5b50610326610534366004613652565b60fe6020526000908152604090205460ff1681565b6000606060fd8360405161055d91906139cd565b908152604051908190036020018120546001600160a01b03169060fd906105859086906139cd565b908152602001604051809103902060030180805480602002602001604051908101604052809291908181526020016000905b828210156106635783829060005260206000200180546105d6906139e9565b80601f0160208091040260200160405190810160405280929190818152602001828054610602906139e9565b801561064f5780601f106106245761010080835404028352916020019161064f565b820191906000526020600020905b81548152906001019060200180831161063257829003601f168201915b5050505050815260200190600101906105b7565b50505050905091509150915091565b61067a612bee565b33600090815260fe602052604090205460ff16156106c4576040517f37b42ede00000000000000000000000000000000000000000000000000000000815260040160405180910390fd5b8060ff816040516106d591906139cd565b9081526040519081900360200190205460ff161561071f576040517fb44e2a2200000000000000000000000000000000000000000000000000000000815260040160405180910390fd5b33610756576040517fd92e233d00000000000000000000000000000000000000000000000000000000815260040160405180910390fd5b6040517f25babe0a00000000000000000000000000000000000000000000000000000000815273__$088f7acbd5f1732c3af813e7e0e45f7e58$__906325babe0a906107a6908590600401613a3c565b60006040518083038186803b1580156107be57600080fd5b505af41580156107d2573d6000803e3d6000fd5b505050506107dd3390565b60fd836040516107ed91906139cd565b90815260405190819003602001812080546001600160a01b03939093167fffffffffffffffffffffffff000000000000000000000000000000000000000090931692909217909155829060fd906108459083906139cd565b908152602001604051809103902060010190816108629190613adc565b50600160ff8360405161087591906139cd565b908152604051908190036020019020805491151560ff1990921691909117905561010080546001810182556000919091527f45e010b9ae401e2eb71529478da8bd513a9bdc2d095a111e324f5b95c09ed87b016108d28382613adc565b50816040516108e191906139cd565b60405180910390206108f03390565b6001600160a01b03167ff61a9b935471a673b34a6023e5d94fff82c3910abe1a48beebc3a62fd0aa4b2560405160405180910390a35050565b805160208183018101805160fd82529282019190930120915280546001820180546001600160a01b039092169291610960906139e9565b80601f016020809104026020016040519081016040528092919081815260200182805461098c906139e9565b80156109d95780601f106109ae576101008083540402835291602001916109d9565b820191906000526020600020905b8154815290600101906020018083116109bc57829003601f168201915b5050505050905082565b6060610100805480602002602001604051908101604052809291908181526020016000905b82821015610ab4578382906000526020600020018054610a27906139e9565b80601f0160208091040260200160405190810160405280929190818152602001828054610a53906139e9565b8015610aa05780601f10610a7557610100808354040283529160200191610aa0565b820191906000526020600020905b815481529060010190602001808311610a8357829003601f168201915b505050505081526020019060010190610a08565b50505050905090565b6001600160a01b037f0000000000000000000000000000000000000000000000000000000000000000163003610b605760405162461bcd60e51b815260206004820152602c60248201527f46756e6374696f6e206d7573742062652063616c6c6564207468726f7567682060448201527f64656c656761746563616c6c000000000000000000000000000000000000000060648201526084015b60405180910390fd5b7f00000000000000000000000000000000000000000000000000000000000000006001600160a01b0316610bbb7f360894a13ba1a3210667c828492db98dca3e2076cc3735a920a3ca505d382bbc546001600160a01b031690565b6001600160a01b031614610c375760405162461bcd60e51b815260206004820152602c60248201527f46756e6374696f6e206d7573742062652063616c6c6564207468726f7567682060448201527f6163746976652070726f787900000000000000000000000000000000000000006064820152608401610b57565b610c4081612c41565b60408051600080825260208201909252610c5c91839190612c49565b50565b8282600060fd83604051610c7391906139cd565b908152602001604051809103902060020182604051610c9291906139cd565b9081526040519081900360200190206004015460ff166003811115610cb957610cb96138ea565b03610cf0576040517f373ff1f700000000000000000000000000000000000000000000000000000000815260040160405180910390fd5b6040517f25babe0a00000000000000000000000000000000000000000000000000000000815273__$088f7acbd5f1732c3af813e7e0e45f7e58$__906325babe0a90610d40908890600401613a3c565b60006040518083038186803b158015610d5857600080fd5b505af4158015610d6c573d6000803e3d6000fd5b50506040517f25babe0a00000000000000000000000000000000000000000000000000000000815273__$088f7acbd5f1732c3af813e7e0e45f7e58$__92506325babe0a9150610dc0908790600401613bf6565b60006040518083038186803b158015610dd857600080fd5b505af4158015610dec573d6000803e3d6000fd5b505050508260fd86604051610e0191906139cd565b908152602001604051809103902060020185604051610e2091906139cd565b908152604051908190036020019020600401805460ff19166001836003811115610e4c57610e4c6138ea565b0217905550826003811115610e6357610e636138ea565b84604051610e7191906139cd565b604051809103902086604051610e8791906139cd565b604051908190038120907f157532ec0bbc3d0be8a4d11c4fd8a3fbc21b96ec4899b6df745a2fbd7a4db70d90600090a45050505050565b600054610100900460ff1615808015610ede5750600054600160ff909116105b80610ef85750303b158015610ef8575060005460ff166001145b610f6a5760405162461bcd60e51b815260206004820152602e60248201527f496e697469616c697a61626c653a20636f6e747261637420697320616c72656160448201527f647920696e697469616c697a65640000000000000000000000000000000000006064820152608401610b57565b6000805460ff191660011790558015610faa57600080547fffffffffffffffffffffffffffffffffffffffffffffffffffffffffffff00ff166101001790555b6001600160a01b038316610fea576040517fd92e233d00000000000000000000000000000000000000000000000000000000815260040160405180910390fd5b60fc80547fffffffffffffffffffffffff0000000000000000000000000000000000000000166001600160a01b038516908117909155604080517fd061c061000000000000000000000000000000000000000000000000000000008152905163d061c061916004808201926020929091908290030181865afa158015611074573d6000803e3d6000fd5b505050506040513d601f19601f820116820180604052508101906110989190613c48565b60fb80547fffffffffffffffffffffffff0000000000000000000000000000000000000000166001600160a01b039290921691909117905560fc80547fffffffffffffffffffffff00ffffffffffffffffffffffffffffffffffffffff16740100000000000000000000000000000000000000008415150217905561111b612e07565b611123612e8c565b61112b612f09565b801561118e57600080547fffffffffffffffffffffffffffffffffffffffffffffffffffffffffffff00ff169055604051600181527f7f26b83ff96e1f2b6a682f133852f6798a09c465da95921460cefb38474024989060200160405180910390a15b505050565b6001600160a01b037f00000000000000000000000000000000000000000000000000000000000000001630036112315760405162461bcd60e51b815260206004820152602c60248201527f46756e6374696f6e206d7573742062652063616c6c6564207468726f7567682060448201527f64656c656761746563616c6c00000000000000000000000000000000000000006064820152608401610b57565b7f00000000000000000000000000000000000000000000000000000000000000006001600160a01b031661128c7f360894a13ba1a3210667c828492db98dca3e2076cc3735a920a3ca505d382bbc546001600160a01b031690565b6001600160a01b0316146113085760405162461bcd60e51b815260206004820152602c60248201527f46756e6374696f6e206d7573742062652063616c6c6564207468726f7567682060448201527f6163746976652070726f787900000000000000000000000000000000000000006064820152608401610b57565b61131182612c41565b61131d82826001612c49565b5050565b6000306001600160a01b037f000000000000000000000000000000000000000000000000000000000000000016146113c15760405162461bcd60e51b815260206004820152603860248201527f555550535570677261646561626c653a206d757374206e6f742062652063616c60448201527f6c6564207468726f7567682064656c656761746563616c6c00000000000000006064820152608401610b57565b507f360894a13ba1a3210667c828492db98dca3e2076cc3735a920a3ca505d382bbc90565b33600090815260fe602052604090205460ff1615611430576040517f37b42ede00000000000000000000000000000000000000000000000000000000815260040160405180910390fd5b8160ff8160405161144191906139cd565b9081526040519081900360200190205460ff1661148a576040517f7701967700000000000000000000000000000000000000000000000000000000815260040160405180910390fd5b8282600060fd8360405161149e91906139cd565b9081526020016040518091039020600201826040516114bd91906139cd565b9081526040519081900360200190206004015460ff1660038111156114e4576114e46138ea565b0361151b576040517f373ff1f700000000000000000000000000000000000000000000000000000000815260040160405180910390fd5b8460fd8160405161152c91906139cd565b908152604051908190036020019020546001600160a01b031661154c3390565b6001600160a01b03161461158c576040517f7c2411e900000000000000000000000000000000000000000000000000000000815260040160405180910390fd5b85854260fd8360405161159f91906139cd565b9081526020016040518091039020600201826040516115be91906139cd565b9081526040519081900360200190206001015464ffffffffff650100000000009091041610611619576040517fb726922c00000000000000000000000000000000000000000000000000000000815260040160405180910390fd5b6040517f25babe0a00000000000000000000000000000000000000000000000000000000815273__$088f7acbd5f1732c3af813e7e0e45f7e58$__906325babe0a90611669908b90600401613a3c565b60006040518083038186803b15801561168157600080fd5b505af4158015611695573d6000803e3d6000fd5b50506040517f25babe0a00000000000000000000000000000000000000000000000000000000815273__$088f7acbd5f1732c3af813e7e0e45f7e58$__92506325babe0a91506116e9908a90600401613bf6565b60006040518083038186803b15801561170157600080fd5b505af4158015611715573d6000803e3d6000fd5b50505050600160fd8960405161172b91906139cd565b90815260200160405180910390206002018860405161174a91906139cd565b908152604051908190036020019020600401805460ff19166001836003811115611776576117766138ea565b021790555060fb5460fc546040516001600160a01b039283169263095ea7b392169060fd906117a6908d906139cd565b90815260200160405180910390206002018a6040516117c591906139cd565b908152604051908190036020018120600201547fffffffff0000000000000000000000000000000000000000000000000000000060e085901b16825261182292916004016001600160a01b03929092168252602082015260400190565b6020604051808303816000875af1158015611841573d6000803e3d6000fd5b505050506040513d601f19601f820116820180604052508101906118659190613c65565b5060fc546001600160a01b031663662eaa543360fd8b60405161188891906139cd565b90815260200160405180910390206002018a6040516118a791906139cd565b9081526020016040518091039020600201544260fd8d6040516118ca91906139cd565b90815260200160405180910390206002018c6040516118e991906139cd565b9081526040519081900360200190206001015461190d919064ffffffffff16613cb1565b6119194261012c613cb1565b6119254261012c613cb1565b6040517fffffffff0000000000000000000000000000000000000000000000000000000060e088901b1681526001600160a01b039095166004860152602485019390935264ffffffffff91821660448501528116606484015216608482015260a4016020604051808303816000875af11580156119a6573d6000803e3d6000fd5b505050506040513d601f19601f820116820180604052508101906119ca9190613cc4565b5042876040516119da91906139cd565b6040518091039020896040516119f091906139cd565b604051908190038120907fd8a26e7491fde55f92812a679eee55044db26d422f1385ccbd412be07a6cf70690600090a45050505050505050565b611a32612f8e565b611a3c6000612fe8565b565b611a46612bee565b33600090815260fe602052604090205460ff1615611a90576040517f37b42ede00000000000000000000000000000000000000000000000000000000815260040160405180910390fd5b8460ff81604051611aa191906139cd565b9081526040519081900360200190205460ff16611aea576040517f7701967700000000000000000000000000000000000000000000000000000000815260040160405180910390fd5b604080517f4a7aea0200000000000000000000000000000000000000000000000000000000815264ffffffffff851660048201526024810191909152601160448201527f496e76616c696420737461727444617465000000000000000000000000000000606482015273__$088f7acbd5f1732c3af813e7e0e45f7e58$__90634a7aea029060840160006040518083038186803b158015611b8a57600080fd5b505af4158015611b9e573d6000803e3d6000fd5b5050604080517f4a7aea0200000000000000000000000000000000000000000000000000000000815264ffffffffff861660048201526024810191909152601060448201527f496e76616c6964206475726174696f6e00000000000000000000000000000000606482015273__$088f7acbd5f1732c3af813e7e0e45f7e58$__9250634a7aea02915060840160006040518083038186803b158015611c4257600080fd5b505af4158015611c56573d6000803e3d6000fd5b50506040517f25babe0a00000000000000000000000000000000000000000000000000000000815273__$088f7acbd5f1732c3af813e7e0e45f7e58$__92506325babe0a9150611caa908890600401613bf6565b60006040518083038186803b158015611cc257600080fd5b505af4158015611cd6573d6000803e3d6000fd5b50506040517f25babe0a00000000000000000000000000000000000000000000000000000000815273__$088f7acbd5f1732c3af813e7e0e45f7e58$__92506325babe0a9150611d2a908790600401613cdd565b60006040518083038186803b158015611d4257600080fd5b505af4158015611d56573d6000803e3d6000fd5b50506040517f25babe0a00000000000000000000000000000000000000000000000000000000815273__$088f7acbd5f1732c3af813e7e0e45f7e58$__92506325babe0a9150611daa908990600401613a3c565b60006040518083038186803b158015611dc257600080fd5b505af4158015611dd6573d6000803e3d6000fd5b505050508360fd87604051611deb91906139cd565b908152602001604051809103902060020186604051611e0a91906139cd565b90815260405190819003602001902090611e249082613adc565b508260fd87604051611e3691906139cd565b908152602001604051809103902060020186604051611e5591906139cd565b908152602001604051809103902060010160056101000a81548164ffffffffff021916908364ffffffffff1602179055508160fd87604051611e9791906139cd565b908152602001604051809103902060020186604051611eb691906139cd565b908152602001604051809103902060010160006101000a81548164ffffffffff021916908364ffffffffff160217905550600260fd87604051611ef991906139cd565b908152602001604051809103902060020186604051611f1891906139cd565b908152604051908190036020019020600401805460ff19166001836003811115611f4457611f446138ea565b021790555060fd86604051611f5991906139cd565b908152604051602091819003820190206003018054600181018255600091825291902001611f878682613adc565b5083604051611f9691906139cd565b604051809103902085604051611fac91906139cd565b6040518091039020611fbb3390565b6040805164ffffffffff8089168252871660208201526001600160a01b0392909216917f8114ef90e7aa184508ba07975649b24ed948225b32c950234a2dc66769f7769b910160405180910390a4505050505050565b612019612bee565b6040517f25babe0a00000000000000000000000000000000000000000000000000000000815273__$088f7acbd5f1732c3af813e7e0e45f7e58$__906325babe0a90612069908690600401613a3c565b60006040518083038186803b15801561208157600080fd5b505af4158015612095573d6000803e3d6000fd5b50506040517f25babe0a00000000000000000000000000000000000000000000000000000000815273__$088f7acbd5f1732c3af813e7e0e45f7e58$__92506325babe0a91506120e9908590600401613bf6565b60006040518083038186803b15801561210157600080fd5b505af4158015612115573d6000803e3d6000fd5b505060fb54604080517f046195160000000000000000000000000000000000000000000000000000000081526001600160a01b039092166004830152336024830152306044830152606482018590525173__$088f7acbd5f1732c3af813e7e0e45f7e58$__9350630461951692506084808301926000929190829003018186803b1580156121a257600080fd5b505af41580156121b6573d6000803e3d6000fd5b505060fb546001600160a01b031691506323b872dd9050336040517fffffffff0000000000000000000000000000000000000000000000000000000060e084901b1681526001600160a01b039091166004820152306024820152604481018490526064016020604051808303816000875af1158015612239573d6000803e3d6000fd5b505050506040513d601f19601f8201168201806040525081019061225d9190613c65565b61226957612269613d2f565b8060fd8460405161227a91906139cd565b90815260200160405180910390206002018360405161229991906139cd565b908152602001604051809103902060020160008282546122b99190613cb1565b925050819055508060fd846040516122d191906139cd565b9081526020016040518091039020600201836040516122f091906139cd565b9081526020016040518091039020600301600061230a3390565b6001600160a01b03166001600160a01b0316815260200190815260200160002060008282546123399190613cb1565b9091555050604051819061234e9084906139cd565b604051908190038120907fef3a5121358d8f20805a6a1fd46ee88d1488dcd2bff7cc01aa6156a6ce2b994f90600090a3505050565b600060ff8260405161239591906139cd565b9081526040519081900360200190205460ff1692915050565b6000606060008060008060fd886040516123c891906139cd565b908152604051908190036020018120546001600160a01b03169060fd906123f0908b906139cd565b90815260200160405180910390206002018860405161240f91906139cd565b9081526040519081900360200181209060fd9061242d908c906139cd565b90815260200160405180910390206002018960405161244c91906139cd565b9081526040519081900360200181206001015464ffffffffff169060fd90612475908d906139cd565b90815260200160405180910390206002018a60405161249491906139cd565b9081526040519081900360200181206001015464ffffffffff65010000000000909104169060fd906124c7908e906139cd565b90815260200160405180910390206002018b6040516124e691906139cd565b90815260200160405180910390206002015460fd8d60405161250891906139cd565b90815260200160405180910390206002018c60405161252791906139cd565b90815260405190819003602001902060040154845460ff90911690859061254d906139e9565b80601f0160208091040260200160405190810160405280929190818152602001828054612579906139e9565b80156125c65780601f1061259b576101008083540402835291602001916125c6565b820191906000526020600020905b8154815290600101906020018083116125a957829003601f168201915b505050505094509550955095509550955095509295509295509295565b61010081815481106125f457600080fd5b90600052602060002001600091509050805461260f906139e9565b80601f016020809104026020016040519081016040528092919081815260200182805461263b906139e9565b80156126885780601f1061265d57610100808354040283529160200191612688565b820191906000526020600020905b81548152906001019060200180831161266b57829003601f168201915b505050505081565b60fc5474010000000000000000000000000000000000000000900460ff166126e4576040517f05a0491e00000000000000000000000000000000000000000000000000000000815260040160405180910390fd5b6040517f25babe0a00000000000000000000000000000000000000000000000000000000815273__$088f7acbd5f1732c3af813e7e0e45f7e58$__906325babe0a90612734908590600401613a3c565b60006040518083038186803b15801561274c57600080fd5b505af4158015612760573d6000803e3d6000fd5b50506040517f25babe0a00000000000000000000000000000000000000000000000000000000815273__$088f7acbd5f1732c3af813e7e0e45f7e58$__92506325babe0a91506127b4908490600401613bf6565b60006040518083038186803b1580156127cc57600080fd5b505af41580156127e0573d6000803e3d6000fd5b50600092506127ed915050565b60fd836040516127fd91906139cd565b90815260200160405180910390206002018260405161281c91906139cd565b9081526040519081900360200190206004015460ff166003811115612843576128436138ea565b0361287a576040517f4d8cf5dc00000000000000000000000000000000000000000000000000000000815260040160405180910390fd5b600060fd8360405161288c91906139cd565b9081526020016040518091039020600201826040516128ab91906139cd565b908152602001604051809103902060030160006128c53390565b6001600160a01b03166001600160a01b0316815260200190815260200160002054111561291e576040517f9590a28600000000000000000000000000000000000000000000000000000000815260040160405180910390fd5b600060fd8360405161293091906139cd565b90815260200160405180910390206002018260405161294f91906139cd565b908152602001604051809103902060030160006129693390565b6001600160a01b03166001600160a01b031681526020019081526020016000205490508060fd8460405161299d91906139cd565b9081526020016040518091039020600201836040516129bc91906139cd565b908152602001604051809103902060020160008282546129dc9190613d5e565b92505081905550600060fd846040516129f591906139cd565b908152602001604051809103902060020183604051612a1491906139cd565b90815260200160405180910390206003016000612a2e3390565b6001600160a01b03908116825260208201929092526040016000209190915560fb54166323b872dd30336040517fffffffff0000000000000000000000000000000000000000000000000000000060e085901b1681526001600160a01b03928316600482015291166024820152604481018490526064016020604051808303816000875af1158015612ac4573d6000803e3d6000fd5b505050506040513d601f19601f82011682018060405250810190612ae89190613c65565b612af457612af4613d2f565b81604051612b0291906139cd565b604051809103902083604051612b1891906139cd565b6040518091039020612b273390565b6001600160a01b03167f0b8fd9efde6efc7eaff0453a9f131b6652fb0154d0fb2f69433257784567fdf960405160405180910390a4505050565b612b69612f8e565b6001600160a01b038116612be55760405162461bcd60e51b815260206004820152602660248201527f4f776e61626c653a206e6577206f776e657220697320746865207a65726f206160448201527f64647265737300000000000000000000000000000000000000000000000000006064820152608401610b57565b610c5c81612fe8565b60335460ff1615611a3c5760405162461bcd60e51b815260206004820152601060248201527f5061757361626c653a20706175736564000000000000000000000000000000006044820152606401610b57565b610c5c612f8e565b7f4910fdfa16fed3260ed0e7147f7cc6da11a60208b5b9406d12a635614ffd91435460ff1615612c7c5761118e83613052565b826001600160a01b03166352d1902d6040518163ffffffff1660e01b8152600401602060405180830381865afa925050508015612cf4575060408051601f3d9081017fffffffffffffffffffffffffffffffffffffffffffffffffffffffffffffffe0168201909252612cf191810190613cc4565b60015b612d665760405162461bcd60e51b815260206004820152602e60248201527f45524331393637557067726164653a206e657720696d706c656d656e7461746960448201527f6f6e206973206e6f7420555550530000000000000000000000000000000000006064820152608401610b57565b7f360894a13ba1a3210667c828492db98dca3e2076cc3735a920a3ca505d382bbc8114612dfb5760405162461bcd60e51b815260206004820152602960248201527f45524331393637557067726164653a20756e737570706f727465642070726f7860448201527f6961626c655555494400000000000000000000000000000000000000000000006064820152608401610b57565b5061118e838383613128565b600054610100900460ff16612e845760405162461bcd60e51b815260206004820152602b60248201527f496e697469616c697a61626c653a20636f6e7472616374206973206e6f74206960448201527f6e697469616c697a696e670000000000000000000000000000000000000000006064820152608401610b57565b611a3c613153565b600054610100900460ff16611a3c5760405162461bcd60e51b815260206004820152602b60248201527f496e697469616c697a61626c653a20636f6e7472616374206973206e6f74206960448201527f6e697469616c697a696e670000000000000000000000000000000000000000006064820152608401610b57565b600054610100900460ff16612f865760405162461bcd60e51b815260206004820152602b60248201527f496e697469616c697a61626c653a20636f6e7472616374206973206e6f74206960448201527f6e697469616c697a696e670000000000000000000000000000000000000000006064820152608401610b57565b611a3c6131d9565b6065546001600160a01b03163314611a3c5760405162461bcd60e51b815260206004820181905260248201527f4f776e61626c653a2063616c6c6572206973206e6f7420746865206f776e65726044820152606401610b57565b606580546001600160a01b038381167fffffffffffffffffffffffff0000000000000000000000000000000000000000831681179093556040519116919082907f8be0079c531659141344cd1fd0a4f28419497f9722a3daafe3b4186f6b6457e090600090a35050565b6001600160a01b0381163b6130cf5760405162461bcd60e51b815260206004820152602d60248201527f455243313936373a206e657720696d706c656d656e746174696f6e206973206e60448201527f6f74206120636f6e7472616374000000000000000000000000000000000000006064820152608401610b57565b7f360894a13ba1a3210667c828492db98dca3e2076cc3735a920a3ca505d382bbc80547fffffffffffffffffffffffff0000000000000000000000000000000000000000166001600160a01b0392909216919091179055565b61313183613262565b60008251118061313e5750805b1561118e5761314d83836132a2565b50505050565b600054610100900460ff166131d05760405162461bcd60e51b815260206004820152602b60248201527f496e697469616c697a61626c653a20636f6e7472616374206973206e6f74206960448201527f6e697469616c697a696e670000000000000000000000000000000000000000006064820152608401610b57565b611a3c33612fe8565b600054610100900460ff166132565760405162461bcd60e51b815260206004820152602b60248201527f496e697469616c697a61626c653a20636f6e7472616374206973206e6f74206960448201527f6e697469616c697a696e670000000000000000000000000000000000000000006064820152608401610b57565b6033805460ff19169055565b61326b81613052565b6040516001600160a01b038216907fbc7cd75a20ee27fd9adebab32041f755214dbc6bffa90cc0225b39da2e5c2d3b90600090a250565b60606132c78383604051806060016040528060278152602001613d72602791396132d0565b90505b92915050565b6060600080856001600160a01b0316856040516132ed91906139cd565b600060405180830381855af49150503d8060008114613328576040519150601f19603f3d011682016040523d82523d6000602084013e61332d565b606091505b509150915061333e86838387613348565b9695505050505050565b606083156133b75782516000036133b0576001600160a01b0385163b6133b05760405162461bcd60e51b815260206004820152601d60248201527f416464726573733a2063616c6c20746f206e6f6e2d636f6e74726163740000006044820152606401610b57565b50816133c1565b6133c183836133c9565b949350505050565b8151156133d95781518083602001fd5b8060405162461bcd60e51b8152600401610b5791906139ba565b7f4e487b7100000000000000000000000000000000000000000000000000000000600052604160045260246000fd5b600082601f83011261343357600080fd5b813567ffffffffffffffff8082111561344e5761344e6133f3565b604051601f83017fffffffffffffffffffffffffffffffffffffffffffffffffffffffffffffffe0908116603f01168101908282118183101715613494576134946133f3565b816040528381528660208588010111156134ad57600080fd5b836020870160208301376000602085830101528094505050505092915050565b6000602082840312156134df57600080fd5b813567ffffffffffffffff8111156134f657600080fd5b6133c184828501613422565b60005b8381101561351d578181015183820152602001613505565b50506000910152565b6000815180845261353e816020860160208601613502565b601f017fffffffffffffffffffffffffffffffffffffffffffffffffffffffffffffffe0169290920160200192915050565b600082825180855260208086019550808260051b84010181860160005b848110156135d9577fffffffffffffffffffffffffffffffffffffffffffffffffffffffffffffffe08684030189526135c7838351613526565b9884019892509083019060010161358d565b5090979650505050505050565b6001600160a01b03831681526040602082015260006133c16040830184613570565b6001600160a01b03831681526040602082015260006133c16040830184613526565b6020815260006132c76020830184613570565b6001600160a01b0381168114610c5c57600080fd5b60006020828403121561366457600080fd5b813561366f8161363d565b9392505050565b60008060006060848603121561368b57600080fd5b833567ffffffffffffffff808211156136a357600080fd5b6136af87838801613422565b945060208601359150808211156136c557600080fd5b506136d286828701613422565b9250506040840135600481106136e757600080fd5b809150509250925092565b8015158114610c5c57600080fd5b6000806040838503121561371357600080fd5b823561371e8161363d565b9150602083013561372e816136f2565b809150509250929050565b6000806040838503121561374c57600080fd5b82356137578161363d565b9150602083013567ffffffffffffffff81111561377357600080fd5b61377f85828601613422565b9150509250929050565b6000806040838503121561379c57600080fd5b823567ffffffffffffffff808211156137b457600080fd5b6137c086838701613422565b935060208501359150808211156137d657600080fd5b5061377f85828601613422565b600080600080600060a086880312156137fb57600080fd5b853567ffffffffffffffff8082111561381357600080fd5b61381f89838a01613422565b9650602088013591508082111561383557600080fd5b61384189838a01613422565b9550604088013591508082111561385757600080fd5b5061386488828901613422565b9598949750949560608101359550608001359392505050565b60008060006060848603121561389257600080fd5b833567ffffffffffffffff808211156138aa57600080fd5b6138b687838801613422565b945060208601359150808211156138cc57600080fd5b506138d986828701613422565b925050604084013590509250925092565b7f4e487b7100000000000000000000000000000000000000000000000000000000600052602160045260246000fd5b6001600160a01b038716815260c06020820152600061393b60c0830188613526565b64ffffffffff87811660408501528616606084015260808301859052905060048310613990577f4e487b7100000000000000000000000000000000000000000000000000000000600052602160045260246000fd5b8260a0830152979650505050505050565b6000602082840312156139b357600080fd5b5035919050565b6020815260006132c76020830184613526565b600082516139df818460208701613502565b9190910192915050565b600181811c908216806139fd57607f821691505b602082108103613a36577f4e487b7100000000000000000000000000000000000000000000000000000000600052602260045260246000fd5b50919050565b604081526000613a4f6040830184613526565b8281036020840152600b81527f496e76616c69642055524c00000000000000000000000000000000000000000060208201526040810191505092915050565b601f82111561118e57600081815260208120601f850160051c81016020861015613ab55750805b601f850160051c820191505b81811015613ad457828155600101613ac1565b505050505050565b815167ffffffffffffffff811115613af657613af66133f3565b613b0a81613b0484546139e9565b84613a8e565b602080601f831160018114613b5d5760008415613b275750858301515b7fffffffffffffffffffffffffffffffffffffffffffffffffffffffffffffffff600386901b1c1916600185901b178555613ad4565b6000858152602081207fffffffffffffffffffffffffffffffffffffffffffffffffffffffffffffffe08616915b82811015613baa57888601518255948401946001909101908401613b8b565b5085821015613be657878501517fffffffffffffffffffffffffffffffffffffffffffffffffffffffffffffffff600388901b60f8161c191681555b5050505050600190811b01905550565b604081526000613c096040830184613526565b8281036020840152601381527f496e76616c6964206272616e6368206e616d650000000000000000000000000060208201526040810191505092915050565b600060208284031215613c5a57600080fd5b815161366f8161363d565b600060208284031215613c7757600080fd5b815161366f816136f2565b7f4e487b7100000000000000000000000000000000000000000000000000000000600052601160045260246000fd5b808201808211156132ca576132ca613c82565b600060208284031215613cd657600080fd5b5051919050565b604081526000613cf06040830184613526565b8281036020840152601481527f496e76616c69642066656174757265206e616d6500000000000000000000000060208201526040810191505092915050565b7f4e487b7100000000000000000000000000000000000000000000000000000000600052600160045260246000fd5b818103818111156132ca576132ca613c8256fe416464726573733a206c6f772d6c6576656c2064656c65676174652063616c6c206661696c6564",
    "linkReferences": {
      "src/utils/FPGUtils.sol": {
        "FPGUtils": [
          {
            "start": 1994,
            "length": 20
          },
          {
            "start": 3428,
            "length": 20
          },
          {
            "start": 3554,
            "length": 20
          },
          {
            "start": 5773,
            "length": 20
          },
          {
            "start": 5899,
            "length": 20
          },
          {
            "start": 7073,
            "length": 20
          },
          {
            "start": 7255,
            "length": 20
          },
          {
            "start": 7372,
            "length": 20
          },
          {
            "start": 7500,
            "length": 20
          },
          {
            "start": 7628,
            "length": 20
          },
          {
            "start": 8333,
            "length": 20
          },
          {
            "start": 8459,
            "length": 20
          },
          {
            "start": 8627,
            "length": 20
          },
          {
            "start": 10072,
            "length": 20
          },
          {
            "start": 10198,
            "length": 20
          }
        ]
      }
    }
  },
  "methodIdentifiers": {
    "acceptedToken()": "451c3d80",
    "activeProjects(bytes)": "b818170c",
    "addProject(bytes)": "1469df34",
    "blacklist(address)": "f9f92be4",
    "fundFeature(bytes,bytes,uint256)": "95ef6a66",
    "fundingRevocable()": "82a13ec4",
    "getFeatureDetails(bytes,bytes)": "b5895e62",
    "getProjectDetails(bytes)": "0f3326a7",
    "getProjectURLs()": "33df4804",
    "initialize(address,bool)": "400ada75",
    "owner()": "8da5cb5b",
    "paused()": "5c975abb",
    "projectActive(bytes)": "af1b49f5",
    "projectURLs(uint256)": "d701007f",
    "projects(bytes)": "276c571c",
    "proxiableUUID()": "52d1902d",
    "renounceOwnership()": "715018a6",
    "requestFeatureFunding(bytes,bytes,bytes,uint256,uint256)": "715ef953",
    "startProject(bytes,bytes)": "645ced52",
    "stopFundingFeature(bytes,bytes)": "ef2dc01a",
    "streamCreator()": "ef4a57d1",
    "transferOwnership(address)": "f2fde38b",
    "updateFeatureStatus(bytes,bytes,uint8)": "3e79fb1c",
    "upgradeTo(address)": "3659cfe6",
    "upgradeToAndCall(address,bytes)": "4f1ef286"
  },
  "id": 101
}