{
  "abi": [
    {
      "inputs": [
        {
          "internalType": "address",
          "name": "initialAdmin",
          "type": "address"
        },
        {
          "internalType": "contract ISablierV2Comptroller",
          "name": "initialComptroller",
          "type": "address"
        },
        {
          "internalType": "contract ISablierV2NFTDescriptor",
          "name": "initialNFTDescriptor",
          "type": "address"
        }
      ],
      "stateMutability": "nonpayable",
      "type": "constructor"
    },
    {
      "inputs": [
        {
          "internalType": "address",
          "name": "admin",
          "type": "address"
        },
        {
          "internalType": "address",
          "name": "caller",
          "type": "address"
        }
      ],
      "name": "CallerNotAdmin",
      "type": "error"
    },
    {
      "inputs": [],
      "name": "DelegateCall",
      "type": "error"
    },
    {
      "inputs": [
        {
          "internalType": "uint256",
          "name": "x",
          "type": "uint256"
        },
        {
          "internalType": "uint256",
          "name": "y",
          "type": "uint256"
        }
      ],
      "name": "PRBMath_MulDiv18_Overflow",
      "type": "error"
    },
    {
      "inputs": [
        {
          "internalType": "uint256",
          "name": "x",
          "type": "uint256"
        },
        {
          "internalType": "uint256",
          "name": "y",
          "type": "uint256"
        },
        {
          "internalType": "uint256",
          "name": "denominator",
          "type": "uint256"
        }
      ],
      "name": "PRBMath_MulDiv_Overflow",
      "type": "error"
    },
    {
      "inputs": [
        {
          "internalType": "contract IERC20",
          "name": "asset",
          "type": "address"
        }
      ],
      "name": "SablierV2Base_NoProtocolRevenues",
      "type": "error"
    },
    {
      "inputs": [
        {
          "internalType": "uint40",
          "name": "cliffTime",
          "type": "uint40"
        },
        {
          "internalType": "uint40",
          "name": "endTime",
          "type": "uint40"
        }
      ],
      "name": "SablierV2LockupLinear_CliffTimeNotLessThanEndTime",
      "type": "error"
    },
    {
      "inputs": [
        {
          "internalType": "uint40",
          "name": "startTime",
          "type": "uint40"
        },
        {
          "internalType": "uint40",
          "name": "cliffTime",
          "type": "uint40"
        }
      ],
      "name": "SablierV2LockupLinear_StartTimeGreaterThanCliffTime",
      "type": "error"
    },
    {
      "inputs": [
        {
          "internalType": "UD60x18",
          "name": "brokerFee",
          "type": "uint256"
        },
        {
          "internalType": "UD60x18",
          "name": "maxFee",
          "type": "uint256"
        }
      ],
      "name": "SablierV2Lockup_BrokerFeeTooHigh",
      "type": "error"
    },
    {
      "inputs": [],
      "name": "SablierV2Lockup_DepositAmountZero",
      "type": "error"
    },
    {
      "inputs": [
        {
          "internalType": "uint40",
          "name": "currentTime",
          "type": "uint40"
        },
        {
          "internalType": "uint40",
          "name": "endTime",
          "type": "uint40"
        }
      ],
      "name": "SablierV2Lockup_EndTimeNotInTheFuture",
      "type": "error"
    },
    {
      "inputs": [
        {
          "internalType": "uint256",
          "name": "streamId",
          "type": "uint256"
        },
        {
          "internalType": "address",
          "name": "sender",
          "type": "address"
        },
        {
          "internalType": "address",
          "name": "to",
          "type": "address"
        }
      ],
      "name": "SablierV2Lockup_InvalidSenderWithdrawal",
      "type": "error"
    },
    {
      "inputs": [
        {
          "internalType": "uint256",
          "name": "streamId",
          "type": "uint256"
        }
      ],
      "name": "SablierV2Lockup_Null",
      "type": "error"
    },
    {
      "inputs": [
        {
          "internalType": "uint256",
          "name": "streamId",
          "type": "uint256"
        },
        {
          "internalType": "uint128",
          "name": "amount",
          "type": "uint128"
        },
        {
          "internalType": "uint128",
          "name": "withdrawableAmount",
          "type": "uint128"
        }
      ],
      "name": "SablierV2Lockup_Overdraw",
      "type": "error"
    },
    {
      "inputs": [
        {
          "internalType": "UD60x18",
          "name": "protocolFee",
          "type": "uint256"
        },
        {
          "internalType": "UD60x18",
          "name": "maxFee",
          "type": "uint256"
        }
      ],
      "name": "SablierV2Lockup_ProtocolFeeTooHigh",
      "type": "error"
    },
    {
      "inputs": [
        {
          "internalType": "uint256",
          "name": "streamId",
          "type": "uint256"
        }
      ],
      "name": "SablierV2Lockup_StreamCanceled",
      "type": "error"
    },
    {
      "inputs": [
        {
          "internalType": "uint256",
          "name": "streamId",
          "type": "uint256"
        }
      ],
      "name": "SablierV2Lockup_StreamDepleted",
      "type": "error"
    },
    {
      "inputs": [
        {
          "internalType": "uint256",
          "name": "streamId",
          "type": "uint256"
        }
      ],
      "name": "SablierV2Lockup_StreamNotCancelable",
      "type": "error"
    },
    {
      "inputs": [
        {
          "internalType": "uint256",
          "name": "streamId",
          "type": "uint256"
        }
      ],
      "name": "SablierV2Lockup_StreamNotDepleted",
      "type": "error"
    },
    {
      "inputs": [
        {
          "internalType": "uint256",
          "name": "streamId",
          "type": "uint256"
        }
      ],
      "name": "SablierV2Lockup_StreamSettled",
      "type": "error"
    },
    {
      "inputs": [
        {
          "internalType": "uint256",
          "name": "streamId",
          "type": "uint256"
        },
        {
          "internalType": "address",
          "name": "caller",
          "type": "address"
        }
      ],
      "name": "SablierV2Lockup_Unauthorized",
      "type": "error"
    },
    {
      "inputs": [
        {
          "internalType": "uint256",
          "name": "streamId",
          "type": "uint256"
        }
      ],
      "name": "SablierV2Lockup_WithdrawAmountZero",
      "type": "error"
    },
    {
      "inputs": [
        {
          "internalType": "uint256",
          "name": "streamIdsCount",
          "type": "uint256"
        },
        {
          "internalType": "uint256",
          "name": "amountsCount",
          "type": "uint256"
        }
      ],
      "name": "SablierV2Lockup_WithdrawArrayCountsNotEqual",
      "type": "error"
    },
    {
      "inputs": [],
      "name": "SablierV2Lockup_WithdrawToZeroAddress",
      "type": "error"
    },
    {
      "anonymous": false,
      "inputs": [
        {
          "indexed": true,
          "internalType": "address",
          "name": "owner",
          "type": "address"
        },
        {
          "indexed": true,
          "internalType": "address",
          "name": "approved",
          "type": "address"
        },
        {
          "indexed": true,
          "internalType": "uint256",
          "name": "tokenId",
          "type": "uint256"
        }
      ],
      "name": "Approval",
      "type": "event"
    },
    {
      "anonymous": false,
      "inputs": [
        {
          "indexed": true,
          "internalType": "address",
          "name": "owner",
          "type": "address"
        },
        {
          "indexed": true,
          "internalType": "address",
          "name": "operator",
          "type": "address"
        },
        {
          "indexed": false,
          "internalType": "bool",
          "name": "approved",
          "type": "bool"
        }
      ],
      "name": "ApprovalForAll",
      "type": "event"
    },
    {
      "anonymous": false,
      "inputs": [
        {
          "indexed": false,
          "internalType": "uint256",
          "name": "_fromTokenId",
          "type": "uint256"
        },
        {
          "indexed": false,
          "internalType": "uint256",
          "name": "_toTokenId",
          "type": "uint256"
        }
      ],
      "name": "BatchMetadataUpdate",
      "type": "event"
    },
    {
      "anonymous": false,
      "inputs": [
        {
          "indexed": true,
          "internalType": "uint256",
          "name": "streamId",
          "type": "uint256"
        },
        {
          "indexed": true,
          "internalType": "address",
          "name": "sender",
          "type": "address"
        },
        {
          "indexed": true,
          "internalType": "address",
          "name": "recipient",
          "type": "address"
        },
        {
          "indexed": false,
          "internalType": "uint128",
          "name": "senderAmount",
          "type": "uint128"
        },
        {
          "indexed": false,
          "internalType": "uint128",
          "name": "recipientAmount",
          "type": "uint128"
        }
      ],
      "name": "CancelLockupStream",
      "type": "event"
    },
    {
      "anonymous": false,
      "inputs": [
        {
          "indexed": true,
          "internalType": "address",
          "name": "admin",
          "type": "address"
        },
        {
          "indexed": true,
          "internalType": "contract IERC20",
          "name": "asset",
          "type": "address"
        },
        {
          "indexed": false,
          "internalType": "uint128",
          "name": "protocolRevenues",
          "type": "uint128"
        }
      ],
      "name": "ClaimProtocolRevenues",
      "type": "event"
    },
    {
      "anonymous": false,
      "inputs": [
        {
          "indexed": false,
          "internalType": "uint256",
          "name": "streamId",
          "type": "uint256"
        },
        {
          "indexed": false,
          "internalType": "address",
          "name": "funder",
          "type": "address"
        },
        {
          "indexed": true,
          "internalType": "address",
          "name": "sender",
          "type": "address"
        },
        {
          "indexed": true,
          "internalType": "address",
          "name": "recipient",
          "type": "address"
        },
        {
          "components": [
            {
              "internalType": "uint128",
              "name": "deposit",
              "type": "uint128"
            },
            {
              "internalType": "uint128",
              "name": "protocolFee",
              "type": "uint128"
            },
            {
              "internalType": "uint128",
              "name": "brokerFee",
              "type": "uint128"
            }
          ],
          "indexed": false,
          "internalType": "struct Lockup.CreateAmounts",
          "name": "amounts",
          "type": "tuple"
        },
        {
          "indexed": true,
          "internalType": "contract IERC20",
          "name": "asset",
          "type": "address"
        },
        {
          "indexed": false,
          "internalType": "bool",
          "name": "cancelable",
          "type": "bool"
        },
        {
          "components": [
            {
              "internalType": "uint40",
              "name": "start",
              "type": "uint40"
            },
            {
              "internalType": "uint40",
              "name": "cliff",
              "type": "uint40"
            },
            {
              "internalType": "uint40",
              "name": "end",
              "type": "uint40"
            }
          ],
          "indexed": false,
          "internalType": "struct LockupLinear.Range",
          "name": "range",
          "type": "tuple"
        },
        {
          "indexed": false,
          "internalType": "address",
          "name": "broker",
          "type": "address"
        }
      ],
      "name": "CreateLockupLinearStream",
      "type": "event"
    },
    {
      "anonymous": false,
      "inputs": [
        {
          "indexed": false,
          "internalType": "uint256",
          "name": "_tokenId",
          "type": "uint256"
        }
      ],
      "name": "MetadataUpdate",
      "type": "event"
    },
    {
      "anonymous": false,
      "inputs": [
        {
          "indexed": true,
          "internalType": "uint256",
          "name": "streamId",
          "type": "uint256"
        }
      ],
      "name": "RenounceLockupStream",
      "type": "event"
    },
    {
      "anonymous": false,
      "inputs": [
        {
          "indexed": true,
          "internalType": "address",
          "name": "admin",
          "type": "address"
        },
        {
          "indexed": false,
          "internalType": "contract ISablierV2Comptroller",
          "name": "oldComptroller",
          "type": "address"
        },
        {
          "indexed": false,
          "internalType": "contract ISablierV2Comptroller",
          "name": "newComptroller",
          "type": "address"
        }
      ],
      "name": "SetComptroller",
      "type": "event"
    },
    {
      "anonymous": false,
      "inputs": [
        {
          "indexed": true,
          "internalType": "address",
          "name": "admin",
          "type": "address"
        },
        {
          "indexed": false,
          "internalType": "contract ISablierV2NFTDescriptor",
          "name": "oldNFTDescriptor",
          "type": "address"
        },
        {
          "indexed": false,
          "internalType": "contract ISablierV2NFTDescriptor",
          "name": "newNFTDescriptor",
          "type": "address"
        }
      ],
      "name": "SetNFTDescriptor",
      "type": "event"
    },
    {
      "anonymous": false,
      "inputs": [
        {
          "indexed": true,
          "internalType": "address",
          "name": "from",
          "type": "address"
        },
        {
          "indexed": true,
          "internalType": "address",
          "name": "to",
          "type": "address"
        },
        {
          "indexed": true,
          "internalType": "uint256",
          "name": "tokenId",
          "type": "uint256"
        }
      ],
      "name": "Transfer",
      "type": "event"
    },
    {
      "anonymous": false,
      "inputs": [
        {
          "indexed": true,
          "internalType": "address",
          "name": "oldAdmin",
          "type": "address"
        },
        {
          "indexed": true,
          "internalType": "address",
          "name": "newAdmin",
          "type": "address"
        }
      ],
      "name": "TransferAdmin",
      "type": "event"
    },
    {
      "anonymous": false,
      "inputs": [
        {
          "indexed": true,
          "internalType": "uint256",
          "name": "streamId",
          "type": "uint256"
        },
        {
          "indexed": true,
          "internalType": "address",
          "name": "to",
          "type": "address"
        },
        {
          "indexed": false,
          "internalType": "uint128",
          "name": "amount",
          "type": "uint128"
        }
      ],
      "name": "WithdrawFromLockupStream",
      "type": "event"
    },
    {
      "inputs": [],
      "name": "MAX_FEE",
      "outputs": [
        {
          "internalType": "UD60x18",
          "name": "",
          "type": "uint256"
        }
      ],
      "stateMutability": "view",
      "type": "function"
    },
    {
      "inputs": [],
      "name": "admin",
      "outputs": [
        {
          "internalType": "address",
          "name": "",
          "type": "address"
        }
      ],
      "stateMutability": "view",
      "type": "function"
    },
    {
      "inputs": [
        {
          "internalType": "address",
          "name": "to",
          "type": "address"
        },
        {
          "internalType": "uint256",
          "name": "tokenId",
          "type": "uint256"
        }
      ],
      "name": "approve",
      "outputs": [],
      "stateMutability": "nonpayable",
      "type": "function"
    },
    {
      "inputs": [
        {
          "internalType": "address",
          "name": "owner",
          "type": "address"
        }
      ],
      "name": "balanceOf",
      "outputs": [
        {
          "internalType": "uint256",
          "name": "",
          "type": "uint256"
        }
      ],
      "stateMutability": "view",
      "type": "function"
    },
    {
      "inputs": [
        {
          "internalType": "uint256",
          "name": "streamId",
          "type": "uint256"
        }
      ],
      "name": "burn",
      "outputs": [],
      "stateMutability": "nonpayable",
      "type": "function"
    },
    {
      "inputs": [
        {
          "internalType": "uint256",
          "name": "streamId",
          "type": "uint256"
        }
      ],
      "name": "cancel",
      "outputs": [],
      "stateMutability": "nonpayable",
      "type": "function"
    },
    {
      "inputs": [
        {
          "internalType": "uint256[]",
          "name": "streamIds",
          "type": "uint256[]"
        }
      ],
      "name": "cancelMultiple",
      "outputs": [],
      "stateMutability": "nonpayable",
      "type": "function"
    },
    {
      "inputs": [
        {
          "internalType": "contract IERC20",
          "name": "asset",
          "type": "address"
        }
      ],
      "name": "claimProtocolRevenues",
      "outputs": [],
      "stateMutability": "nonpayable",
      "type": "function"
    },
    {
      "inputs": [],
      "name": "comptroller",
      "outputs": [
        {
          "internalType": "contract ISablierV2Comptroller",
          "name": "",
          "type": "address"
        }
      ],
      "stateMutability": "view",
      "type": "function"
    },
    {
      "inputs": [
        {
          "components": [
            {
              "internalType": "address",
              "name": "sender",
              "type": "address"
            },
            {
              "internalType": "address",
              "name": "recipient",
              "type": "address"
            },
            {
              "internalType": "uint128",
              "name": "totalAmount",
              "type": "uint128"
            },
            {
              "internalType": "contract IERC20",
              "name": "asset",
              "type": "address"
            },
            {
              "internalType": "bool",
              "name": "cancelable",
              "type": "bool"
            },
            {
              "components": [
                {
                  "internalType": "uint40",
                  "name": "cliff",
                  "type": "uint40"
                },
                {
                  "internalType": "uint40",
                  "name": "total",
                  "type": "uint40"
                }
              ],
              "internalType": "struct LockupLinear.Durations",
              "name": "durations",
              "type": "tuple"
            },
            {
              "components": [
                {
                  "internalType": "address",
                  "name": "account",
                  "type": "address"
                },
                {
                  "internalType": "UD60x18",
                  "name": "fee",
                  "type": "uint256"
                }
              ],
              "internalType": "struct Broker",
              "name": "broker",
              "type": "tuple"
            }
          ],
          "internalType": "struct LockupLinear.CreateWithDurations",
          "name": "params",
          "type": "tuple"
        }
      ],
      "name": "createWithDurations",
      "outputs": [
        {
          "internalType": "uint256",
          "name": "streamId",
          "type": "uint256"
        }
      ],
      "stateMutability": "nonpayable",
      "type": "function"
    },
    {
      "inputs": [
        {
          "components": [
            {
              "internalType": "address",
              "name": "sender",
              "type": "address"
            },
            {
              "internalType": "address",
              "name": "recipient",
              "type": "address"
            },
            {
              "internalType": "uint128",
              "name": "totalAmount",
              "type": "uint128"
            },
            {
              "internalType": "contract IERC20",
              "name": "asset",
              "type": "address"
            },
            {
              "internalType": "bool",
              "name": "cancelable",
              "type": "bool"
            },
            {
              "components": [
                {
                  "internalType": "uint40",
                  "name": "start",
                  "type": "uint40"
                },
                {
                  "internalType": "uint40",
                  "name": "cliff",
                  "type": "uint40"
                },
                {
                  "internalType": "uint40",
                  "name": "end",
                  "type": "uint40"
                }
              ],
              "internalType": "struct LockupLinear.Range",
              "name": "range",
              "type": "tuple"
            },
            {
              "components": [
                {
                  "internalType": "address",
                  "name": "account",
                  "type": "address"
                },
                {
                  "internalType": "UD60x18",
                  "name": "fee",
                  "type": "uint256"
                }
              ],
              "internalType": "struct Broker",
              "name": "broker",
              "type": "tuple"
            }
          ],
          "internalType": "struct LockupLinear.CreateWithRange",
          "name": "params",
          "type": "tuple"
        }
      ],
      "name": "createWithRange",
      "outputs": [
        {
          "internalType": "uint256",
          "name": "streamId",
          "type": "uint256"
        }
      ],
      "stateMutability": "nonpayable",
      "type": "function"
    },
    {
      "inputs": [
        {
          "internalType": "uint256",
          "name": "tokenId",
          "type": "uint256"
        }
      ],
      "name": "getApproved",
      "outputs": [
        {
          "internalType": "address",
          "name": "",
          "type": "address"
        }
      ],
      "stateMutability": "view",
      "type": "function"
    },
    {
      "inputs": [
        {
          "internalType": "uint256",
          "name": "streamId",
          "type": "uint256"
        }
      ],
      "name": "getAsset",
      "outputs": [
        {
          "internalType": "contract IERC20",
          "name": "asset",
          "type": "address"
        }
      ],
      "stateMutability": "view",
      "type": "function"
    },
    {
      "inputs": [
        {
          "internalType": "uint256",
          "name": "streamId",
          "type": "uint256"
        }
      ],
      "name": "getCliffTime",
      "outputs": [
        {
          "internalType": "uint40",
          "name": "cliffTime",
          "type": "uint40"
        }
      ],
      "stateMutability": "view",
      "type": "function"
    },
    {
      "inputs": [
        {
          "internalType": "uint256",
          "name": "streamId",
          "type": "uint256"
        }
      ],
      "name": "getDepositedAmount",
      "outputs": [
        {
          "internalType": "uint128",
          "name": "depositedAmount",
          "type": "uint128"
        }
      ],
      "stateMutability": "view",
      "type": "function"
    },
    {
      "inputs": [
        {
          "internalType": "uint256",
          "name": "streamId",
          "type": "uint256"
        }
      ],
      "name": "getEndTime",
      "outputs": [
        {
          "internalType": "uint40",
          "name": "endTime",
          "type": "uint40"
        }
      ],
      "stateMutability": "view",
      "type": "function"
    },
    {
      "inputs": [
        {
          "internalType": "uint256",
          "name": "streamId",
          "type": "uint256"
        }
      ],
      "name": "getRange",
      "outputs": [
        {
          "components": [
            {
              "internalType": "uint40",
              "name": "start",
              "type": "uint40"
            },
            {
              "internalType": "uint40",
              "name": "cliff",
              "type": "uint40"
            },
            {
              "internalType": "uint40",
              "name": "end",
              "type": "uint40"
            }
          ],
          "internalType": "struct LockupLinear.Range",
          "name": "range",
          "type": "tuple"
        }
      ],
      "stateMutability": "view",
      "type": "function"
    },
    {
      "inputs": [
        {
          "internalType": "uint256",
          "name": "streamId",
          "type": "uint256"
        }
      ],
      "name": "getRecipient",
      "outputs": [
        {
          "internalType": "address",
          "name": "recipient",
          "type": "address"
        }
      ],
      "stateMutability": "view",
      "type": "function"
    },
    {
      "inputs": [
        {
          "internalType": "uint256",
          "name": "streamId",
          "type": "uint256"
        }
      ],
      "name": "getRefundedAmount",
      "outputs": [
        {
          "internalType": "uint128",
          "name": "refundedAmount",
          "type": "uint128"
        }
      ],
      "stateMutability": "view",
      "type": "function"
    },
    {
      "inputs": [
        {
          "internalType": "uint256",
          "name": "streamId",
          "type": "uint256"
        }
      ],
      "name": "getSender",
      "outputs": [
        {
          "internalType": "address",
          "name": "sender",
          "type": "address"
        }
      ],
      "stateMutability": "view",
      "type": "function"
    },
    {
      "inputs": [
        {
          "internalType": "uint256",
          "name": "streamId",
          "type": "uint256"
        }
      ],
      "name": "getStartTime",
      "outputs": [
        {
          "internalType": "uint40",
          "name": "startTime",
          "type": "uint40"
        }
      ],
      "stateMutability": "view",
      "type": "function"
    },
    {
      "inputs": [
        {
          "internalType": "uint256",
          "name": "streamId",
          "type": "uint256"
        }
      ],
      "name": "getStream",
      "outputs": [
        {
          "components": [
            {
              "internalType": "address",
              "name": "sender",
              "type": "address"
            },
            {
              "internalType": "uint40",
              "name": "startTime",
              "type": "uint40"
            },
            {
              "internalType": "uint40",
              "name": "cliffTime",
              "type": "uint40"
            },
            {
              "internalType": "bool",
              "name": "isCancelable",
              "type": "bool"
            },
            {
              "internalType": "bool",
              "name": "wasCanceled",
              "type": "bool"
            },
            {
              "internalType": "contract IERC20",
              "name": "asset",
              "type": "address"
            },
            {
              "internalType": "uint40",
              "name": "endTime",
              "type": "uint40"
            },
            {
              "internalType": "bool",
              "name": "isDepleted",
              "type": "bool"
            },
            {
              "internalType": "bool",
              "name": "isStream",
              "type": "bool"
            },
            {
              "components": [
                {
                  "internalType": "uint128",
                  "name": "deposited",
                  "type": "uint128"
                },
                {
                  "internalType": "uint128",
                  "name": "withdrawn",
                  "type": "uint128"
                },
                {
                  "internalType": "uint128",
                  "name": "refunded",
                  "type": "uint128"
                }
              ],
              "internalType": "struct Lockup.Amounts",
              "name": "amounts",
              "type": "tuple"
            }
          ],
          "internalType": "struct LockupLinear.Stream",
          "name": "stream",
          "type": "tuple"
        }
      ],
      "stateMutability": "view",
      "type": "function"
    },
    {
      "inputs": [
        {
          "internalType": "uint256",
          "name": "streamId",
          "type": "uint256"
        }
      ],
      "name": "getWithdrawnAmount",
      "outputs": [
        {
          "internalType": "uint128",
          "name": "withdrawnAmount",
          "type": "uint128"
        }
      ],
      "stateMutability": "view",
      "type": "function"
    },
    {
      "inputs": [
        {
          "internalType": "address",
          "name": "owner",
          "type": "address"
        },
        {
          "internalType": "address",
          "name": "operator",
          "type": "address"
        }
      ],
      "name": "isApprovedForAll",
      "outputs": [
        {
          "internalType": "bool",
          "name": "",
          "type": "bool"
        }
      ],
      "stateMutability": "view",
      "type": "function"
    },
    {
      "inputs": [
        {
          "internalType": "uint256",
          "name": "streamId",
          "type": "uint256"
        }
      ],
      "name": "isCancelable",
      "outputs": [
        {
          "internalType": "bool",
          "name": "result",
          "type": "bool"
        }
      ],
      "stateMutability": "view",
      "type": "function"
    },
    {
      "inputs": [
        {
          "internalType": "uint256",
          "name": "streamId",
          "type": "uint256"
        }
      ],
      "name": "isCold",
      "outputs": [
        {
          "internalType": "bool",
          "name": "result",
          "type": "bool"
        }
      ],
      "stateMutability": "view",
      "type": "function"
    },
    {
      "inputs": [
        {
          "internalType": "uint256",
          "name": "streamId",
          "type": "uint256"
        }
      ],
      "name": "isDepleted",
      "outputs": [
        {
          "internalType": "bool",
          "name": "result",
          "type": "bool"
        }
      ],
      "stateMutability": "view",
      "type": "function"
    },
    {
      "inputs": [
        {
          "internalType": "uint256",
          "name": "streamId",
          "type": "uint256"
        }
      ],
      "name": "isStream",
      "outputs": [
        {
          "internalType": "bool",
          "name": "result",
          "type": "bool"
        }
      ],
      "stateMutability": "view",
      "type": "function"
    },
    {
      "inputs": [
        {
          "internalType": "uint256",
          "name": "streamId",
          "type": "uint256"
        }
      ],
      "name": "isWarm",
      "outputs": [
        {
          "internalType": "bool",
          "name": "result",
          "type": "bool"
        }
      ],
      "stateMutability": "view",
      "type": "function"
    },
    {
      "inputs": [],
      "name": "name",
      "outputs": [
        {
          "internalType": "string",
          "name": "",
          "type": "string"
        }
      ],
      "stateMutability": "view",
      "type": "function"
    },
    {
      "inputs": [],
      "name": "nextStreamId",
      "outputs": [
        {
          "internalType": "uint256",
          "name": "",
          "type": "uint256"
        }
      ],
      "stateMutability": "view",
      "type": "function"
    },
    {
      "inputs": [
        {
          "internalType": "uint256",
          "name": "tokenId",
          "type": "uint256"
        }
      ],
      "name": "ownerOf",
      "outputs": [
        {
          "internalType": "address",
          "name": "",
          "type": "address"
        }
      ],
      "stateMutability": "view",
      "type": "function"
    },
    {
      "inputs": [
        {
          "internalType": "contract IERC20",
          "name": "asset",
          "type": "address"
        }
      ],
      "name": "protocolRevenues",
      "outputs": [
        {
          "internalType": "uint128",
          "name": "revenues",
          "type": "uint128"
        }
      ],
      "stateMutability": "view",
      "type": "function"
    },
    {
      "inputs": [
        {
          "internalType": "uint256",
          "name": "streamId",
          "type": "uint256"
        }
      ],
      "name": "refundableAmountOf",
      "outputs": [
        {
          "internalType": "uint128",
          "name": "refundableAmount",
          "type": "uint128"
        }
      ],
      "stateMutability": "view",
      "type": "function"
    },
    {
      "inputs": [
        {
          "internalType": "uint256",
          "name": "streamId",
          "type": "uint256"
        }
      ],
      "name": "renounce",
      "outputs": [],
      "stateMutability": "nonpayable",
      "type": "function"
    },
    {
      "inputs": [
        {
          "internalType": "address",
          "name": "from",
          "type": "address"
        },
        {
          "internalType": "address",
          "name": "to",
          "type": "address"
        },
        {
          "internalType": "uint256",
          "name": "tokenId",
          "type": "uint256"
        }
      ],
      "name": "safeTransferFrom",
      "outputs": [],
      "stateMutability": "nonpayable",
      "type": "function"
    },
    {
      "inputs": [
        {
          "internalType": "address",
          "name": "from",
          "type": "address"
        },
        {
          "internalType": "address",
          "name": "to",
          "type": "address"
        },
        {
          "internalType": "uint256",
          "name": "tokenId",
          "type": "uint256"
        },
        {
          "internalType": "bytes",
          "name": "data",
          "type": "bytes"
        }
      ],
      "name": "safeTransferFrom",
      "outputs": [],
      "stateMutability": "nonpayable",
      "type": "function"
    },
    {
      "inputs": [
        {
          "internalType": "address",
          "name": "operator",
          "type": "address"
        },
        {
          "internalType": "bool",
          "name": "approved",
          "type": "bool"
        }
      ],
      "name": "setApprovalForAll",
      "outputs": [],
      "stateMutability": "nonpayable",
      "type": "function"
    },
    {
      "inputs": [
        {
          "internalType": "contract ISablierV2Comptroller",
          "name": "newComptroller",
          "type": "address"
        }
      ],
      "name": "setComptroller",
      "outputs": [],
      "stateMutability": "nonpayable",
      "type": "function"
    },
    {
      "inputs": [
        {
          "internalType": "contract ISablierV2NFTDescriptor",
          "name": "newNFTDescriptor",
          "type": "address"
        }
      ],
      "name": "setNFTDescriptor",
      "outputs": [],
      "stateMutability": "nonpayable",
      "type": "function"
    },
    {
      "inputs": [
        {
          "internalType": "uint256",
          "name": "streamId",
          "type": "uint256"
        }
      ],
      "name": "statusOf",
      "outputs": [
        {
          "internalType": "enum Lockup.Status",
          "name": "status",
          "type": "uint8"
        }
      ],
      "stateMutability": "view",
      "type": "function"
    },
    {
      "inputs": [
        {
          "internalType": "uint256",
          "name": "streamId",
          "type": "uint256"
        }
      ],
      "name": "streamedAmountOf",
      "outputs": [
        {
          "internalType": "uint128",
          "name": "streamedAmount",
          "type": "uint128"
        }
      ],
      "stateMutability": "view",
      "type": "function"
    },
    {
      "inputs": [
        {
          "internalType": "bytes4",
          "name": "interfaceId",
          "type": "bytes4"
        }
      ],
      "name": "supportsInterface",
      "outputs": [
        {
          "internalType": "bool",
          "name": "",
          "type": "bool"
        }
      ],
      "stateMutability": "view",
      "type": "function"
    },
    {
      "inputs": [],
      "name": "symbol",
      "outputs": [
        {
          "internalType": "string",
          "name": "",
          "type": "string"
        }
      ],
      "stateMutability": "view",
      "type": "function"
    },
    {
      "inputs": [
        {
          "internalType": "uint256",
          "name": "streamId",
          "type": "uint256"
        }
      ],
      "name": "tokenURI",
      "outputs": [
        {
          "internalType": "string",
          "name": "uri",
          "type": "string"
        }
      ],
      "stateMutability": "view",
      "type": "function"
    },
    {
      "inputs": [
        {
          "internalType": "address",
          "name": "newAdmin",
          "type": "address"
        }
      ],
      "name": "transferAdmin",
      "outputs": [],
      "stateMutability": "nonpayable",
      "type": "function"
    },
    {
      "inputs": [
        {
          "internalType": "address",
          "name": "from",
          "type": "address"
        },
        {
          "internalType": "address",
          "name": "to",
          "type": "address"
        },
        {
          "internalType": "uint256",
          "name": "tokenId",
          "type": "uint256"
        }
      ],
      "name": "transferFrom",
      "outputs": [],
      "stateMutability": "nonpayable",
      "type": "function"
    },
    {
      "inputs": [
        {
          "internalType": "uint256",
          "name": "streamId",
          "type": "uint256"
        }
      ],
      "name": "wasCanceled",
      "outputs": [
        {
          "internalType": "bool",
          "name": "result",
          "type": "bool"
        }
      ],
      "stateMutability": "view",
      "type": "function"
    },
    {
      "inputs": [
        {
          "internalType": "uint256",
          "name": "streamId",
          "type": "uint256"
        },
        {
          "internalType": "address",
          "name": "to",
          "type": "address"
        },
        {
          "internalType": "uint128",
          "name": "amount",
          "type": "uint128"
        }
      ],
      "name": "withdraw",
      "outputs": [],
      "stateMutability": "nonpayable",
      "type": "function"
    },
    {
      "inputs": [
        {
          "internalType": "uint256",
          "name": "streamId",
          "type": "uint256"
        },
        {
          "internalType": "address",
          "name": "to",
          "type": "address"
        }
      ],
      "name": "withdrawMax",
      "outputs": [],
      "stateMutability": "nonpayable",
      "type": "function"
    },
    {
      "inputs": [
        {
          "internalType": "uint256",
          "name": "streamId",
          "type": "uint256"
        },
        {
          "internalType": "address",
          "name": "newRecipient",
          "type": "address"
        }
      ],
      "name": "withdrawMaxAndTransfer",
      "outputs": [],
      "stateMutability": "nonpayable",
      "type": "function"
    },
    {
      "inputs": [
        {
          "internalType": "uint256[]",
          "name": "streamIds",
          "type": "uint256[]"
        },
        {
          "internalType": "address",
          "name": "to",
          "type": "address"
        },
        {
          "internalType": "uint128[]",
          "name": "amounts",
          "type": "uint128[]"
        }
      ],
      "name": "withdrawMultiple",
      "outputs": [],
      "stateMutability": "nonpayable",
      "type": "function"
    },
    {
      "inputs": [
        {
          "internalType": "uint256",
          "name": "streamId",
          "type": "uint256"
        }
      ],
      "name": "withdrawableAmountOf",
      "outputs": [
        {
          "internalType": "uint128",
          "name": "withdrawableAmount",
          "type": "uint128"
        }
      ],
      "stateMutability": "view",
      "type": "function"
    }
  ],
  "bytecode": {
    "object": "0x60a06040523480156200001157600080fd5b5060405162005a9338038062005a93833981016040819052620000349162000169565b604080518082018252601c81527f5361626c696572205632204c6f636b7570204c696e656172204e46540000000060208083019190915282518084018452601181527029a0a116ab1916a627a1a5aaa816a624a760791b9181019190915230608052600080546001600160a01b03199081166001600160a01b03898116918217845560018054909316908916179091559351879487948794909390928792879290917fbdd36143ee09de60bdefca70680e0f71189b2ed7acee364b53917ad433fdaf80908290a350600390506200010c838262000262565b5060046200011b828262000262565b5050600a80546001600160a01b0319166001600160a01b03939093169290921790915550506001600955506200032e92505050565b6001600160a01b03811681146200016657600080fd5b50565b6000806000606084860312156200017f57600080fd5b83516200018c8162000150565b60208501519093506200019f8162000150565b6040850151909250620001b28162000150565b809150509250925092565b634e487b7160e01b600052604160045260246000fd5b600181811c90821680620001e857607f821691505b6020821081036200020957634e487b7160e01b600052602260045260246000fd5b50919050565b601f8211156200025d57600081815260208120601f850160051c81016020861015620002385750805b601f850160051c820191505b81811015620002595782815560010162000244565b5050505b505050565b81516001600160401b038111156200027e576200027e620001bd565b62000296816200028f8454620001d3565b846200020f565b602080601f831160018114620002ce5760008415620002b55750858301515b600019600386901b1c1916600185901b17855562000259565b600085815260208120601f198616915b82811015620002ff57888601518255948401946001909101908401620002de565b50858210156200031e5787850151600019600388901b60f8161c191681555b5050505050600190811b01905550565b6080516157496200034a60003960006128b401526157496000f3fe608060405234801561001057600080fd5b50600436106103575760003560e01c8063894e9a0d116101c8578063bc063e1a11610104578063d975dfed116100a2578063eac8f5b81161007c578063eac8f5b8146107e5578063f590c176146107f8578063f851a4401461080b578063fdd46d601461081e57600080fd5b8063d975dfed14610783578063e985e9c514610796578063ea5ead19146107d257600080fd5b8063c87b56dd116100de578063c87b56dd1461072a578063cc364f481461073d578063d4dbd20b1461075d578063d511609f1461077057600080fd5b8063bc063e1a146106f5578063bc2be1be14610704578063c156a11d1461071757600080fd5b8063a2ffb89711610171578063ad35efd41161014b578063ad35efd414610682578063b88d4fde146106a2578063b8a3be66146106b5578063b971302a146106e257600080fd5b8063a2ffb89714610649578063a6202bf21461065c578063a80fc0711461066f57600080fd5b80639067b677116101a25780639067b6771461061b57806395d89b411461062e578063a22cb4651461063657600080fd5b8063894e9a0d146105d55780638bad38dd146105f55780638f69b9931461060857600080fd5b806342966c68116102975780636d0cee7511610240578063780a82c81161021a578063780a82c8146105735780637cad6cd11461059c5780637de6b1db146105af5780638659c270146105c257600080fd5b80636d0cee751461053a57806370a082311461054d57806375829def1461056057600080fd5b80634bc78b73116102715780634bc78b73146105015780635fe3b567146105145780636352211e1461052757600080fd5b806342966c68146104c85780634857501f146104db5780634869e12d146104ee57600080fd5b80631c1cdd4c1161030457806339a73c03116102de57806339a73c031461045d57806340e58ee51461048f578063425d30dd146104a257806342842e0e146104b557600080fd5b80631c1cdd4c1461042e5780631e99d5691461044157806323b872dd1461044a57600080fd5b8063095ea7b311610335578063095ea7b3146103c45780631400ecec146103d95780631b4103a91461040d57600080fd5b806301ffc9a71461035c57806306fdde0314610384578063081812fc14610399575b600080fd5b61036f61036a366004614bca565b610831565b60405190151581526020015b60405180910390f35b61038c610916565b60405161037b9190614c37565b6103ac6103a7366004614c4a565b6109a8565b6040516001600160a01b03909116815260200161037b565b6103d76103d2366004614c78565b6109cf565b005b6103ec6103e7366004614c4a565b610b23565b6040516fffffffffffffffffffffffffffffffff909116815260200161037b565b61042061041b366004614ca4565b610c14565b60405190815260200161037b565b61036f61043c366004614c4a565b610d4a565b61042060095481565b6103d7610458366004614cb7565b610dce565b6103ec61046b366004614cf8565b6002602052600090815260409020546fffffffffffffffffffffffffffffffff1681565b6103d761049d366004614c4a565b610e55565b61036f6104b0366004614c4a565b610fa3565b6103d76104c3366004614cb7565b611017565b6103d76104d6366004614c4a565b611032565b61036f6104e9366004614c4a565b6110d0565b6103ec6104fc366004614c4a565b611167565b61042061050f366004614d15565b6111ad565b6001546103ac906001600160a01b031681565b6103ac610535366004614c4a565b6111ce565b6103ac610548366004614c4a565b611233565b61042061055b366004614cf8565b61125b565b6103d761056e366004614cf8565b6112f5565b610586610581366004614c4a565b6113b1565b60405164ffffffffff909116815260200161037b565b6103d76105aa366004614cf8565b611426565b6103d76105bd366004614c4a565b61153c565b6103d76105d0366004614d74565b611714565b6105e86105e3366004614c4a565b611757565b60405161037b9190614db6565b6103d7610603366004614cf8565b61198e565b61036f610616366004614c4a565b611a62565b610586610629366004614c4a565b611aea565b61038c611b5d565b6103d7610644366004614ed2565b611b6c565b6103d7610657366004614f0b565b611b7b565b6103d761066a366004614cf8565b611c29565b6103ec61067d366004614c4a565b611da3565b610695610690366004614c4a565b611e09565b60405161037b9190614fbf565b6103d76106b0366004615088565b611e4f565b61036f6106c3366004614c4a565b6000908152600b6020526040902060010154600160d01b900460ff1690565b6103ac6106f0366004614c4a565b611ed7565b61042067016345785d8a000081565b610586610712366004614c4a565b611f31565b6103d7610725366004615137565b611fa1565b61038c610738366004614c4a565b6120b9565b61075061074b366004614c4a565b612154565b60405161037b919061515c565b6103ec61076b366004614c4a565b612228565b6103ec61077e366004614c4a565b61228e565b6103ec610791366004614c4a565b612308565b61036f6107a436600461518a565b6001600160a01b03918216600090815260086020908152604080832093909416825291909152205460ff1690565b6103d76107e0366004615137565b61234e565b6103ac6107f3366004614c4a565b61235c565b61036f610806366004614c4a565b6123b9565b6000546103ac906001600160a01b031681565b6103d761082c3660046151d8565b612430565b60007fffffffff0000000000000000000000000000000000000000000000000000000082167f80ac58cd0000000000000000000000000000000000000000000000000000000014806108c457507fffffffff0000000000000000000000000000000000000000000000000000000082167f5b5e139f00000000000000000000000000000000000000000000000000000000145b8061091057507f01ffc9a7000000000000000000000000000000000000000000000000000000007fffffffff000000000000000000000000000000000000000000000000000000008316145b92915050565b60606003805461092590615216565b80601f016020809104026020016040519081016040528092919081815260200182805461095190615216565b801561099e5780601f106109735761010080835404028352916020019161099e565b820191906000526020600020905b81548152906001019060200180831161098157829003601f168201915b5050505050905090565b60006109b382612642565b506000908152600760205260409020546001600160a01b031690565b60006109da826111ce565b9050806001600160a01b0316836001600160a01b031603610a685760405162461bcd60e51b815260206004820152602160248201527f4552433732313a20617070726f76616c20746f2063757272656e74206f776e6560448201527f720000000000000000000000000000000000000000000000000000000000000060648201526084015b60405180910390fd5b336001600160a01b0382161480610aa257506001600160a01b038116600090815260086020908152604080832033845290915290205460ff165b610b145760405162461bcd60e51b815260206004820152603d60248201527f4552433732313a20617070726f76652063616c6c6572206973206e6f7420746f60448201527f6b656e206f776e6572206f7220617070726f76656420666f7220616c6c0000006064820152608401610a5f565b610b1e83836126a6565b505050565b6000818152600b60205260408120600101548290600160d01b900460ff16610b605760405162b8e7e760e51b815260048101829052602401610a5f565b6000838152600b60205260409020547e01000000000000000000000000000000000000000000000000000000000000900460ff168015610bcf57506000838152600b6020526040902060010154790100000000000000000000000000000000000000000000000000900460ff16155b15610c0e57610bdd8361272c565b6000848152600b6020526040902060020154610c0b91906fffffffffffffffffffffffffffffffff16615292565b91505b50919050565b6000610c1e6128a9565b60408051606081018252600060208201819052918101919091524264ffffffffff168152610c5260c0840160a085016152d7565b81510164ffffffffff166020820152610c7160e0840160c085016152d7565b81510164ffffffffff16604080830191909152805160e08101909152610c0b9080610c9f6020870187614cf8565b6001600160a01b03168152602001856020016020810190610cc09190614cf8565b6001600160a01b03168152602001610cde60608701604088016152f2565b6fffffffffffffffffffffffffffffffff168152602001610d056080870160608801614cf8565b6001600160a01b03168152602001610d2360a087016080880161530d565b1515815260208101849052604001610d4336879003870160e08801615383565b905261290d565b6000818152600b60205260408120600101548290600160d01b900460ff16610d875760405162b8e7e760e51b815260048101829052602401610a5f565b6000610d9284612edb565b90506000816004811115610da857610da8614f90565b1480610dc6575060015b816004811115610dc457610dc4614f90565b145b949350505050565b610dd83382612ff3565b610e4a5760405162461bcd60e51b815260206004820152602d60248201527f4552433732313a2063616c6c6572206973206e6f7420746f6b656e206f776e6560448201527f72206f7220617070726f766564000000000000000000000000000000000000006064820152608401610a5f565b610b1e838383613071565b610e5d6128a9565b80610e6782610fa3565b15610ea1576040517f4a5541ef00000000000000000000000000000000000000000000000000000000815260048101839052602401610a5f565b610eaa826123b9565b15610ee4576040517ffe19f19f00000000000000000000000000000000000000000000000000000000815260048101839052602401610a5f565b6000828152600b60205260409020546001600160a01b03163314158015610f2257506000828152600560205260409020546001600160a01b03163314155b15610f62576040517f216caf0d00000000000000000000000000000000000000000000000000000000815260048101839052336024820152604401610a5f565b610f6b826132d0565b6040518181527ff8e1a15aba9398e019f0b49df1a4fde98ee17ae345cb5f6b5e2c27f5033e8ce7906020015b60405180910390a15050565b6000818152600b60205260408120600101548290600160d01b900460ff16610fe05760405162b8e7e760e51b815260048101829052602401610a5f565b50506000908152600b6020526040902060010154790100000000000000000000000000000000000000000000000000900460ff1690565b610b1e83838360405180602001604052806000815250611e4f565b61103a6128a9565b61104381610fa3565b61107c576040517f817cd63900000000000000000000000000000000000000000000000000000000815260048101829052602401610a5f565b6110858161373e565b6110c4576040517f216caf0d00000000000000000000000000000000000000000000000000000000815260048101829052336024820152604401610a5f565b6110cd816137a8565b50565b6000818152600b60205260408120600101548290600160d01b900460ff1661110d5760405162b8e7e760e51b815260048101829052602401610a5f565b600261111884612edb565b600481111561112957611129614f90565b14610c0e5750506000908152600b60205260409020547e01000000000000000000000000000000000000000000000000000000000000900460ff1690565b6000818152600b60205260408120600101548290600160d01b900460ff166111a45760405162b8e7e760e51b815260048101829052602401610a5f565b610c0b83613873565b60006111b76128a9565b6109106111c93684900384018461540e565b61290d565b6000818152600560205260408120546001600160a01b0316806109105760405162461bcd60e51b815260206004820152601860248201527f4552433732313a20696e76616c696420746f6b656e20494400000000000000006044820152606401610a5f565b600061123e82612642565b6000828152600560205260409020546001600160a01b0316610910565b60006001600160a01b0382166112d95760405162461bcd60e51b815260206004820152602960248201527f4552433732313a2061646472657373207a65726f206973206e6f74206120766160448201527f6c6964206f776e657200000000000000000000000000000000000000000000006064820152608401610a5f565b506001600160a01b031660009081526006602052604090205490565b6000546001600160a01b0316331461134e576000546040517fc6cce6a40000000000000000000000000000000000000000000000000000000081526001600160a01b039091166004820152336024820152604401610a5f565b600080547fffffffffffffffffffffffff0000000000000000000000000000000000000000166001600160a01b0383169081178255604051909133917fbdd36143ee09de60bdefca70680e0f71189b2ed7acee364b53917ad433fdaf809190a350565b6000818152600b60205260408120600101548290600160d01b900460ff166113ee5760405162b8e7e760e51b815260048101829052602401610a5f565b50506000908152600b6020526040902054790100000000000000000000000000000000000000000000000000900464ffffffffff1690565b6000546001600160a01b0316331461147f576000546040517fc6cce6a40000000000000000000000000000000000000000000000000000000081526001600160a01b039091166004820152336024820152604401610a5f565b600a80546001600160a01b038381167fffffffffffffffffffffffff0000000000000000000000000000000000000000831681179093556040805191909216808252602082019390935233917fa2548bd4b805e907c1558a47b5858324fe8bb4a2e1ddfca647eecbf65610eebc910160405180910390a27f6bd5c950a8d8df17f772f5af37cb3655737899cbf903264b9795592da439661c60018060095461152791906154c8565b60408051928352602083019190915201610f97565b6115446128a9565b6000818152600b60205260409020600101548190600160d01b900460ff166115815760405162b8e7e760e51b815260048101829052602401610a5f565b81600061158d84612edb565b905060048160048111156115a3576115a3614f90565b036115dd576040517f4a5541ef00000000000000000000000000000000000000000000000000000000815260048101859052602401610a5f565b60038160048111156115f1576115f1614f90565b0361162b576040517ffe19f19f00000000000000000000000000000000000000000000000000000000815260048101859052602401610a5f565b600281600481111561163f5761163f614f90565b03611679576040517f4595a35e00000000000000000000000000000000000000000000000000000000815260048101859052602401610a5f565b6000848152600b60205260409020546001600160a01b031633146116d2576040517f216caf0d00000000000000000000000000000000000000000000000000000000815260048101859052336024820152604401610a5f565b6116db8461395f565b506040518181527ff8e1a15aba9398e019f0b49df1a4fde98ee17ae345cb5f6b5e2c27f5033e8ce79060200160405180910390a1505050565b61171c6128a9565b8060005b818110156117515761174984848381811061173d5761173d6154db565b90506020020135610e55565b600101611720565b50505050565b6117c260408051610140810182526000808252602080830182905282840182905260608084018390526080840183905260a0840183905260c0840183905260e08401839052610100840183905284519081018552828152908101829052928301529061012082015290565b6000828152600b60205260409020600101548290600160d01b900460ff166117ff5760405162b8e7e760e51b815260048101829052602401610a5f565b6000838152600b602090815260409182902082516101408101845281546001600160a01b03808216835264ffffffffff740100000000000000000000000000000000000000008084048216858801527901000000000000000000000000000000000000000000000000008085048316868a015260ff7e010000000000000000000000000000000000000000000000000000000000008604811615156060808901919091527f0100000000000000000000000000000000000000000000000000000000000000909604811615156080880152600188015494851660a088015291840490921660c08601529082048116151560e0850152600160d01b909104161515610100830152845190810185526002808401546fffffffffffffffffffffffffffffffff80821684527001000000000000000000000000000000009091048116958301959095526003909301549093169383019390935261012083019190915290925061196b84612edb565b600481111561197c5761197c614f90565b03610c0e576000606083015250919050565b6000546001600160a01b031633146119e7576000546040517fc6cce6a40000000000000000000000000000000000000000000000000000000081526001600160a01b039091166004820152336024820152604401610a5f565b600180546001600160a01b038381167fffffffffffffffffffffffff0000000000000000000000000000000000000000831681179093556040805191909216808252602082019390935233917fdcb09aef4bf01068924ccce937981cbe59d25ba08380cf941aaaea4e4bd3960d910160405180910390a25050565b6000818152600b60205260408120600101548290600160d01b900460ff16611a9f5760405162b8e7e760e51b815260048101829052602401610a5f565b6000611aaa84612edb565b90506002816004811115611ac057611ac0614f90565b1480611add57506003816004811115611adb57611adb614f90565b145b80610dc657506004610db2565b6000818152600b60205260408120600101548290600160d01b900460ff16611b275760405162b8e7e760e51b815260048101829052602401610a5f565b50506000908152600b602052604090206001015474010000000000000000000000000000000000000000900464ffffffffff1690565b60606004805461092590615216565b611b77338383613ab8565b5050565b611b836128a9565b8381808214611bc8576040517faec934400000000000000000000000000000000000000000000000000000000081526004810183905260248101829052604401610a5f565b60005b82811015611c1f57611c17888883818110611be857611be86154db565b9050602002013587878785818110611c0257611c026154db565b905060200201602081019061082c91906152f2565b600101611bcb565b5050505050505050565b6000546001600160a01b03163314611c82576000546040517fc6cce6a40000000000000000000000000000000000000000000000000000000081526001600160a01b039091166004820152336024820152604401610a5f565b6001600160a01b0381166000908152600260205260408120546fffffffffffffffffffffffffffffffff1690819003611cf2576040517f8410168c0000000000000000000000000000000000000000000000000000000081526001600160a01b0383166004820152602401610a5f565b6001600160a01b038216600081815260026020526040902080547fffffffffffffffffffffffffffffffff00000000000000000000000000000000169055611d4d90336fffffffffffffffffffffffffffffffff8416613ba4565b6040516fffffffffffffffffffffffffffffffff821681526001600160a01b0383169033907fca7a4a65a94ed2f37538814e00e1cd4c41a78261561e3f3794592f11409cf5af9060200160405180910390a35050565b6000818152600b60205260408120600101548290600160d01b900460ff16611de05760405162b8e7e760e51b815260048101829052602401610a5f565b50506000908152600b60205260409020600201546fffffffffffffffffffffffffffffffff1690565b6000818152600b60205260408120600101548290600160d01b900460ff16611e465760405162b8e7e760e51b815260048101829052602401610a5f565b610c0b83612edb565b611e593383612ff3565b611ecb5760405162461bcd60e51b815260206004820152602d60248201527f4552433732313a2063616c6c6572206973206e6f7420746f6b656e206f776e6560448201527f72206f7220617070726f766564000000000000000000000000000000000000006064820152608401610a5f565b61175184848484613c4d565b6000818152600b60205260408120600101548290600160d01b900460ff16611f145760405162b8e7e760e51b815260048101829052602401610a5f565b50506000908152600b60205260409020546001600160a01b031690565b6000818152600b60205260408120600101548290600160d01b900460ff16611f6e5760405162b8e7e760e51b815260048101829052602401610a5f565b50506000908152600b602052604090205474010000000000000000000000000000000000000000900464ffffffffff1690565b611fa96128a9565b6000828152600b60205260409020600101548290600160d01b900460ff16611fe65760405162b8e7e760e51b815260048101829052602401610a5f565b60008381526005602052604090205483906001600160a01b0316338114612042576040517f216caf0d00000000000000000000000000000000000000000000000000000000815260048101869052336024820152604401610a5f565b600061204d86613cd6565b90506fffffffffffffffffffffffffffffffff81161561207257612072868383613d21565b61207d828688613071565b50506040518181527ff8e1a15aba9398e019f0b49df1a4fde98ee17ae345cb5f6b5e2c27f5033e8ce7906020015b60405180910390a150505050565b60606120c482612642565b600a546040517fe9dc6375000000000000000000000000000000000000000000000000000000008152306004820152602481018490526001600160a01b039091169063e9dc637590604401600060405180830381865afa15801561212c573d6000803e3d6000fd5b505050506040513d6000823e601f3d908101601f19168201604052610910919081019061550a565b60408051606081018252600080825260208201819052918101919091526000828152600b60205260409020600101548290600160d01b900460ff166121ae5760405162b8e7e760e51b815260048101829052602401610a5f565b5050604080516060810182526000838152600b6020818152848320805464ffffffffff74010000000000000000000000000000000000000000808304821688527901000000000000000000000000000000000000000000000000009092048116848801529790945291905260010154049092169082015290565b6000818152600b60205260408120600101548290600160d01b900460ff166122655760405162b8e7e760e51b815260048101829052602401610a5f565b50506000908152600b60205260409020600301546fffffffffffffffffffffffffffffffff1690565b6000818152600b60205260408120600101548290600160d01b900460ff166122cb5760405162b8e7e760e51b815260048101829052602401610a5f565b50506000908152600b602052604090206002015470010000000000000000000000000000000090046fffffffffffffffffffffffffffffffff1690565b6000818152600b60205260408120600101548290600160d01b900460ff166123455760405162b8e7e760e51b815260048101829052602401610a5f565b610c0b83613cd6565b611b77828261082c85613cd6565b6000818152600b60205260408120600101548290600160d01b900460ff166123995760405162b8e7e760e51b815260048101829052602401610a5f565b50506000908152600b60205260409020600101546001600160a01b031690565b6000818152600b60205260408120600101548290600160d01b900460ff166123f65760405162b8e7e760e51b815260048101829052602401610a5f565b50506000908152600b60205260409020547f0100000000000000000000000000000000000000000000000000000000000000900460ff1690565b6124386128a9565b8261244284610fa3565b1561247c576040517f4a5541ef00000000000000000000000000000000000000000000000000000000815260048101859052602401610a5f565b6000848152600b60205260409020546001600160a01b031633141580156124a957506124a78461373e565b155b156124e9576040517f216caf0d00000000000000000000000000000000000000000000000000000000815260048101859052336024820152604401610a5f565b6000848152600b60205260409020546001600160a01b03163314801561252957506000848152600560205260409020546001600160a01b03848116911614155b15612578576040517f5b97ed72000000000000000000000000000000000000000000000000000000008152600481018590523360248201526001600160a01b0384166044820152606401610a5f565b6001600160a01b0383166125b8576040517fc61a0e9e00000000000000000000000000000000000000000000000000000000815260040160405180910390fd5b816fffffffffffffffffffffffffffffffff16600003612607576040517fd2aabcd900000000000000000000000000000000000000000000000000000000815260048101859052602401610a5f565b612612848484613d21565b6040518181527ff8e1a15aba9398e019f0b49df1a4fde98ee17ae345cb5f6b5e2c27f5033e8ce7906020016120ab565b6000818152600560205260409020546001600160a01b03166110cd5760405162461bcd60e51b815260206004820152601860248201527f4552433732313a20696e76616c696420746f6b656e20494400000000000000006044820152606401610a5f565b600081815260076020526040902080547fffffffffffffffffffffffff0000000000000000000000000000000000000000166001600160a01b03841690811790915581906126f3826111ce565b6001600160a01b03167f8c5be1e5ebec7d5bd14f71427d1e84f3dd0314c0f7b2291e5b200ac8c7c3b92560405160405180910390a45050565b6000818152600b6020526040812054790100000000000000000000000000000000000000000000000000900464ffffffffff164280821115612772575060009392505050565b6000848152600b602052604090206001015474010000000000000000000000000000000000000000900464ffffffffff168082106127d557505050600091825250600b60205260409020600201546fffffffffffffffffffffffffffffffff1690565b6000858152600b602052604081205474010000000000000000000000000000000000000000900464ffffffffff169081840390828403906128168383614077565b60008a8152600b60205260408120600201549192506fffffffffffffffffffffffffffffffff9091169061284a8383614099565b90508082101561289b5750505060009788525050600b602052505060409093206002015470010000000000000000000000000000000090046fffffffffffffffffffffffffffffffff169392505050565b9a9950505050505050505050565b306001600160a01b037f0000000000000000000000000000000000000000000000000000000000000000161461290b576040517fa1c0d6e500000000000000000000000000000000000000000000000000000000815260040160405180910390fd5b565b60015460608201516040517fdcf844a70000000000000000000000000000000000000000000000000000000081526001600160a01b0391821660048201526000928392169063dcf844a790602401602060405180830381865afa158015612978573d6000803e3d6000fd5b505050506040513d601f19601f8201168201806040525081019061299c9190615581565b905060006129c08460400151838660c001516020015167016345785d8a00006140a8565b90506129d481600001518560a00151614269565b600954925060405180610140016040528085600001516001600160a01b031681526020018560a001516000015164ffffffffff1681526020018560a001516020015164ffffffffff16815260200185608001511515815260200160001515815260200185606001516001600160a01b031681526020018560a001516040015164ffffffffff168152602001600015158152602001600115158152602001604051806060016040528084600001516fffffffffffffffffffffffffffffffff16815260200160006fffffffffffffffffffffffffffffffff16815260200160006fffffffffffffffffffffffffffffffff16815250815250600b600085815260200190815260200160002060008201518160000160006101000a8154816001600160a01b0302191690836001600160a01b0316021790555060208201518160000160146101000a81548164ffffffffff021916908364ffffffffff16021790555060408201518160000160196101000a81548164ffffffffff021916908364ffffffffff160217905550606082015181600001601e6101000a81548160ff021916908315150217905550608082015181600001601f6101000a81548160ff02191690831515021790555060a08201518160010160006101000a8154816001600160a01b0302191690836001600160a01b0316021790555060c08201518160010160146101000a81548164ffffffffff021916908364ffffffffff16021790555060e08201518160010160196101000a81548160ff02191690831515021790555061010082015181600101601a6101000a81548160ff0219169083151502179055506101208201518160020160008201518160000160006101000a8154816fffffffffffffffffffffffffffffffff02191690836fffffffffffffffffffffffffffffffff16021790555060208201518160000160106101000a8154816fffffffffffffffffffffffffffffffff02191690836fffffffffffffffffffffffffffffffff16021790555060408201518160010160006101000a8154816fffffffffffffffffffffffffffffffff02191690836fffffffffffffffffffffffffffffffff16021790555050509050508260010160098190555080602001516002600086606001516001600160a01b03166001600160a01b0316815260200190815260200160002060009054906101000a90046fffffffffffffffffffffffffffffffff16016002600086606001516001600160a01b03166001600160a01b0316815260200190815260200160002060006101000a8154816fffffffffffffffffffffffffffffffff02191690836fffffffffffffffffffffffffffffffff160217905550612dc38460200151846143ee565b612e03333083602001518460000151016fffffffffffffffffffffffffffffffff1687606001516001600160a01b0316614591909392919063ffffffff16565b60408101516fffffffffffffffffffffffffffffffff1615612e595760c08401515160408201516060860151612e59926001600160a01b03909116913391906fffffffffffffffffffffffffffffffff16614591565b83606001516001600160a01b031684602001516001600160a01b031685600001516001600160a01b03167f6a14b1f86e996f59f3a5a72afa0f99cc59199944c80ad4f7260c9b3e3a07b1108633868a608001518b60a001518c60c0015160000151604051612ecc9695949392919061559a565b60405180910390a45050919050565b6000818152600b6020526040812060010154790100000000000000000000000000000000000000000000000000900460ff1615612f1a57506004919050565b6000828152600b60205260409020547f0100000000000000000000000000000000000000000000000000000000000000900460ff1615612f5c57506003919050565b6000828152600b602052604090205474010000000000000000000000000000000000000000900464ffffffffff16421015612f9957506000919050565b6000828152600b60205260409020600201546fffffffffffffffffffffffffffffffff16612fc68361272c565b6fffffffffffffffffffffffffffffffff161015612fe657506001919050565b506002919050565b919050565b600080612fff836111ce565b9050806001600160a01b0316846001600160a01b0316148061304657506001600160a01b0380821660009081526008602090815260408083209388168352929052205460ff165b80610dc65750836001600160a01b031661305f846109a8565b6001600160a01b031614949350505050565b826001600160a01b0316613084826111ce565b6001600160a01b0316146131005760405162461bcd60e51b815260206004820152602560248201527f4552433732313a207472616e736665722066726f6d20696e636f72726563742060448201527f6f776e65720000000000000000000000000000000000000000000000000000006064820152608401610a5f565b6001600160a01b03821661317b5760405162461bcd60e51b8152602060048201526024808201527f4552433732313a207472616e7366657220746f20746865207a65726f2061646460448201527f72657373000000000000000000000000000000000000000000000000000000006064820152608401610a5f565b826001600160a01b031661318e826111ce565b6001600160a01b03161461320a5760405162461bcd60e51b815260206004820152602560248201527f4552433732313a207472616e736665722066726f6d20696e636f72726563742060448201527f6f776e65720000000000000000000000000000000000000000000000000000006064820152608401610a5f565b600081815260076020908152604080832080547fffffffffffffffffffffffff00000000000000000000000000000000000000009081169091556001600160a01b038781168086526006855283862080547fffffffffffffffffffffffffffffffffffffffffffffffffffffffffffffffff01905590871680865283862080546001019055868652600590945282852080549092168417909155905184937fddf252ad1be2c89b69c2b068fc378daa952ba7f163c4a11628f55a4df523b3ef91a4505050565b60006132db8261272c565b6000838152600b6020908152604091829020825160608101845260028201546fffffffffffffffffffffffffffffffff808216808452700100000000000000000000000000000000909204811694830194909452600390920154831693810193909352929350909190831610613380576040517f4595a35e00000000000000000000000000000000000000000000000000000000815260048101849052602401610a5f565b6000838152600b60205260409020547e01000000000000000000000000000000000000000000000000000000000000900460ff166133ed576040517fe71b71cc00000000000000000000000000000000000000000000000000000000815260048101849052602401610a5f565b80516000906133fd908490615292565b905060008260200151846134119190615292565b6000868152600b6020526040812080547dffffffffffffffffffffffffffffffffffffffffffffffffffffffffffff167f01000000000000000000000000000000000000000000000000000000000000001790559091506fffffffffffffffffffffffffffffffff821690036134d5576000858152600b6020526040902060010180547fffffffffffff00ffffffffffffffffffffffffffffffffffffffffffffffffff167901000000000000000000000000000000000000000000000000001790555b6000858152600b602090815260408083206003810180547fffffffffffffffffffffffffffffffff00000000000000000000000000000000166fffffffffffffffffffffffffffffffff88161790555460059092528220546001600160a01b039182169291166000888152600b6020526040902060010154909150613576906001600160a01b0316836fffffffffffffffffffffffffffffffff8716613ba4565b6001600160a01b0382163303613631576001600160a01b0381163b1561362c576040517f72eba203000000000000000000000000000000000000000000000000000000008152600481018890526001600160a01b0383811660248301526fffffffffffffffffffffffffffffffff8087166044840152851660648301528216906372eba20390608401600060405180830381600087803b15801561361957600080fd5b505af192505050801561362a575060015b505b6136d7565b6001600160a01b0382163b156136d7576040517f72eba203000000000000000000000000000000000000000000000000000000008152600481018890526001600160a01b0382811660248301526fffffffffffffffffffffffffffffffff8087166044840152851660648301528316906372eba20390608401600060405180830381600087803b1580156136c457600080fd5b505af19250505080156136d5575060015b505b604080516fffffffffffffffffffffffffffffffff8087168252851660208201526001600160a01b0380841692908516918a917f2971bd77136e1a620a6b1eb4ad5edd190e9fd391b26bfc5dea50b882fc6b9fd2910160405180910390a450505050505050565b6000818152600560205260408120546001600160a01b03163381148061378757506001600160a01b038116600090815260086020908152604080832033845290915290205460ff165b80610c0b575033613797846109a8565b6001600160a01b0316149392505050565b60006137b3826111ce565b90506137be826111ce565b600083815260076020908152604080832080547fffffffffffffffffffffffff00000000000000000000000000000000000000009081169091556001600160a01b0385168085526006845282852080547fffffffffffffffffffffffffffffffffffffffffffffffffffffffffffffffff0190558785526005909352818420805490911690555192935084927fddf252ad1be2c89b69c2b068fc378daa952ba7f163c4a11628f55a4df523b3ef908390a45050565b6000818152600b60208181526040808420815160608101835260028201546fffffffffffffffffffffffffffffffff80821683527001000000000000000000000000000000009091048116828601526003830154169281019290925285855292909152600190910154790100000000000000000000000000000000000000000000000000900460ff161561390b576020015192915050565b6000838152600b60205260409020547f0100000000000000000000000000000000000000000000000000000000000000900460ff16156139565760408101518151610c0b9190615292565b610c0b8361272c565b6000818152600b60205260409020547e01000000000000000000000000000000000000000000000000000000000000900460ff166139cc576040517fe71b71cc00000000000000000000000000000000000000000000000000000000815260048101829052602401610a5f565b6000818152600b6020908152604080832080547fff00ffffffffffffffffffffffffffffffffffffffffffffffffffffffffffff16905560059091529020546001600160a01b0316803b15613a89576040517f341a0bd9000000000000000000000000000000000000000000000000000000008152600481018390526001600160a01b0382169063341a0bd990602401600060405180830381600087803b158015613a7657600080fd5b505af1925050508015613a87575060015b505b60405182907f0eb069207093cd3e51cd1370d2d369770057fbe29947e577e5fb428c6c6fc78f90600090a25050565b816001600160a01b0316836001600160a01b031603613b195760405162461bcd60e51b815260206004820152601960248201527f4552433732313a20617070726f766520746f2063616c6c6572000000000000006044820152606401610a5f565b6001600160a01b0383811660008181526008602090815260408083209487168084529482529182902080547fffffffffffffffffffffffffffffffffffffffffffffffffffffffffffffff001686151590811790915591519182527f17307eab39ab6107e8899845ad3d59bd9653f200f220920489ca2b5937696c31910160405180910390a3505050565b6040516001600160a01b038316602482015260448101829052610b1e9084907fa9059cbb00000000000000000000000000000000000000000000000000000000906064015b60408051601f198184030181529190526020810180517bffffffffffffffffffffffffffffffffffffffffffffffffffffffff167fffffffff00000000000000000000000000000000000000000000000000000000909316929092179091526145e2565b613c58848484613071565b613c64848484846146ca565b6117515760405162461bcd60e51b815260206004820152603260248201527f4552433732313a207472616e7366657220746f206e6f6e20455243373231526560448201527f63656976657220696d706c656d656e74657200000000000000000000000000006064820152608401610a5f565b6000818152600b602052604081206002015470010000000000000000000000000000000090046fffffffffffffffffffffffffffffffff16613d1783613873565b6109109190615292565b6000613d2c84613cd6565b9050806fffffffffffffffffffffffffffffffff16826fffffffffffffffffffffffffffffffff161115613daf576040517fa1fb2bbc000000000000000000000000000000000000000000000000000000008152600481018590526fffffffffffffffffffffffffffffffff808416602483015282166044820152606401610a5f565b6000848152600b6020526040902060020154613df290839070010000000000000000000000000000000090046fffffffffffffffffffffffffffffffff16615630565b6000858152600b60209081526040918290206002810180546fffffffffffffffffffffffffffffffff95861670010000000000000000000000000000000090810291871682811793849055865160608101885292881617808352920486169381019390935260039091015490931691810182905291613e719190615292565b6fffffffffffffffffffffffffffffffff1681602001516fffffffffffffffffffffffffffffffff1610613f1a576000858152600b602052604090206001810180547fffffffffffff00ffffffffffffffffffffffffffffffffffffffffffffffffff1679010000000000000000000000000000000000000000000000000017905580547fff00ffffffffffffffffffffffffffffffffffffffffffffffffffffffffffff1690555b6000858152600b6020526040902060010154613f52906001600160a01b0316856fffffffffffffffffffffffffffffffff8616613ba4565b6000858152600560205260409020546001600160a01b0316338114801590613f8457506000816001600160a01b03163b115b1561401d576040517f13375c3b000000000000000000000000000000000000000000000000000000008152600481018790523360248201526001600160a01b0386811660448301526fffffffffffffffffffffffffffffffff861660648301528216906313375c3b90608401600060405180830381600087803b15801561400a57600080fd5b505af192505050801561401b575060015b505b6040516fffffffffffffffffffffffffffffffff851681526001600160a01b0386169087907ffa54f9f9bdcdd28778cbb9f78490df6691cc4e2729588e10f4cc0a26c465686a9060200160405180910390a3505050505050565b600061409261408f84670de0b6b3a764000085614868565b90565b9392505050565b600061409261408f8484614972565b6040805160608101825260008082526020820181905291810191909152846fffffffffffffffffffffffffffffffff1660000361410257506040805160608101825260008082526020820181905291810191909152610dc6565b83821015614146576040517f47152d670000000000000000000000000000000000000000000000000000000081526004810185905260248101839052604401610a5f565b8282101561418a576040517f4fea5c1a0000000000000000000000000000000000000000000000000000000081526004810184905260248101839052604401610a5f565b6141ab61408f856fffffffffffffffffffffffffffffffff88165b90614099565b6fffffffffffffffffffffffffffffffff90811660208301526141d59061408f90859088166141a5565b6fffffffffffffffffffffffffffffffff166040820181905260208201516141fd9190615630565b6fffffffffffffffffffffffffffffffff16856fffffffffffffffffffffffffffffffff161161422f5761422f615659565b604081015160208201516142439087615292565b61424d9190615292565b6fffffffffffffffffffffffffffffffff168152949350505050565b816fffffffffffffffffffffffffffffffff166000036142b5576040517f6095d3bc00000000000000000000000000000000000000000000000000000000815260040160405180910390fd5b806020015164ffffffffff16816000015164ffffffffff16111561431d57805160208201516040517f4c23297000000000000000000000000000000000000000000000000000000000815264ffffffffff928316600482015291166024820152604401610a5f565b806040015164ffffffffff16816020015164ffffffffff161061438757602081015160408083015190517f9fee269100000000000000000000000000000000000000000000000000000000815264ffffffffff928316600482015291166024820152604401610a5f565b6000429050816040015164ffffffffff168164ffffffffff1610610b1e5760408083015190517f210aec0e00000000000000000000000000000000000000000000000000000000815264ffffffffff80841660048301529091166024820152604401610a5f565b6001600160a01b0382166144445760405162461bcd60e51b815260206004820181905260248201527f4552433732313a206d696e7420746f20746865207a65726f20616464726573736044820152606401610a5f565b6000818152600560205260409020546001600160a01b0316156144a95760405162461bcd60e51b815260206004820152601c60248201527f4552433732313a20746f6b656e20616c7265616479206d696e746564000000006044820152606401610a5f565b6000818152600560205260409020546001600160a01b03161561450e5760405162461bcd60e51b815260206004820152601c60248201527f4552433732313a20746f6b656e20616c7265616479206d696e746564000000006044820152606401610a5f565b6001600160a01b038216600081815260066020908152604080832080546001019055848352600590915280822080547fffffffffffffffffffffffff0000000000000000000000000000000000000000168417905551839291907fddf252ad1be2c89b69c2b068fc378daa952ba7f163c4a11628f55a4df523b3ef908290a45050565b6040516001600160a01b03808516602483015283166044820152606481018290526117519085907f23b872dd0000000000000000000000000000000000000000000000000000000090608401613be9565b6000614637826040518060400160405280602081526020017f5361666545524332303a206c6f772d6c6576656c2063616c6c206661696c6564815250856001600160a01b0316614a799092919063ffffffff16565b90508051600014806146585750808060200190518101906146589190615688565b610b1e5760405162461bcd60e51b815260206004820152602a60248201527f5361666545524332303a204552433230206f7065726174696f6e20646964206e60448201527f6f742073756363656564000000000000000000000000000000000000000000006064820152608401610a5f565b60006001600160a01b0384163b15614860576040517f150b7a020000000000000000000000000000000000000000000000000000000081526001600160a01b0385169063150b7a02906147279033908990889088906004016156a5565b6020604051808303816000875af1925050508015614762575060408051601f3d908101601f1916820190925261475f918101906156e1565b60015b614815573d808015614790576040519150601f19603f3d011682016040523d82523d6000602084013e614795565b606091505b50805160000361480d5760405162461bcd60e51b815260206004820152603260248201527f4552433732313a207472616e7366657220746f206e6f6e20455243373231526560448201527f63656976657220696d706c656d656e74657200000000000000000000000000006064820152608401610a5f565b805181602001fd5b7fffffffff00000000000000000000000000000000000000000000000000000000167f150b7a0200000000000000000000000000000000000000000000000000000000149050610dc6565b506001610dc6565b600080807fffffffffffffffffffffffffffffffffffffffffffffffffffffffffffffffff858709858702925082811083820303915050806000036148c0578382816148b6576148b66156fe565b0492505050614092565b83811061490a576040517f63a05778000000000000000000000000000000000000000000000000000000008152600481018790526024810186905260448101859052606401610a5f565b600084868809600260036001881981018916988990049182028318808302840302808302840302808302840302808302840302808302840302918202909203026000889003889004909101858311909403939093029303949094049190911702949350505050565b600080807fffffffffffffffffffffffffffffffffffffffffffffffffffffffffffffffff848609848602925082811083820303915050806000036149c45750670de0b6b3a764000090049050610910565b670de0b6b3a76400008110614a0f576040517f5173648d0000000000000000000000000000000000000000000000000000000081526004810186905260248101859052604401610a5f565b6000670de0b6b3a7640000858709620400008185030493109091037d40000000000000000000000000000000000000000000000000000000000002919091177faccb18165bd6fe31ae1cf318dc5b51eee0e1ba569b88cd74c1773b91fac106690291505092915050565b6060610dc6848460008585600080866001600160a01b03168587604051614aa0919061572d565b60006040518083038185875af1925050503d8060008114614add576040519150601f19603f3d011682016040523d82523d6000602084013e614ae2565b606091505b5091509150614af387838387614afe565b979650505050505050565b60608315614b6d578251600003614b66576001600160a01b0385163b614b665760405162461bcd60e51b815260206004820152601d60248201527f416464726573733a2063616c6c20746f206e6f6e2d636f6e74726163740000006044820152606401610a5f565b5081610dc6565b610dc68383815115614b825781518083602001fd5b8060405162461bcd60e51b8152600401610a5f9190614c37565b7fffffffff00000000000000000000000000000000000000000000000000000000811681146110cd57600080fd5b600060208284031215614bdc57600080fd5b813561409281614b9c565b60005b83811015614c02578181015183820152602001614bea565b50506000910152565b60008151808452614c23816020860160208601614be7565b601f01601f19169290920160200192915050565b6020815260006140926020830184614c0b565b600060208284031215614c5c57600080fd5b5035919050565b6001600160a01b03811681146110cd57600080fd5b60008060408385031215614c8b57600080fd5b8235614c9681614c63565b946020939093013593505050565b60006101208284031215610c0e57600080fd5b600080600060608486031215614ccc57600080fd5b8335614cd781614c63565b92506020840135614ce781614c63565b929592945050506040919091013590565b600060208284031215614d0a57600080fd5b813561409281614c63565b60006101408284031215610c0e57600080fd5b60008083601f840112614d3a57600080fd5b50813567ffffffffffffffff811115614d5257600080fd5b6020830191508360208260051b8501011115614d6d57600080fd5b9250929050565b60008060208385031215614d8757600080fd5b823567ffffffffffffffff811115614d9e57600080fd5b614daa85828601614d28565b90969095509350505050565b81516001600160a01b0316815261018081016020830151614de0602084018264ffffffffff169052565b506040830151614df9604084018264ffffffffff169052565b506060830151614e0d606084018215159052565b506080830151614e21608084018215159052565b5060a0830151614e3c60a08401826001600160a01b03169052565b5060c0830151614e5560c084018264ffffffffff169052565b5060e0830151614e6960e084018215159052565b50610100838101511515908301526101209283015180516fffffffffffffffffffffffffffffffff9081169484019490945260208101518416610140840152604001519092166101609091015290565b80151581146110cd57600080fd5b8035612fee81614eb9565b60008060408385031215614ee557600080fd5b8235614ef081614c63565b91506020830135614f0081614eb9565b809150509250929050565b600080600080600060608688031215614f2357600080fd5b853567ffffffffffffffff80821115614f3b57600080fd5b614f4789838a01614d28565b909750955060208801359150614f5c82614c63565b90935060408701359080821115614f7257600080fd5b50614f7f88828901614d28565b969995985093965092949392505050565b7f4e487b7100000000000000000000000000000000000000000000000000000000600052602160045260246000fd5b6020810160058310614ffa577f4e487b7100000000000000000000000000000000000000000000000000000000600052602160045260246000fd5b91905290565b7f4e487b7100000000000000000000000000000000000000000000000000000000600052604160045260246000fd5b604051601f8201601f1916810167ffffffffffffffff8111828210171561505857615058615000565b604052919050565b600067ffffffffffffffff82111561507a5761507a615000565b50601f01601f191660200190565b6000806000806080858703121561509e57600080fd5b84356150a981614c63565b935060208501356150b981614c63565b925060408501359150606085013567ffffffffffffffff8111156150dc57600080fd5b8501601f810187136150ed57600080fd5b80356151006150fb82615060565b61502f565b81815288602083850101111561511557600080fd5b8160208401602083013760006020838301015280935050505092959194509250565b6000806040838503121561514a57600080fd5b823591506020830135614f0081614c63565b606081016109108284805164ffffffffff908116835260208083015182169084015260409182015116910152565b6000806040838503121561519d57600080fd5b82356151a881614c63565b91506020830135614f0081614c63565b80356fffffffffffffffffffffffffffffffff81168114612fee57600080fd5b6000806000606084860312156151ed57600080fd5b8335925060208401356151ff81614c63565b915061520d604085016151b8565b90509250925092565b600181811c9082168061522a57607f821691505b602082108103610c0e577f4e487b7100000000000000000000000000000000000000000000000000000000600052602260045260246000fd5b7f4e487b7100000000000000000000000000000000000000000000000000000000600052601160045260246000fd5b6fffffffffffffffffffffffffffffffff8281168282160390808211156152bb576152bb615263565b5092915050565b803564ffffffffff81168114612fee57600080fd5b6000602082840312156152e957600080fd5b614092826152c2565b60006020828403121561530457600080fd5b614092826151b8565b60006020828403121561531f57600080fd5b813561409281614eb9565b60006040828403121561533c57600080fd5b6040516040810181811067ffffffffffffffff8211171561535f5761535f615000565b604052905080823561537081614c63565b8152602092830135920191909152919050565b60006040828403121561539557600080fd5b614092838361532a565b6000606082840312156153b157600080fd5b6040516060810181811067ffffffffffffffff821117156153d4576153d4615000565b6040529050806153e3836152c2565b81526153f1602084016152c2565b6020820152615402604084016152c2565b60408201525092915050565b6000610140828403121561542157600080fd5b60405160e0810181811067ffffffffffffffff8211171561544457615444615000565b604052823561545281614c63565b8152602083013561546281614c63565b6020820152615473604084016151b8565b6040820152606083013561548681614c63565b606082015261549760808401614ec7565b60808201526154a98460a0850161539f565b60a08201526154bc84610100850161532a565b60c08201529392505050565b8181038181111561091057610910615263565b7f4e487b7100000000000000000000000000000000000000000000000000000000600052603260045260246000fd5b60006020828403121561551c57600080fd5b815167ffffffffffffffff81111561553357600080fd5b8201601f8101841361554457600080fd5b80516155526150fb82615060565b81815285602083850101111561556757600080fd5b615578826020830160208601614be7565b95945050505050565b60006020828403121561559357600080fd5b5051919050565b8681526001600160a01b0386811660208301526101408201906155eb604084018880516fffffffffffffffffffffffffffffffff908116835260208083015182169084015260409182015116910152565b85151560a0840152845164ffffffffff90811660c08501526020860151811660e085015260408601511661010084015280841661012084015250979650505050505050565b6fffffffffffffffffffffffffffffffff8181168382160190808211156152bb576152bb615263565b7f4e487b7100000000000000000000000000000000000000000000000000000000600052600160045260246000fd5b60006020828403121561569a57600080fd5b815161409281614eb9565b60006001600160a01b038087168352808616602084015250836040830152608060608301526156d76080830184614c0b565b9695505050505050565b6000602082840312156156f357600080fd5b815161409281614b9c565b7f4e487b7100000000000000000000000000000000000000000000000000000000600052601260045260246000fd5b6000825161573f818460208701614be7565b919091019291505056",
    "linkReferences": {}
  },
  "methodIdentifiers": {
    "MAX_FEE()": "bc063e1a",
    "admin()": "f851a440",
    "approve(address,uint256)": "095ea7b3",
    "balanceOf(address)": "70a08231",
    "burn(uint256)": "42966c68",
    "cancel(uint256)": "40e58ee5",
    "cancelMultiple(uint256[])": "8659c270",
    "claimProtocolRevenues(address)": "a6202bf2",
    "comptroller()": "5fe3b567",
    "createWithDurations((address,address,uint128,address,bool,(uint40,uint40),(address,uint256)))": "1b4103a9",
    "createWithRange((address,address,uint128,address,bool,(uint40,uint40,uint40),(address,uint256)))": "4bc78b73",
    "getApproved(uint256)": "081812fc",
    "getAsset(uint256)": "eac8f5b8",
    "getCliffTime(uint256)": "780a82c8",
    "getDepositedAmount(uint256)": "a80fc071",
    "getEndTime(uint256)": "9067b677",
    "getRange(uint256)": "cc364f48",
    "getRecipient(uint256)": "6d0cee75",
    "getRefundedAmount(uint256)": "d4dbd20b",
    "getSender(uint256)": "b971302a",
    "getStartTime(uint256)": "bc2be1be",
    "getStream(uint256)": "894e9a0d",
    "getWithdrawnAmount(uint256)": "d511609f",
    "isApprovedForAll(address,address)": "e985e9c5",
    "isCancelable(uint256)": "4857501f",
    "isCold(uint256)": "8f69b993",
    "isDepleted(uint256)": "425d30dd",
    "isStream(uint256)": "b8a3be66",
    "isWarm(uint256)": "1c1cdd4c",
    "name()": "06fdde03",
    "nextStreamId()": "1e99d569",
    "ownerOf(uint256)": "6352211e",
    "protocolRevenues(address)": "39a73c03",
    "refundableAmountOf(uint256)": "1400ecec",
    "renounce(uint256)": "7de6b1db",
    "safeTransferFrom(address,address,uint256)": "42842e0e",
    "safeTransferFrom(address,address,uint256,bytes)": "b88d4fde",
    "setApprovalForAll(address,bool)": "a22cb465",
    "setComptroller(address)": "8bad38dd",
    "setNFTDescriptor(address)": "7cad6cd1",
    "statusOf(uint256)": "ad35efd4",
    "streamedAmountOf(uint256)": "4869e12d",
    "supportsInterface(bytes4)": "01ffc9a7",
    "symbol()": "95d89b41",
    "tokenURI(uint256)": "c87b56dd",
    "transferAdmin(address)": "75829def",
    "transferFrom(address,address,uint256)": "23b872dd",
    "wasCanceled(uint256)": "f590c176",
    "withdraw(uint256,address,uint128)": "fdd46d60",
    "withdrawMax(uint256,address)": "ea5ead19",
    "withdrawMaxAndTransfer(uint256,address)": "c156a11d",
    "withdrawMultiple(uint256[],address,uint128[])": "a2ffb897",
    "withdrawableAmountOf(uint256)": "d975dfed"
  },
  "id": 79
}